:020000040000FA
:100000000C9461000C947E000C947E000C947E0095
:100010000C947E000C947E000C947E000C947E0068
:100020000C947E000C947E000C947E000C947E0058
:100030000C947E000C947E000C947E000C947E0048
:100040000C949F000C947E000C947E000C947E0017
:100050000C947E000C947E000C947E000C947E0028
:100060000C947E000C947E0005A84CCDB2D44EB901
:100070003836A9020C50B9918688083CA6AAAA2A4B
:10008000BE000000803F00000000250028002B007B
:1000900000000000240027002A00040404040404D3
:1000A0000404020202020202030303030303010227
:1000B00004081020408001020408102001020408F6
:1000C000102011241FBECFEFD8E0DEBFCDBF11E05E
:1000D000A0E0B1E0EEEBF7E002C005900D92A23097
:1000E000B107D9F721E0A2E0B1E001C01D92AF3025
:1000F000B207E1F70E94E9000C94DD030C940000C4
:1001000090E0FC01E255FF4F249186569F4FFC0181
:100110008491882399F090E0880F991FFC01E057A3
:10012000FF4FA591B491FC01EA57FF4F859194913F
:100130008FB7F894EC91E22BEC938FBF08951F9248
:100140000F920FB60F9211242F933F938F939F938B
:10015000AF93BF9380910B0190910C01A0910D0181
:10016000B0910E0130910A0123E0230F2D3758F58D
:100170000196A11DB11D20930A0180930B0190935C
:100180000C01A0930D01B0930E0180910601909196
:100190000701A0910801B09109010196A11DB11DAF
:1001A0008093060190930701A0930801B093090181
:1001B000BF91AF919F918F913F912F910F900FBE63
:1001C0000F901F90189526E8230F0296A11DB11DD0
:1001D000D2CF789484B5826084BD84B5816084BDBB
:1001E00085B5826085BD85B5816085BD80916E00D5
:1001F000816080936E001092810080918100826006
:100200008093810080918100816080938100809142
:1002100080008160809380008091B1008460809331
:10022000B1008091B00081608093B00080917A002D
:10023000846080937A0080917A00826080937A0053
:1002400080917A00816080937A0080917A00806842
:1002500080937A001092C10083E00E94800085E0C4
:100260000E94800089E00E94800083EA84BD81E0D2
:1002700085BD81E88093800089E08093810080E8DB
:1002800087BDCBE4D0E000E010E0EE24EA94FE2C41
:10029000CC24C394D12C809104019091050188BD98
:1002A000809100019091010120910401309105019C
:1002B000820F931F909305018093040180910401A4
:1002C000909105018F3F910524F0F0920101E09299
:1002D000000180910401909105011816190624F07F
:1002E000D0920101C092000160910201709103015E
:1002F000072E000C880B990B0E94540229E33AEF59
:100300004EE85CE30E94E0020E944D0320E030E0F2
:100310004EEF52E40E94E00220E030E04EEF52E463
:100320000E94B7010E9423027093890060938800A5
:1003300080910201909103010196909303018093B3
:10034000020180910201909103018836914024F0CE
:100350001092030110920201CE010197F1F70115ED
:10036000110509F498CF0E94000095CF5058BB2783
:10037000AA270E94CE010C94A6020E94980238F08F
:100380000E949F0220F039F49F3F19F426F40C9448
:1003900095020EF4E095E7FB0C948F02E92F0E9482
:1003A000B70258F3BA17620773078407950720F05E
:1003B00079F4A6F50C94D9020EF4E0950B2EBA2F21
:1003C000A02D0B01B90190010C01CA01A00111245B
:1003D000FF27591B99F0593F50F4503E68F11A1607
:1003E000F040A22F232F342F4427585FF3CF469598
:1003F00037952795A795F0405395C9F77EF41F16BA
:10040000BA0B620B730B840BBAF09150A1F0FF0F83
:10041000BB1F661F771F881FC2F70EC0BA0F621F6F
:10042000731F841F48F4879577956795B795F7955F
:100430009E3F08F0B0CF9395880F08F09927EE0FF4
:100440009795879508950E94BF0288F09F5798F06E
:10045000B92F9927B751B0F0E1F0660F771F881FC9
:10046000991F1AF0BA95C9F714C0B13091F00E94E3
:10047000D902B1E008950C94D902672F782F88270C
:10048000B85F39F0B93FCCF3869577956795B3950A
:10049000D9F73EF490958095709561957F4F8F4F79
:1004A0009F4F0895E89409C097FB3EF4909580957E
:1004B000709561957F4F8F4F9F4F9923A9F0F92F2A
:1004C00096E9BB279395F695879577956795B795A8
:1004D000F111F8CFFAF4BB0F11F460FF1BC06F5F8E
:1004E0007F4F8F4F9F4F16C0882311F096E911C0A0
:1004F000772321F09EE8872F762F05C0662371F0C1
:1005000096E8862F70E060E02AF09A95660F771FD4
:10051000881FDAF7880F9695879597F9089597F9C8
:100520009F6780E870E060E008959FEF80EC089599
:1005300000240A94161617061806090608950024C2
:100540000A9412161306140605060895092E03943C
:10055000000C11F4882352F0BB0F40F4BF2B11F4B0
:1005600060FF04C06F5F7F4F8F4F9F4F089557FD0F
:100570009058440F551F59F05F3F71F04795880F11
:1005800097FB991F61F09F3F79F0879508951216A8
:1005900013061406551FF2CF4695F1DF08C0161654
:1005A00017061806991FF1CF869571056105089405
:1005B0000895E894BB2766277727CB0197F908951C
:1005C0000E94F3020C94A6020E94980238F00E9446
:1005D0009F0220F0952311F00C948F020C94950249
:1005E00011240C94DA020E94B70270F3959FC1F3B4
:1005F000950F50E0551F629FF001729FBB27F00DD1
:10060000B11D639FAA27F00DB11DAA1F649F662725
:10061000B00DA11D661F829F2227B00DA11D621F74
:10062000739FB00DA11D621F839FA00D611D221F2E
:10063000749F3327A00D611D231F849F600D211D12
:10064000822F762F6A2F11249F5750409AF0F1F095
:1006500088234AF0EE0FFF1FBB1F661F771F881FFE
:1006600091505040A9F79E3F510580F00C948F02A5
:100670000C94DA025F3FE4F3983ED4F386957795C5
:100680006795B795F795E7959F5FC1F7FE2B880FA4
:10069000911D9695879597F908959F930E9457030A
:1006A0000F9007FCEE5F0C9480030C9495020E945F
:1006B000BF02D8F3E894E0E0BB279F57F0F02AEDA3
:1006C0003FE049EC06C0EE0FBB0F661F771F881F87
:1006D00028F0B23A62077307840728F0B25A620B17
:1006E000730B840BE3959A9572F7803830F49A95E2
:1006F000BB0F661F771F881FD2F790480C94960394
:10070000EF93E0FF07C0A2EA2AED3FE049EC5FEB80
:100710000E94CE010E94A6020F90039401FC905803
:10072000E8E6F0E00C94A2039F3F31F0915020F4F2
:10073000879577956795B795880F911D96958795BD
:1007400097F908959F938F937F936F93FF93EF9300
:100750009B01AC010E94E002EF91FF910E94B60361
:100760002F913F914F915F910C94E002DF93CF93D3
:100770001F930F93FF92EF92DF927B018C0168949D
:1007800006C0DA2EEF010E94F302FE01E894A59163
:100790002591359145915591A6F3EF010E94CE0127
:1007A000FE019701A801DA9469F7DF90EF90FF90BE
:1007B0000F911F91CF91DF910895F894FFCF010021
:107E0000112484B714BE81FFF0D085E080938100F7
:107E100082E08093C00088E18093C10086E0809377
:107E2000C20080E18093C4008EE0C9D0259A86E02C
:107E300020E33CEF91E0309385002093840096BBD3
:107E4000B09BFECF1D9AA8958150A9F7CC24DD24C4
:107E500088248394B5E0AB2EA1E19A2EF3E0BF2EE7
:107E6000A2D0813461F49FD0082FAFD0023811F036
:107E7000013811F484E001C083E08DD089C08234E0
:107E800011F484E103C0853419F485E0A6D080C0E4
:107E9000853579F488D0E82EFF2485D0082F10E0AE
:107EA000102F00270E291F29000F111F8ED06801E7
:107EB0006FC0863521F484E090D080E0DECF843638
:107EC00009F040C070D06FD0082F6DD080E0C81688
:107ED00080E7D80618F4F601B7BEE895C0E0D1E017
:107EE00062D089930C17E1F7F0E0CF16F0E7DF06D8
:107EF00018F0F601B7BEE89568D007B600FCFDCFD4
:107F0000A601A0E0B1E02C9130E011968C91119780
:107F100090E0982F8827822B932B1296FA010C0160
:107F200087BEE89511244E5F5F4FF1E0A038BF0790
:107F300051F7F601A7BEE89507B600FCFDCF97BE46
:107F4000E89526C08437B1F42ED02DD0F82E2BD052
:107F50003CD0F601EF2C8F010F5F1F4F84911BD097
:107F6000EA94F801C1F70894C11CD11CFA94CF0C13
:107F7000D11C0EC0853739F428D08EE10CD085E9AC
:107F80000AD08FE07ACF813511F488E018D01DD067
:107F900080E101D065CF982F8091C00085FFFCCF94
:107FA0009093C60008958091C00087FFFCCF809118
:107FB000C00084FD01C0A8958091C6000895E0E648
:107FC000F0E098E1908380830895EDDF803219F02E
:107FD00088E0F5DFFFCF84E1DECF1F93182FE3DFCA
:107FE0001150E9F7F2DF1F91089580E0E8DFEE27F6
:047FF000FF270994CA
:027FFE00040479
:00000001FF
