:100000000C9461000C947E000C947E000C947E0095
:100010000C947E000C947E000C947E000C947E0068
:100020000C947E000C947E000C947E000C947E0058
:100030000C947E000C947E000C947E000C947E0048
:100040000C949F000C947E000C947E000C947E0017
:100050000C947E000C947E000C947E000C947E0028
:100060000C947E000C947E0005A84CCDB2D44EB901
:100070003836A9020C50B9918688083CA6AAAA2A4B
:10008000BE000000803F00000000250028002B007B
:1000900000000000240027002A00040404040404D3
:1000A0000404020202020202030303030303010227
:1000B00004081020408001020408102001020408F6
:1000C000102011241FBECFEFD8E0DEBFCDBF11E05E
:1000D000A0E0B1E0E4EDF7E002C005900D92A2309F
:1000E000B107D9F721E0A2E0B1E001C01D92A13132
:1000F000B207E1F70E94E9000C94E8030C940000B9
:1001000090E0FC01E255FF4F249186569F4FFC0181
:100110008491882399F090E0880F991FFC01E057A3
:10012000FF4FA591B491FC01EA57FF4F859194913F
:100130008FB7F894EC91E22BEC938FBF08951F9248
:100140000F920FB60F9211242F933F938F939F938B
:10015000AF93BF9380910D0190910E01A0910F017B
:10016000B091100130910C0123E0230F2D3758F589
:100170000196A11DB11D20930C0180930D01909358
:100180000E01A0930F01B09310018091080190918E
:100190000901A0910A01B0910B010196A11DB11DA9
:1001A0008093080190930901A0930A01B0930B0179
:1001B000BF91AF919F918F913F912F910F900FBE63
:1001C0000F901F90189526E8230F0296A11DB11DD0
:1001D000D2CF789484B5826084BD84B5816084BDBB
:1001E00085B5826085BD85B5816085BD80916E00D5
:1001F000816080936E001092810080918100826006
:100200008093810080918100816080938100809142
:1002100080008160809380008091B1008460809331
:10022000B1008091B00081608093B00080917A002D
:10023000846080937A0080917A00826080937A0053
:1002400080917A00816080937A0080917A00806842
:1002500080937A001092C10086E00E94800085E0C1
:100260000E94800089E00E94800083EA84BD81E0D2
:1002700085BD81E88093800089E080938100CBE494
:10028000D0E000E010E0EE24E394F12CCC24CA94FA
:10029000DC2C8091060187BD8091060190910701B9
:1002A00001968F3F910511F00CF058C09093070113
:1002B000809306018091040188BD80910401909192
:1002C00005012091000130910101820F931F90934D
:1002D0000501809304018F3F91050CF444C0D09236
:1002E0000101C09200016091020170910301072E8B
:1002F000000C880B990B0E945F0229E33AEF4EE84D
:100300005CE30E94EB020E94580320E030E04EEFD5
:1003100052E40E94EB0220E030E04EEF52E40E94F3
:10032000C2010E942E027093890060938800809120
:100330000201909103010196883621E09207E4F4CE
:100340009093030180930201CE010197F1F701150B
:10035000110509F49ECF0E9400009BCF1092070167
:1003600010920601A7CF181619060CF4BCCFF09214
:100370000101E0920001B7CF109203011092020137
:10038000E3CF5058BB27AA270E94D9010C94B10291
:100390000E94A30238F00E94AA0220F039F49F3F85
:1003A00019F426F40C94A0020EF4E095E7FB0C94EB
:1003B0009A02E92F0E94C20258F3BA176207730724
:1003C0008407950720F079F4A6F50C94E4020EF466
:1003D000E0950B2EBA2FA02D0B01B90190010C0155
:1003E000CA01A0011124FF27591B99F0593F50F46D
:1003F000503E68F11A16F040A22F232F342F4427C5
:10040000585FF3CF469537952795A795F0405395BC
:10041000C9F77EF41F16BA0B620B730B840BBAF08C
:100420009150A1F0FF0FBB1F661F771F881FC2F7F7
:100430000EC0BA0F621F731F841F48F4879577950B
:100440006795B795F7959E3F08F0B0CF9395880FC5
:1004500008F09927EE0F9795879508950E94CA0294
:1004600088F09F5798F0B92F9927B751B0F0E1F075
:10047000660F771F881F991F1AF0BA95C9F714C025
:10048000B13091F00E94E402B1E008950C94E402CE
:10049000672F782F8827B85F39F0B93FCCF386955E
:1004A00077956795B395D9F73EF4909580957095BB
:1004B00061957F4F8F4F9F4F0895E89409C097FB38
:1004C0003EF490958095709561957F4F8F4F9F4F2B
:1004D0009923A9F0F92F96E9BB279395F69587956F
:1004E00077956795B795F111F8CFFAF4BB0F11F432
:1004F00060FF1BC06F5F7F4F8F4F9F4F16C08823D9
:1005000011F096E911C0772321F09EE8872F762F0E
:1005100005C0662371F096E8862F70E060E02AF04F
:100520009A95660F771F881FDAF7880F969587953B
:1005300097F9089597F99F6780E870E060E0089563
:100540009FEF80EC089500240A94161617061806EB
:100550000906089500240A941216130614060506C7
:100560000895092E0394000C11F4882352F0BB0F58
:1005700040F4BF2B11F460FF04C06F5F7F4F8F4FBB
:100580009F4F089557FD9058440F551F59F05F3FF6
:1005900071F04795880F97FB991F61F09F3F79F0A5
:1005A00087950895121613061406551FF2CF469527
:1005B000F1DF08C0161617061806991FF1CF8695A9
:1005C0007105610508940895E894BB27662777278D
:1005D000CB0197F908950E94FE020C94B1020E948B
:1005E000A30238F00E94AA0220F0952311F00C9487
:1005F0009A020C94A00211240C94E5020E94C202FB
:1006000070F3959FC1F3950F50E0551F629FF00165
:10061000729FBB27F00DB11D639FAA27F00DB11D7E
:10062000AA1F649F6627B00DA11D661F829F222707
:10063000B00DA11D621F739FB00DA11D621F839F8E
:10064000A00D611D221F749F3327A00D611D231F64
:10065000849F600D211D822F762F6A2F11249F57B2
:1006600050409AF0F1F088234AF0EE0FFF1FBB1FB5
:10067000661F771F881F91505040A9F79E3F510574
:1006800080F00C949A020C94E5025F3FE4F3983EEC
:10069000D4F3869577956795B795F795E7959F5F1E
:1006A000C1F7FE2B880F911D9695879597F90895B0
:1006B0009F930E9462030F9007FCEE5F0C948B03E4
:1006C0000C94A0020E94CA02D8F3E894E0E0BB2791
:1006D0009F57F0F02AED3FE049EC06C0EE0FBB0F4C
:1006E000661F771F881F28F0B23A620773078407D6
:1006F00028F0B25A620B730B840BE3959A9572F74C
:10070000803830F49A95BB0F661F771F881FD2F789
:1007100090480C94A103EF93E0FF07C0A2EA2AEDF2
:100720003FE049EC5FEB0E94D9010E94B1020F90BB
:10073000039401FC9058E8E6F0E00C94AD039F3F71
:1007400031F0915020F4879577956795B795880F8C
:10075000911D9695879597F908959F938F937F9311
:100760006F93FF93EF939B01AC010E94EB02EF911B
:10077000FF910E94C1032F913F914F915F910C9483
:10078000EB02DF93CF931F930F93FF92EF92DF92D1
:100790007B018C01689406C0DA2EEF010E94FE02F4
:1007A000FE01E894A5912591359145915591A6F3C7
:1007B000EF010E94D901FE019701A801DA9469F7BF
:1007C000DF90EF90FF900F911F91CF91DF910895EF
:0407D000F894FFCFCB
:0207D400010022
:00000001FF
