:100000000C9432030C945A030C945A030C945A0324
:100010000C945A030C945A030C945A030C945A03EC
:100020000C945A030C945A030C945A030C945A03DC
:100030000C945A030C945A030C945A030C945A03CC
:100040000C94D40F0C945A030C9444100C941E106E
:100050000C945A030C945A030C945A030C945A03AC
:100060000C9476100C945A0305A84CCDB2D44EB91A
:100070003836A9020C50B9918688083CA6AAAA2A4B
:10008000BE000000803F4F75743A204435004F7524
:10009000743A2044362D44313320444143005065A6
:1000A00072696F643A20316D7300537465703A2041
:1000B0003800537465703A20302E3220726164002B
:1000C000447574793A2035302500416D703A2031FD
:1000D00032372044414300506F743A200057617614
:1000E00065666F726D3A2050574D005761766566B0
:1000F0006F726D3A205452490057617665666F728F
:100100006D3A2053494E450000000000003E5B4F11
:100110005B3E3E6B4F6B3E1C3E7C3E1C183C7E3C67
:10012000181C577D571C1C5E7F5E1C00183C180075
:10013000FFE7C3E7FF0018241800FFE7DBE7FF3005
:10014000483A060E2629792926407F050507407F73
:1001500005253F5A3CE73C5A7F3E1C1C08081C1CE6
:100160003E7F14227F22145F5F005F5F06097F01DC
:100170007F006689956A606060606094A2FFA294C7
:1001800008047E040810207E201008082A1C080895
:100190001C2A08081E101010100C1E0C1E0C3038E3
:1001A0003E3830060E3E0E06000000000000005FE4
:1001B00000000007000700147F147F14242A7F2A00
:1001C00012231308646236495620500008070300C2
:1001D000001C2241000041221C002A1C7F1C2A080E
:1001E000083E080800807030000808080808000071
:1001F00060600020100804023E5149453E00427FE5
:10020000400072494949462141494D331814127F33
:100210001027454545393C4A4949314121110907D3
:100220003649494936464949291E00001400000054
:100230004034000000081422411414141414004126
:1002400022140802015909063E415D594E7C1211E3
:10025000127C7F494949363E414141227F4141411B
:100260003E7F494949417F090909013E4141517396
:100270007F0808087F00417F41002040413F017F07
:10028000081422417F404040407F021C027F7F04CF
:1002900008107F3E4141413E7F090909063E415118
:1002A000215E7F09192946264949493203017F0108
:1002B000033F4040403F1F2040201F3F4038403F09
:1002C000631408146303047804036159494D43001F
:1002D0007F4141410204081020004141417F040256
:1002E00001020440404040400003070800205454ED
:1002F00078407F28444438384444442838444428CB
:100300007F385454541800087E090218A4A49C781D
:100310007F0804047800447D40002040403D007F79
:100320001028440000417F40007C047804787C0859
:100330000404783844444438FC182424181824242D
:1003400018FC7C08040408485454542404043F4412
:10035000243C4040207C1C2040201C3C4030403C41
:1003600044281028444C9090907C4464544C4400A1
:100370000836410000007700000041360800020105
:100380000204023C2623263C1EA1A161123A4040F1
:10039000207A38545455592155557941225454786E
:1003A00042215554784020545579400C1E52721207
:1003B0003955555559395454545939555454580090
:1003C00000457C410002457D420001457C407D1294
:1003D00011127DF0282528F07C54554500205454F6
:1003E0007C547C0A097F4932494949323A444444A1
:1003F0003A324A4848303A4141217A3A42402078DC
:10040000009DA0A07D3D4242423D3D4040403D3CDC
:1004100024FF2424487E4943662B2FFC2F2BFF0901
:1004200029F620C0887E09032054547941000044F5
:100430007D413048484A32384040227A007A0A0AE0
:10044000727D0D19317D2629292F28262929292653
:1004500030484D4020380808080808080808382F98
:1004600010C8ACBA2F102834FA00007B0000081422
:100470002A142222142A14085500550055AA55AAF8
:1004800055AAFF55FF55FF000000FF00101010FF98
:1004900000141414FF001010FF00FF1010F010F0F3
:1004A000141414FC001414F700FF0000FF00FF14E4
:1004B00014F404FC141417101F10101F101F141430
:1004C000141F00101010F0000000001F101010107A
:1004D0001F10101010F010000000FF10101010106E
:1004E00010101010FF10000000FF140000FF00FFAC
:1004F00000001F10170000FC04F414141710171448
:1005000014F404F40000FF00F71414141414141469
:10051000F700F7141414171410101F101F141414DC
:10052000F4141010F010F000001F101F0000001F46
:1005300014000000FC140000F010F01010FF10FF79
:10054000141414FF141010101F00000000F010FF0E
:10055000FFFFFFFFF0F0F0F0F0FFFFFF00000000F2
:1005600000FFFF0F0F0F0F0F3844443844FC4A4A76
:100570004A347E02020606027E027E02635549412B
:10058000633844443C04407E201E2006027E020262
:1005900099A5E7A5991C2A492A1C4C7201724C3076
:1005A0004A4D4D303048784830BC625A463D3E494D
:1005B0004949007E0101017E2A2A2A2A2A44445FF1
:1005C000444440514A444040444A51400000FF01E5
:1005D00003E080FF000008086B6B083612362436F3
:1005E000060F090F06000018180000001010003058
:1005F00040FF0101001F01011E00191D1712003CE0
:100600003C3C3C00000000000000000024002700EB
:100610002A00000000080002010000030407000097
:100620000000000000000000000023002600290058
:100630000102040810204080010204081020010279
:100640000408102000000000250028002B000404EE
:10065000040404040404020202020202030303036A
:100660000303911111241FBECFEFD8E0DEBFCDBF31
:1006700013E0A0E0B1E0E2EBF1E302C005900D92DF
:10068000A035B107D9F724E0A0E5B3E001C01D9281
:10069000A63AB207E1F713E0C2E3D3E004C0219722
:1006A000FE010E94A717C133D107C9F70E945C124F
:1006B0000C94D7180C940000FC0120812EBD0DB4C1
:1006C00007FEFDCF2EB5FC0120830895833081F015
:1006D00028F4813099F08230A9F008958730A9F08C
:1006E0008830C9F08430B1F4809180008F7D03C0E0
:1006F000809180008F7780938000089584B58F77F4
:1007000084BD089584B58F7DFBCF8091B0008F7735
:100710008093B00008958091B0008F7DF9CFCF9382
:10072000DF93282F30E0F901EE5EF94F8491F90153
:10073000E05DF94FD491F901E25BF94FC491CC230C
:10074000A1F081110E946603EC2FF0E0EE0FFF1F75
:10075000EA5DF94FA591B491EC91ED2381E090E031
:1007600009F480E0DF91CF91089580E090E0FACF26
:100770001F93CF93DF93282F30E0F901EE5EF94FFE
:100780008491F901E05DF94FD491F901E25BF94FF1
:10079000C491CC23A9F0162F81110E946603EC2F7F
:1007A000F0E0EE0FFF1FEC5BF94FA591B4918FB70E
:1007B000F894EC91111108C0D095DE23DC938FBF23
:1007C000DF91CF911F910895DE2BF8CFCF93DF9368
:1007D00090E0FC01E05DF94F2491825B994FFC01B0
:1007E00084918823C9F090E0880F991FFC01E85F8D
:1007F000F94FA591B491FC01EC5BF94FC591D491EF
:1008000061110DC09FB7F8948C91209582238C9331
:100810008881282328839FBFDF91CF91089562307C
:1008200051F49FB7F8943C91822F809583238C9349
:10083000E8812E2BEFCF8FB7F894EC912E2B2C93D1
:100840008FBFEACF8230910538F0880F991F880F4B
:10085000991F05970197F1F708959F92AF92BF9264
:10086000CF92DF92EF92FF920F931F93CF93DF937C
:10087000EC015B018885998511E0892B09F010E86E
:10088000F501E0808E2D8123992493948111912C80
:100890002C813D814E815F8160E271EA87E090E0CA
:1008A0000E942D15022FF12CC22ED12C002319F0FD
:1008B000C6010E9422048A85982F977F09F04FC0B5
:1008C0008D858F3F89F09E2D912381E009F480E092
:1008D000891551F0EF85F8898F899923D1F190819D
:1008E000892B808399249394E989FA898081998D51
:1008F000892B8083002319F0C6010E9422048E8573
:100900008F3F39F0EB89FC898081988D892309F02C
:10091000F12AE989FA899081898D809589238083DC
:1009200088859985892B09F073C0110F1111BECFED
:100930008E858F3F11F0F501F082DF91CF911F91ED
:100940000F91FF90EF90DF90CF90BF90AF909F906E
:1009500008959081809589238083912CC5CF8C3018
:10096000A1F58D858F3F49F0EF85F8898F899E2D00
:10097000912339F19081892B8083E989FA899081CB
:10098000898D809589238083002319F0C6010E94F8
:100990002204E989FA898081998D892B808300233B
:1009A00019F0C6010E9422048E858F3F09F4B8CF4A
:1009B000EB89FC898081988D892309F4B1CFF12AD4
:1009C000AFCF908180958923D7CFE989FA8980813B
:1009D000998D892B8083002319F0C6010E9422047F
:1009E0008D858F3F49F0EF85F8898F899E2D912362
:1009F00059F09081892B8083E989FA899081898DCA
:100A0000809589238083D0CF908180958923F3CFEF
:100A100016958CCFAF92BF92CF92DF92EF92FF925A
:100A20000F931F93CF93DF931F92CDB7DEB78C0147
:100A30005B016A01DC018D919C911197892B39F042
:100A40001296ED91FC91908181819CBD8DBDF80144
:100A500083858F3F19F060E00E94B8037501CA0CCE
:100A6000DB1CCE14DF04A9F0D7018D917D018983B1
:100A7000F80180819181892B29F0CE0101960E9495
:100A80005C03EFCFBE016F5F7F4FC8010E942D0452
:100A9000E8CFD8011B968C918F3F19F061E00E943E
:100AA000B80381E00F90DF91CF911F910F91FF90DC
:100AB000EF90DF90CF90BF90AF9008953FB7F8943C
:100AC0008091DA039091DB03A091DC03B091DD0308
:100AD00026B5A89B05C02F3F19F00196A11DB11D99
:100AE0003FBFBA2FA92F982F8827BC01CD01620FD5
:100AF000711D811D911D42E0660F771F881F991F90
:100B00004A95D1F708958F929F92AF92BF92CF925C
:100B1000DF92EF92FF924B015C010E945E056B0138
:100B20007C010E945E056C197D098E099F09683E53
:100B3000734081059105A8F321E0821A9108A1086C
:100B4000B10888EEC80E83E0D81EE11CF11C8114A8
:100B50009104A104B10429F7FF90EF90DF90CF90AA
:100B6000BF90AF909F908F900895AF92BF92CF9219
:100B7000DF92EF92FF920F931F93CF93DF936C015D
:100B80007B018B01040F151FEB015E01AE18BF083E
:100B9000C017D10759F06991D601ED91FC910190F0
:100BA000F081E02DC6010995892B79F7C501DF9108
:100BB000CF911F910F91FF90EF90DF90CF90BF905A
:100BC000AF900895FC01538D448D252F30E0842F84
:100BD00090E0821B930B541710F0CF960895019765
:100BE0000895FC01918D828D981761F0A28DAE0F52
:100BF000BF2FB11D5D968C91928D9F5F9F73928FD9
:100C000090E008958FEF9FEF0895FC01918D828D04
:100C1000981731F0828DE80FF11D858D90E00895D1
:100C20008FEF9FEF0895FC01918D228D892F90E029
:100C3000805C9F4F821B91098F73992708958EEDD9
:100C400093E00E94130621E0892B09F420E0822F13
:100C5000089580E090E0892B29F00E941F06811101
:100C60000C9400000895FC01A48DA80FB92FB11DAC
:100C7000A35ABF4F2C91848D90E001968F739927D2
:100C8000848FA689B7892C93A089B1898C918370B0
:100C900080648C93938D848D981306C00288F389A9
:100CA000E02D80818F7D80830895EF92FF920F93D6
:100CB0001F93CF93DF93EC0181E0888F9B8D8C8D08
:100CC00098131AC0E889F989808185FF15C09FB7FC
:100CD000F894EE89FF896083E889F98980818370BF
:100CE000806480839FBF81E090E0DF91CF911F916E
:100CF0000F91FF90EF900895F62E0B8D10E00F5F8F
:100D00001F4F0F731127E02E8C8D8E110CC00FB664
:100D100007FCFACFE889F989808185FFF5CFCE01FC
:100D20000E943306F1CFEB8DEC0FFD2FF11DE35A3E
:100D3000FF4FF0829FB7F8940B8FEA89FB8980817F
:100D40008062CFCFCF93DF93EC01888D8823B9F0F9
:100D5000AA89BB89E889F9898C9185FD03C08081C6
:100D600086FD0DC00FB607FCF7CF8C9185FFF2CF43
:100D7000808185FFEDCFCE010E943306E9CFDF9160
:100D8000CF9108950F931F93CF93DF931F92CDB709
:100D9000DEB78C01698360E0FC01868D0E94B80398
:100DA00041E050E0BE016F5F7F4FF801838D948D6D
:100DB0000E940A050F90DF91CF911F910F91089526
:100DC000CF93C82F87FDCFE7C0939A0461E28BE7EA
:100DD00094E00E94C2066C2F60688BE794E00E944A
:100DE000C20660E28BE794E0CF910C94C206CF93E9
:100DF0008091980487FD13C061E00E94E60360E0E3
:100E0000809198040E94B80361E070E080E090E077
:100E10000E94830561E0809198040E94B803C0910C
:100E20009B04C83008F0C7E0C0939B0461E28BE7E5
:100E300094E00E94C2066C2F60618BE794E00E94F0
:100E4000C20660E28BE794E00E94C20680919A0499
:100E50000E94E00660E28BE794E00E94C2066CE02C
:100E60008BE794E0CF910C94C206FF920F931F93EF
:100E7000CF93DF9390919C04992339F080919D0446
:100E80008F5F8917E8F580939D04D091A004D695D3
:100E9000D695D69584E5D89F800111248091A10430
:100EA0008695869586958D1780F16D2F60648BE70A
:100EB00094E00E94C206C0919E04F0909F046C2FA3
:100EC00060688BE794E00E94C20661E0809199041B
:100ED0000E94B8034F2D50E06C2F70E0461B570B5B
:100EE0004F5F5F4F600F711F6D5F7E4F8091960463
:100EF000909197040E940A05DF5F0C5A1F4FCECFD6
:100F000010929D040E94F706C0CF60E48BE794E046
:100F10000E94C20683E580939E0410929F048FE294
:100F20008093A0041092A104DF91CF911F910F91A3
:100F3000FF9008951F93CF93DF93EC01162F60E28B
:100F40000E94C2066CE011116DE0CE01DF91CF91DD
:100F50001F910C94C206FC0177FD55C080859185D8
:100F6000681779070CF04FC057FD4DC082859385F7
:100F7000481759070CF047C08689823009F444C0ED
:100F8000833009F44EC0813031F48FE290E0861B4B
:100F9000970BBA01AC01842FA62F93A1691708F40F
:100FA000962F93A394A19A1708F49A2F94A395A12E
:100FB000891708F4982F95A396A1981708F4982FED
:100FC00096A3CA0157FD0796E3E095958795EA95A4
:100FD000E1F7A4E5A89FF001A99FF00D1124E60F09
:100FE000F71FED5FFE4FCA0168E070E00E947817BE
:100FF00041E050E001C0440F8A95EAF78081232B3D
:10100000B9F0842B8083089583E590E0DC01A61B72
:10101000B70BBD018FE290E0DC01A41BB50BAD0165
:10102000BACF83E590E0841B950BAB01BC01B3CF35
:1010300040958423E7CF20917703260F3327331F72
:1010400021323105ECF420919B03FC0190E080E01B
:10105000243069F082E00895A09177032191AC01DA
:10106000495A5C4FA40FB52FB11D2C9301968617DA
:1010700098F380917703680F6093770380E0089579
:1010800081E0089508958FEF9FEF08958FEF9FEF10
:1010900008958091500390E091958195910908956C
:1010A000CF93DF93CB01EA01642F0E941B08CE018E
:1010B000DF91CF910895CF93DF931F92CDB7DEB725
:1010C000698361E0CE0101960E941B0881E090E0F7
:1010D0000F90DF91CF9108950895FC016370668BA6
:1010E0008481958126813781613039F0633029F020
:1010F0009187808733872287089531872087938758
:10110000828708952F923F924F925F926F927F92C3
:101110008F929F92AF92BF92CF92DF92EF92FF9207
:101120000F931F93CF93DF93CDB7DEB76A970FB6B8
:10113000F894DEBF0FBECDBF9A8F898F7A83698303
:101140004A01D22E18870F833701BC2CDC01599637
:101150002D913C915A972115310509F015C118962A
:101160008D919C911997681779070CF0D7C11A9641
:101170008D919C91481759070CF0D0C14C2C512CE3
:10118000B6E0CB9E600D711D11247C876B8716160F
:1011900017060CF0C3C1EA2DF0E0FA87E98793E067
:1011A000EE0FFF1F9A95E1F7F88BEF87CF01840FC1
:1011B000951F181619060CF0B1C1A98DBA8D589655
:1011C0008C91811104C0BFEABD1508F4D394A98D98
:1011D000BA8DED91FC9111970284F385E02DCD013C
:1011E0000995B5E0DB9EC0011124E981FA81FC83F9
:1011F000EB83312C212C9C01285F3E4F388F2F8BA5
:101200004A2D50E05E8B4D8BEF89F88DE20DF31D7A
:1012100044919E828D82D12CC12C69817A81620D8C
:10122000731D7A8B698B842F90E09C8B8B8BE98D5F
:10123000FA8DA081B18140FF82C0F1E0BF126FC082
:10124000AF126DC01C96ED91FC912F813885A401E1
:101250004C0D5D1D69897A89898D9A8D0995EB8977
:10126000FC89F595E7954E2F5FEFC51AD50A6D817C
:101270007E818D899E89680F791F7E836D8398E0BA
:10128000C916D10481F6AFEF2A1A3A0AEB81FC8124
:10129000E40DF51DFC83EB83F5E02F16310409F016
:1012A000B3CF2F81388526153705B9F0A98DBA8DB2
:1012B000ED91FC91B1E0BB1257C0AB1255C06981F2
:1012C0007A816B5F7F4F0088F189E02D830128E0F0
:1012D00030E0A401898D9A8D0995A98DBA8DED9183
:1012E000FC9111970688F789E02DCD016A960FB61B
:1012F000F894DEBF0FBECDBFDF91CF911F910F914C
:10130000FF90EF90DF90CF90BF90AF909F908F9025
:101310007F906F905F904F903F902F9009941E9612
:10132000ED91FC91EF80F88409851A8592014D8139
:101330005E816B817C81898D9A8D099590CF2F81FB
:1013400038852615370509F48ACF31E0B31207C076
:10135000A31205C01C96ED91FC91930178CF1E96C7
:10136000ED91FC917301E0CF6B857C856419750963
:101370000684F785E02D73010F8518899201A40179
:10138000898D9A8D0995A9CFF90134969491329758
:1013900045915491D91AB7E0DB9E400D511D11249F
:1013A000F901259134913C8B2B8BFA0125903490D7
:1013B000FA013296749031963491398B329664905A
:1013C0003196449041E04C1518F04A1508F07FC062
:1013D000662D062C000C770B7C836B83842D042CEC
:1013E000000C990B9E838D83A98DBA8DED91FC9194
:1013F00011970284F385E02DCD010995512CD12C54
:10140000C12CEA2DF0E0FA87E9872B2D30E03C87EC
:101410002B87A401440D511D47FC5A95588F4F8BC3
:1014200069817A81660D711D67FC7A957E876D876B
:101430007989C71608F051CF2C2D30E04D815E819F
:10144000420F531FA985BA854A9FC0014B9F900D3B
:101450005A9F900D1124FC01E80DF91DF88BEF87C0
:10146000852D612C4F89588D420F531F5E8B4D8BFC
:10147000671408F050C044244394480E877041F428
:10148000C1010196EB89FC89E20DF31DD4901C018A
:10149000D7FE19C0A98DBA8DED91FC91662D70E033
:1014A000B1E0BB1219C0AB1217C02D853E85620F8B
:1014B000731F0484F585E02D2F8138854D895E8961
:1014C000898D9A8D0995DD0C6394842DD1CF1E8270
:1014D0001D821C821B8288CF4B815C81640F751F2B
:1014E000AB85BC856A9FC0016B9F900D7A9F900D64
:1014F000112469817A81680F791F0684F785E02DB0
:10150000EF80F88409851A859D014F855889898D5A
:101510009A8D0995D8CF570CC3948ACF6A960FB687
:10152000F894DEBF0FBECDBFDF91CF911F910F9119
:10153000FF90EF90DF90CF90BF90AF909F908F90F3
:101540007F906F905F904F903F902F9008958F9273
:101550009F92AF92CF92EF92FF920F931F93CF93F0
:10156000DF93EC01262F898D9A8D009709F051C0E9
:101570006A30D1F41D861C868D8948E0849F9001D5
:1015800011248E859F85820F931F9F878E8781E010
:1015900090E0DF91CF911F910F91FF90EF90CF904E
:1015A000AF909F908F9008956D3089F3CC88AD886F
:1015B0008F898823C1F08C859D8536E0C39E800D80
:1015C000911D1124488559854817590764F44E85A3
:1015D0005F851D861C8638E0A39EC0011124840F00
:1015E000951F9F878E87EA88FB88088919894E8511
:1015F0005F856C857D85CE010E9482082C898C8553
:101600009D8546E0249F800D911D11249D878C8728
:10161000BECF6A3069F41D861C86FC013896E491C1
:101620002D898E859F85E29F800D911D1124ADCF60
:101630006D3009F4ACCFFC0134963491631708F493
:10164000A6CF3296E491E61708F4A1CFFC013296BA
:1016500085909490462F431B342F47E0349F800C95
:10166000911C1124F401329634913196E491332384
:10167000A9F1EE2399F1CC88F4013596E491AD8877
:101680004F89442301F10E2E000CFF0BE30FF11DD7
:10169000CE9EA001CF9E500D11246C857D85460FF6
:1016A000571F68857985641775076CF44E855F85CB
:1016B0001D861C86FC013896E491AE9E400D511D9E
:1016C00011245F874E87EA88FB88088919894E852F
:1016D0005F856C857D85CE010E948208F401349679
:1016E000E4912C898C859D85E29F800D911D1124AC
:1016F0008DCF0F931F93CF93DF938C01D0E0C0E089
:10170000F801EC0FFD1F6491662341F08BE794E034
:101710000E94A70A892B11F02196F2CFCE01DF910A
:10172000CF911F910F9108956F927F928F929F9208
:10173000AF92BF92CF92DF92EF92FF920F931F93DF
:10174000CF93DF93EC016B015A0139014801E88125
:10175000F9810284F385E02D0995E881F9810288F9
:10176000F389E02D87019301A501B601CE0109950A
:10177000A501480D591D41505109E881F9810288A0
:10178000F389E02D9301B601CE010995E881F98135
:101790000088F189E02D9401A501B601CE010995DB
:1017A000C60CD71CB60161507109E881F981008827
:1017B000F189E02D9401A501CE010995E881F98117
:1017C0000688F789E02DCE01DF91CF911F910F910F
:1017D000FF90EF90DF90CF90BF90AF909F908F9051
:1017E0007F906F9009946F927F928F929F92AF92A9
:1017F000BF92CF92DF92EF92FF920F931F93CF93FE
:10180000DF935C01EB016A01490138018701DC01CA
:10181000ED91FC916217730719F5641675062CF0AB
:10182000962D872D3A01C92ED82E960126193709F3
:101830002F5F3F4F048CF58DE02DA301BE01C50144
:101840000995DF91CF911F910F91FF90EF90DF905D
:10185000CF90BF90AF909F908F907F906F900895A2
:101860004615570591F42617370724F0892D4B01AB
:10187000C22FD82F9E01281939092F5F3F4F068CA0
:10188000F78DE02DA601B401DACF0284F385E02DB7
:101890000995D501ED91FC910488F589E02D83012E
:1018A0009401A601BE01C5010995D501ED91FC91F8
:1018B0000688F789E02DC501DF91CF911F910F9127
:1018C000FF90EF90DF90CF90BF90AF909F908F9060
:1018D0007F906F900994EF92FF920F931F93DC011A
:1018E0001A960D911C911B9718962D913C91199762
:1018F000ED91FC9100A0F1A1E02D7B0150E040E0D2
:1019000070E060E009951F910F91FF90EF900895AE
:101910004F925F926F927F928F929F92AF92BF92FF
:10192000CF92DF92EF92FF920F931F93CF93DF93AB
:101930006C012B015A0139014801DC01ED91FC9148
:101940000284F385E02D0995E201640C751CD60133
:10195000ED91FC91C615D7055CF40088F189E02D66
:1019600087019401A501BE01C60109952196EFCF1B
:101970000688F789E02DC601DF91CF911F910F9165
:10198000FF90EF90DF90CF90BF90AF909F908F909F
:101990007F906F905F904F9009948F929F92AF923B
:1019A000BF92CF92DF92EF92FF920F931F93CF934C
:1019B000DF93EC015B014A016901E881F98102844E
:1019C000F385E02D099595012C0D3D1D2150310920
:1019D000E881F9810488F589E02D78018401A4016A
:1019E000B501CE010995E881F9810688F789E02DD6
:1019F000CE01DF91CF911F910F91FF90EF90DF907B
:101A0000CF90BF90AF909F908F9009948F929F92AC
:101A1000AF92BF92CF92DF92EF92FF920F931F93FC
:101A2000CF93DF93EC015B014A0169017801E88102
:101A3000F9810284F385E02D0995C80CD91C860133
:101A400001501109E881F9810488F589E02D95019B
:101A5000A401B501CE010995E881F9810688F789CD
:101A6000E02DCE01DF91CF911F910F91FF90EF906C
:101A7000DF90CF90BF90AF909F908F900994EF929E
:101A8000FF920F931F93DC01ED91FC9100A0F1A157
:101A9000E02D09951F910F91FF90EF9008950F93FE
:101AA0001F93DC01ED91FC91068CF78DE02D0995DB
:101AB0001F910F9108950F931F93DC01ED91FC91FD
:101AC000048CF58DE02D09951F910F910895DC018F
:101AD000ED91FC910084F185E02D09942F923F92C5
:101AE0004F925F926F927F928F929F92AF92BF922E
:101AF000CF92DF92EF92FF920F931F93CF93DF93DA
:101B000000D000D000D0CDB7DEB73C016A013E83E3
:101B10002D83FC82EB825801A41AB50AB7FE03C0DC
:101B2000B194A194B1088D809E80861A970A97FE81
:101B300003C09194819491088A149B045CF0902FC7
:101B4000812F0D811E819D838E839C2D8D2D6B0198
:101B5000692F782F0C151D055CF09D818E817E8389
:101B60006D83692F782F902F812F8601C92ED82E53
:101B70001601201A310A2B012D813E81421A530A87
:101B800057FE03C0519441945108710137FE03C0C0
:101B90003FEFE31AF30AF594E7948D819E8186174F
:101BA00097075CF5A1E0B0E0BA83A983C016D1061F
:101BB0004CF1D301ED91FC910484F585E02D2B814E
:101BC0003C81A8016D817E818A149B041CF04D81AB
:101BD0005E81B801C3010995E418F508F7FE0AC053
:101BE0002D813E8189819A81280F391F3E832D8363
:101BF000E20CF31C0F5F1F4FD9CF2FEF3FEF3A835B
:101C00002983D4CF26960FB6F894DEBF0FBECDBF82
:101C1000DF91CF911F910F91FF90EF90DF90CF90C8
:101C2000BF90AF909F908F907F906F905F904F90FC
:101C30003F902F900895089590E080E00895EF92EE
:101C4000FF920F931F93CF93DF937C0101E013E08A
:101C5000D0E0C0E0F80180810E5F1F4FB7010C2E6D
:101C600002C0759567950A94E2F761700E94B80307
:101C70002196C830D10571F7DF91CF911F910F9157
:101C8000FF90EF9008958F929F92AF92BF920F9323
:101C90001F93CF93DF93CDB7DEB7A1970FB6F8941C
:101CA000DEBF0FBECDBF19A2423008F44AE08E015C
:101CB0000F5D1F4F842E912CB12CA12CA5019401F6
:101CC0000E942D15E62FB901CA01EA3044F5E05D06
:101CD000D801EE938D01232B242B252B79F790E04F
:101CE00080E0109769F0FD0101900020E9F731973D
:101CF000AF014A1B5B0BBD018BE794E00E94B50569
:101D0000A1960FB6F894DEBF0FBECDBFDF91CF9185
:101D10001F910F91BF90AF909F908F900895E95CB5
:101D2000D7CFE3E0F1E088EF91E0DF019C011D9265
:101D300021503040E1F710929E0480919F0483353A
:101D400008F483E580939F041092A0048091A1047D
:101D50008F3208F48FE28093A104109288041092CD
:101D6000870410928A041092890408950E94D21860
:101D70001F93CF93DF9385ED8093BC008091530335
:101D800090915403A0915503B09156030796A11D5D
:101D9000B11D23E0B695A795979587952A95D1F71C
:101DA0002091BC0024FD03C010929B0352C04091BF
:101DB0005303509154036091550370915603452B82
:101DC000462B472B69F30097A105B10541F02AE2A4
:101DD0002A95F1F700C00197A109B109E1CF8091DF
:101DE0005203C1E0C0935103882399F1D091B80008
:101DF0001091BA008091BC008A7B8093BC0060E0A7
:101E000082E10E94B80360E083E10E94B80310926F
:101E10009B03C0939D0310929C0361E082E10E94AA
:101E2000B80361E083E10E94B8038091B9008E7F1E
:101E30008093B9008091B9008D7F8093B90088E4C8
:101E40008093B80085E48093BC001093BA00D093CF
:101E5000B800DF91CF911F910895CF92DF92EF925A
:101E6000FF92CF93C82F6B010E94910E81E0809367
:101E70008F048093900481E090E090938E0480938F
:101E80008D0490938C0480938B041092880410929C
:101E9000870410928A0410928904C33541F0C43536
:101EA00009F457C0C03539F48DED90E002C089EFD8
:101EB00090E00E94790B10928804109287048AE0C7
:101EC00090E090938A048093890487ED90E00E94CB
:101ED000790B0D2C000CEE08FF084AE0C701B60193
:101EE000F7FE0DC06DE28BE794E00E94A70A66271B
:101EF0007727CB016C197D098E099F094AE00E9462
:101F0000430E109288041092870484E190E090932D
:101F10008A0480938904C035F9F044F08DEA8C0F6F
:101F2000823020F48AEC90E00E94790B10928804B1
:101F3000109287048EE190E090938A048093890444
:101F4000C33569F0C43541F1C03569F48EE990E0DC
:101F500008C08BEE90E0ADCF80EC90E0E5CF82EB57
:101F600090E00E94790B109288041092870488E216
:101F700090E090938A0480938904C03581F02CF01E
:101F8000C3558EE890E0C23060F0CF91FF90EF90A3
:101F9000DF90CF900C9435078AEA90E0E2CF86E894
:101FA00090E00E94790BF1CF1F920F920FB60F9223
:101FB00011242F933F938F939F93AF93BF9380915F
:101FC000D6039091D703A091D803B091D903309153
:101FD000D50323E0230F2D3758F50196A11DB11D20
:101FE0002093D5038093D6039093D703A093D8036F
:101FF000B093D9038091DA039091DB03A091DC03C5
:10200000B091DD030196A11DB11D8093DA03909379
:10201000DB03A093DC03B093DD03BF91AF919F91ED
:102020008F913F912F910F900FBE0F901F90189599
:1020300026E8230F0296A11DB11DD2CF1F920F9249
:102040000FB60F9211242F933F934F935F936F938B
:102050007F938F939F93AF93BF93EF93FF938EEDF7
:1020600093E00E943306FF91EF91BF91AF919F9152
:102070008F917F916F915F914F913F912F910F9031
:102080000FBE0F901F9018951F920F920FB60F92D0
:1020900011242F938F939F93EF93FF93E091EE037F
:1020A000F091EF038081E091F403F091F50382FD5C
:1020B0001BC090818091F7038F5F8F732091F8038D
:1020C000821741F0E091F703F0E0E252FC4F958F68
:1020D0008093F703FF91EF919F918F912F910F9034
:1020E0000FBE0F901F9018958081F4CF1F920F9212
:1020F0000FB60F9211242F933F934F935F936F93DB
:102100007F938F939F93AF93BF93EF93FF938091B0
:10211000B900887F803609F44AC0F0F5883209F4A6
:10212000A5C018F5803109F499C0B8F4882309F4E2
:10213000F5C0883009F492C0FF91EF91BF91AF9143
:102140009F918F917F916F915F914F913F912F91CF
:102150000F900FBE0F901F901895883109F486C01C
:10216000803251F780939A0314C0803409F49BC0E5
:1021700040F48033B9F38833F9F680939A0385EC01
:10218000AEC0803509F483C0883509F494C0883422
:1021900099F60E94B80ED0CF883909F48AC038F574
:1021A000883729F050F4883611F0803729F683E01B
:1021B00080939B031092990355C0883809F479C025
:1021C000803919F0803809F0B7CF809199038032B7
:1021D00008F06FC0E091990381E08E0F809399031E
:1021E0008091BB00F0E0E758FC4F80833BC0803B10
:1021F00039F0D0F4803A09F477C0883A09F09CCFDE
:1022000084E080939B031092780310927703F0E0B0
:10221000E0E009958091770381110FC081E0809300
:1022200077031092570309C0803C09F4A8CF883C7B
:1022300009F4A5CF883B09F07FCFE091780381E0D6
:102240008E0F80937803F0E0E95AFC4F80818093F1
:10225000BB00909178038091770329C08091C003DF
:102260008093BB0085EC8093BC0066CF9091BF0348
:102270008091BE03981758F5E091BF0381E08E0F5F
:102280008093BF03F0E0E256FC4F8081E9CFE091FC
:10229000BF0381E08E0F8093BF038091BB00F0E00D
:1022A000E256FC4F80839091BF038091BE03981744
:1022B000C8F285E8D8CFE091BF0381E08E0F80930C
:1022C000BF038091BB00F0E0E256FC4F8083809119
:1022D0009D0381115ECF81E080939C0384EA80930B
:1022E000BC0010929B0328CF85EC8093BC00109219
:1022F0009B0380919903803230F4E0919903F0E0E0
:10230000E758FC4F10826091990370E089E793E0F1
:10231000F0E0E0E00995109299030ECF10929A0335
:1023200038CFCF93DF93EEEDF3E01382128288EE85
:1023300093E0A0E0B0E084839583A683B78385E132
:1023400093E09183808385EC90E09587848784EC8B
:1023500090E09787868780EC90E0918B808B81EC72
:1023600090E0938B828B82EC90E0958B848B86EC53
:1023700090E0978B868B118E128E138E148ECBE786
:10238000D4E01B821A8224E530E03D832C8380E375
:1023900090E09F838E83398728879B878A871E8A50
:1023A0001D861C861F861E8681E08D8B8C8B2FEFF1
:1023B0003FEF3B8B2A8B398B288B8F8B188E1A8E95
:1023C000198E87E293E0998388838CE190E00E94E4
:1023D000AD17DC0111961C921E9213961C921E9250
:1023E00012978FE01B968C931B9782E11C968C931F
:1023F0001C978FEF1E968C931E9781E11D968C93F0
:102400001D97EDE5F6E0E491F0E0EE0FFF1FEC5BC9
:10241000F94F8591949156969C938E935597EFE33F
:10242000F6E0E4915A96EC935A97EFE5F6E0E491E2
:10243000F0E0EE0FFF1FEC5BF94F85919491509601
:102440009C938E931F97E1E4F6E0E4915796EC930A
:102450005797E0E6F6E0E491F0E0EE0FFF1FEC5B4B
:10246000F94F8591949152969C938E935197E2E403
:10247000F6E0E4915996EC93599740E059E06DE30A
:1024800070E014964D935D936D937C93179781E064
:1024900090E019969C938E9318971A961C921A970F
:1024A0005B961C925B97BC8FAB8F80E18E8F8EE02A
:1024B0008D8FDF91CF910895789484B5826084BD2B
:1024C00084B5816084BD85B5826085BD85B5816038
:1024D00085BD80916E00816080936E0010928100B6
:1024E0008091810082608093810080918100816071
:1024F0008093810080918000816080938000809132
:10250000B10084608093B1008091B00081608093BD
:10251000B00080917A00846080937A0080917A0084
:10252000826080937A0080917A00816080937A0043
:1025300080917A00806880937A001092C100C1E097
:10254000D3E001E113E08881229661E00E94E60376
:102550000C171D07C1F761E085E00E94E60362E009
:1025600082E00E94E60362E083E00E94E60362E00C
:1025700084E00E94E603C0919604D09197048B8575
:102580008F3F39F061E00E94E60361E08B850E9495
:10259000B80388819981892B09F4EEC01FB7F8949C
:1025A0008091C103811127C0E8E5F6E08491EAE358
:1025B000F6E09491E82FF0E0EE0FFF1FE85FF94F8F
:1025C000A591B491EC91E92321F461E08AE00E94A5
:1025D000B80361E08AE00E94E6038CB580618CBD9F
:1025E0008CB580648CBD61E08DE00E94E60361E003
:1025F0008BE00E94E6038091C1038F5F8093C1034B
:102600001FBF81E08B8F61E0809199040E94E603F7
:102610008091980487FD03C061E00E94E60384E096
:1026200080939B0488E280939A0410929C041092F9
:102630009D040E94F70610929E0480919F048335AA
:1026400008F483E580939F041092A0048091A10474
:102650008F3208F48FE28093A1040E94350789E34A
:102660000E94E0060E94910E0E943507E091EE0361
:10267000F091EF0382E08083E091EA03F091EB03B5
:102680001082E091EC03F091ED038FEC80831092C7
:10269000F603E091F203F091F30386E08083E0918A
:1026A000F003F091F103808180618083E091F00379
:1026B000F091F103808188608083E091F003F091D4
:1026C000F103808180688083E091F003F091F10351
:1026D00080818F7D808360E072E0809102010E94A2
:1026E0002D0F44244A9433E0532E612C712C40E08A
:1026F000242E40E0342E01E010E00E945E056B01C4
:102700007C0125E420937C0080917A008064809392
:102710007A0080917A0086FDFCCFC0917800D0913C
:1027200079002CE231E0DE010E948C17A3019201B6
:102730000E940E1549015A0188EC880E911CA11CBB
:10274000B11C82E00E948F03892BA1F580910201C8
:10275000833581F193E5909302011092D103109299
:10276000D2031092D3031092D40362E370E080E0AE
:1027700090E00E9483052EC061E08C850E94E603F4
:102780008A858B7F60E009F061E08C850E94B80348
:102790008D858F3F39F061E00E94E60361E08D8511
:1027A0000E94B8038E858F3F09F42BCF60E00E9412
:1027B000E60327CF83E00E948F03892B29F48091C1
:1027C0000201843509F0CBC084E00E948F03892B7D
:1027D00009F4D1C08091CA039091CB03A091CC039E
:1027E000B091CD03A7019601281B390B4A0B5B0B57
:1027F000DA01C90180349F41A105B105B0F0C09252
:10280000CA03D092CB03E092CC03F092CD03809127
:10281000020160E0803531F46091CE0341E064272D
:102820006093CE0385E00E94B8038091C603909127
:10283000C703A091C803B091C903A7019601281B43
:10284000390B4A0B5B0BDA01C90188159905AA05FA
:10285000BB0508F444C0C092C603D092C703E092FF
:10286000C803F092C90380910201833509F09BC02F
:10287000C090D103D090D203E090D303F090D40362
:10288000C701B6010E94C41620E030E04EEF52E4CA
:102890000E94571620E030E04EEF52E40E945F1590
:1028A0000E94CB15CB010E941F0E2DEC3CEC4CE49A
:1028B0005EE3C701B6010E945F156B017C0126E54E
:1028C0003EE049EC50E40E94521687FF63C0C0927C
:1028D000D103D092D203E092D303F092D4032FB766
:1028E000F8948091D6039091D703A091D803B0912A
:1028F000D9032FBF4091C2035091C3036091C40319
:102900007091C503841B950BA60BB70B8C329140BD
:10291000A105B105C0F02FB7F8948091D60390912E
:10292000D703A091D803B091D9032FBF8093C203DE
:102930009093C303A093C403B093C503BE018091D9
:1029400002010E942D0F2114310409F4D6CE0E94F9
:102950001F06882309F4D1CE0E940000CECE24E5C4
:10296000209302011092D0031092CF031093010123
:1029700000930001FACE80910201803509F42ACF3C
:1029800030E53093020190E080E00E941F0E10922B
:10299000CE03EBCE1092D1031092D2031092D30348
:1029A0001092D4039CCF843509F099CFE090CF03E7
:1029B000F090D003C7010E941F0E809100019091FA
:1029C000010123E0880F991F2A95E1F7E80EF91E0F
:1029D0003FEFE316F104ACF4F092D003E092CF03A2
:1029E0008091CF039091D003181619060CF477CF7D
:1029F0001092D0031092CF031093010100930001B5
:102A00006ECF4FEF50E05093D0034093CF038FEF42
:102A10009FEF9093010180930001E2CF052E97FB79
:102A20001EF400940E94251557FD07D00E942D1515
:102A300007FC03D04EF40C94251550954095309525
:102A400021953F4F4F4F5F4F08959095809570951A
:102A500061957F4F8F4F9F4F0895A1E21A2EAA1BB9
:102A6000BB1BFD010DC0AA1FBB1FEE1FFF1FA2173E
:102A7000B307E407F50720F0A21BB30BE40BF50B3B
:102A8000661F771F881F991F1A9469F760957095C4
:102A9000809590959B01AC01BD01CF010895A29F47
:102AA000B001B39FC001A39F700D811D1124911D22
:102AB000B29F700D811D1124911D08955058BB27A0
:102AC000AA270E9476150C9418160E940A1638F050
:102AD0000E94111620F039F49F3F19F426F40C944B
:102AE00007160EF4E095E7FB0C940116E92F0E94FF
:102AF000291658F3BA17620773078407950720F061
:102B000079F4A6F50C944B160EF4E0950B2EBA2F23
:102B1000A02D0B01B90190010C01CA01A0011124E3
:102B2000FF27591B99F0593F50F4503E68F11A168F
:102B3000F040A22F232F342F4427585FF3CF469520
:102B400037952795A795F0405395C9F77EF41F1642
:102B5000BA0B620B730B840BBAF09150A1F0FF0F0C
:102B6000BB1F661F771F881FC2F70EC0BA0F621FF8
:102B7000731F841F48F4879577956795B795F795E8
:102B80009E3F08F0B0CF9395880F08F09927EE0F7D
:102B90009795879508950E94D2156894B1110C9469
:102BA0004C1608950E94311688F09F5798F0B92F5F
:102BB0009927B751B0F0E1F0660F771F881F991F72
:102BC0001AF0BA95C9F714C0B13091F00E944B16B3
:102BD000B1E008950C944B16672F782F8827B85FC3
:102BE00039F0B93FCCF3869577956795B395D9F7CA
:102BF0003EF490958095709561957F4F8F4F9F4FD4
:102C0000089597F99F6780E870E060E008959FEF6E
:102C100080EC089500240A94161617061806090673
:102C2000089500240A941216130614060506089542
:102C3000092E0394000C11F4882352F0BB0F40F4CA
:102C4000BF2B11F460FF04C06F5F7F4F8F4F9F4F0A
:102C5000089557FD9058440F551F59F05F3F71F08C
:102C60004795880F97FB991F61F09F3F79F08795F3
:102C70000895121613061406551FF2CF4695F1DF7C
:102C800008C0161617061806991FF1CF869571050C
:102C9000610508940895E894BB2766277727CB0140
:102CA00097F908950E94CC1608F48FEF08950E94BA
:102CB0006A160C9418160E940A1638F00E94111613
:102CC00020F0952311F00C9401160C940716112492
:102CD0000C944C160E94291670F3959FC1F3950F22
:102CE00050E0551F629FF001729FBB27F00DB11D90
:102CF000639FAA27F00DB11DAA1F649F6627B00D20
:102D0000A11D661F829F2227B00DA11D621F739F08
:102D1000B00DA11D621F839FA00D611D221F749F16
:102D20003327A00D611D231F849F600D211D822F5D
:102D3000762F6A2F11249F5750409AF0F1F0882384
:102D40004AF0EE0FFF1FBB1F661F771F881F9150B1
:102D50005040A9F79E3F510580F00C9401160C9449
:102D60004C165F3FE4F3983ED4F3869577956795CC
:102D7000B795F795E7959F5FC1F7FE2B880F911DDB
:102D80009695879597F908959F930E94F2160F9054
:102D900007FCEE5F0C941B17990F0008550FAA0B48
:102DA000E0E8FEEF16161706E807F907C0F012165E
:102DB0001306E407F50798F0621B730B840B950B61
:102DC00039F40A2661F0232B242B252B21F40895B6
:102DD0000A2609F4A140A6958FEF811D811D089553
:102DE0000C9407160E943116D8F3E894E0E0BB2754
:102DF0009F57F0F02AED3FE049EC06C0EE0FBB0F05
:102E0000661F771F881F28F0B23A6207730784078E
:102E100028F0B25A620B730B840BE3959A9572F704
:102E2000803830F49A95BB0F661F771F881FD2F742
:102E300090480C943117EF93E0FF07C0A2EA2AED07
:102E40003FE049EC5FEB0E9476150E9418160F9048
:102E5000039401FC9058E8E6F0E00C943D179F3F86
:102E600031F0915020F4879577956795B795880F45
:102E7000911D9695879597F908959F938F937F93CA
:102E80006F93FF93EF939B01AC010E945716EF9154
:102E9000FF910E9451172F913F914F915F910C9498
:102EA0005716DF93CF931F930F93FF92EF92DF920A
:102EB0007B018C01689406C0DA2EEF010E946A162D
:102EC000FE01E894A5912591359145915591A6F380
:102ED000EF010E947615FE019701A801DA9469F7C7
:102EE000DF90EF90FF900F911F91CF91DF910895A8
:102EF00097FB072E16F4009407D077FD09D00E94A7
:102F0000931707FC05D03EF4909581959F4F089547
:102F1000709561957F4F08950E944F15B7FF0895F2
:102F2000821B930B0895AA1BBB1B51E107C0AA1F6C
:102F3000BB1FA617B70710F0A61BB70B881F991F5A
:102F40005A95A9F780959095BC01CD010895EE0F93
:102F5000FF1F0590F491E02D09940F931F93CF93D9
:102F6000DF938230910510F482E090E0E091A404B8
:102F7000F091A50430E020E0B0E0A0E0309799F4B3
:102F80002115310509F44AC0281B390B24303105BD
:102F9000D8F58A819B816115710589F1FB019383C5
:102FA0008283FE0111C04081518102811381481743
:102FB0005907E0F04817590799F4109761F01296F5
:102FC0000C93129713961C933296CF01DF91CF91F9
:102FD0001F910F9108950093A4041093A504F4CFBA
:102FE0002115310551F04217530738F0A901DB01D3
:102FF0009A01BD01DF01F801C1CFEF01F9CF909334
:10300000A5048093A404CDCFFE01E20FF31F8193AA
:1030100091932250310939832883D7CF2091A2047C
:103020003091A304232B41F42091FD023091FE0244
:103030003093A3042093A2042091FB023091FC0260
:103040002115310541F42DB73EB74091FF02509153
:103050000003241B350BE091A204F091A304E217B6
:10306000F307A0F42E1B3F0B2817390778F0AC01AB
:103070004E5F5F4F2417350748F04E0F5F1F509388
:10308000A3044093A204819391939FCFF0E0E0E0EA
:103090009CCFCF93DF930097E9F0FC013297138226
:1030A0001282A091A404B091A504ED0130E020E0CB
:1030B0001097A1F420813181820F931F2091A204E7
:1030C0003091A3042817390709F061C0F093A304D5
:1030D000E093A204DF91CF910895EA01CE17DF07B4
:1030E000E8F54A815B819E0141155105B1F7E9017F
:1030F000FB83EA8349915991C40FD51FEC17FD0753
:1031000061F4808191810296840F951FE901998372
:103110008883828193819B838A83F0E0E0E012962A
:103120008D919C9113970097B9F52D913C91119732
:10313000CD010296820F931F2091A2043091A30427
:103140002817390739F6309751F51092A5041092D7
:10315000A404B093A304A093A204BCCFD383C283DE
:1031600040815181840F951FC817D90761F44E5FC4
:103170005F4F88819981480F591F518340838A810D
:103180009B81938382832115310509F0B0CFF093A1
:10319000A504E093A4049ECFFD01DC01C0CF1382FF
:1031A0001282D7CF81E090E0F8940C94D718F8946D
:0231B000FFCF4F
:1031B20001005300000000000000000000000000B9
:1031C20000000000000000000000000000000000FD
:1031D200000000000000000000C0E0F0F8FCFCFE6F
:1031E200FFFCE00000000000000000000000000002
:1031F20000000000000000000000000000000000CD
:1032020000000000000000000000000000000000BC
:103212000000000000000000F8F8F8F8F8F8F8F8EC
:10322200F8F8F8F8F0F0E0E0C080C0FCFFFFFFFF24
:103232007F3F7FFFFFFFFFFF000000000000000054
:10324200000000000000000000000000000000007C
:10325200000000000000000000000000000000006C
:10326200000000000000000000000000000F1F3FEF
:103272007FFFFFFFFFFFFFFFFFE7C7C7878F9F9F0C
:10328200FFFFFFC1C0E0FCFFFFFFFFFFFCFCFCFCF7
:10329200FEFEFEFCFCF8F8F0E0C0C00000000000FA
:1032A200000000000000000000000000000000001C
:1032B200000000000000000000000000000000000C
:1032C2000000000080C0E0F1FBFFFFFFFFFF7F1F57
:1032D2000F0F87E7FFFFFF1F1F3FF9F8F8F8F8F815
:1032E200F8FDFFFFFFFFFFFFFFFFFF7F3F0F07011B
:1032F20000000000000000000000000000000000CC
:1033020000000000000000000000000000000000BB
:10331200000000000000F0FEFFFFFFFFFFFFFFFFC5
:10332200FFFFFE7E3F3F0F1FFFFFFFFCF0E0F1FFBC
:10333200FFFFFFFFFCF0010101010101010100009B
:10334200000000000000000000000000000000007B
:10335200000000000000000000000000000000006B
:103362000000000000000000000003030303030349
:1033720003030101010100000000000000030F1F10
:103382003F7F7FFFFFFFFF7F7F1F030000000000E2
:10339200000000000000000000000000000000002B
:1033A20000000000000000000000000000A60480F1
:1033B2000006000700080009000A000B000C000DBF
:1033C20000000000005506B505E205A2061306F14D
:1033D20005050600000000A70AB5051C0E1B0EAB72
:1033E200074208670D3F0D5B0D4F0D6E0D42086DD4
:1033F200089A07060DCD0C880C6B0CF30B940B008E
:00000001FF
