:100000000C9463000C948B000C948B000C948B006C
:100010000C948B000C948B000C948B000C94AF060A
:100020000C948B000C948B000C948B000C948B0024
:100030000C948B000C948B000C948B000C948B0014
:100040000C9465060C948B000C9431070C940B07F0
:100050000C948B000C948B000C948B000C948B00F4
:100060000C948B000C948B000200000000240027ED
:10007000002A0000000000250028002B00000000DE
:100080000800020100000304070000000000000057
:1000900000000000002300260029000404040404DA
:1000A0000404040202020202020303030303030125
:1000B00002040810204080010204081020010204FC
:1000C00008102000630711241FBECFEFD8E0DEBF69
:1000D000CDBF11E0A0E0B1E0E6E5FAE102C0059095
:1000E0000D92A63AB107D9F722E0A6EAB1E001C025
:1000F0001D92A838B207E1F710E0C3E6D0E004C0D3
:100100002197FE010E94230DC236D107C9F70E9434
:10011000CE070C94290D0C940000CF92DF92EF9241
:10012000FF92CF93DF93B0916402A0E08111AB2FD7
:100130008091650290E0880F991FAC014F565F4F88
:10014000C0906A02D0906B02E0906C02F0906D0259
:1001500030E020E0FA01C591D491E881B90190E046
:1001600080E0EB23EA130AC02F5F3F4F6C157D053B
:100170008E059F0578F36FEF7FEFCB01DF91CF9175
:10018000FF90EF90DF90CF90089590E0FC01E3584E
:10019000FF4F2491FC01E155FF4F3491FC01E556DE
:1001A000FF4FE491EE23C9F0222339F0233001F10F
:1001B000A8F4213019F1223029F1F0E0EE0FFF1FF1
:1001C000ED58FF4FA591B4918FB7F894EC91611160
:1001D00026C030953E233C938FBF08952730A9F069
:1001E0002830C9F0243049F7809180008F7D03C00A
:1001F000809180008F7780938000DFCF84B58F77E8
:1002000084BDDBCF84B58F7DFBCF8091B0008F772D
:100210008093B000D2CF8091B0008F7DF9CF3E2B7C
:10022000DACFCF93DF9390E0FC01E155FF4F2491AB
:1002300085569F4FFC0184918823D1F090E0880F70
:10024000991FFC01E759FF4FA591B491FC01ED58AE
:10025000FF4FC591D491623071F49FB7F8943C91EF
:10026000822F809583238C93E8812E2B28839FBF38
:10027000DF91CF9108958FB7F894EC912E2B2C93AA
:100280008FBFF6CF3FB7F8948091B8019091B90134
:10029000A091BA01B091BB0126B5A89B05C02F3F24
:1002A00019F00196A11DB11D3FBFBA2FA92F982F9C
:1002B0008827BC01CD01620F711D811D911D42E097
:1002C000660F771F881F991F4A95D1F708958F925F
:1002D0009F92AF92BF92CF92DF92EF92FF924B012B
:1002E0005C010E9442016B017C010E9442016C1979
:1002F0007D098E099F09683E734081059105A8F329
:1003000021E0821A9108A108B10888EEC80E83E0A6
:10031000D81EE11CF11C81149104A104B10429F739
:10032000FF90EF90DF90CF90BF90AF909F908F9015
:100330000895CF92DF92EF92FF920F931F93CF9386
:10034000DF93CDB7DEB7C054D1400FB6F894DEBF0F
:100350000FBECDBF2FB7F8948091BC019091BD0125
:10036000A091BE01B091BF012FBF40916602509194
:10037000670260916802709169028C019D01041B03
:10038000150B260B370BB901A801403D57406105FD
:10039000710590F480916E02C05CDE4F0FB6F89448
:1003A000DEBF0FBECDBFDF91CF911F910F91FF90A8
:1003B000EF90DF90CF90089580936602909367024C
:1003C000A0936802B09369021092610210926002D9
:1003D00010925F0210925E0210925D0262E08091C4
:1003E00062020E94110161E070E080E090E00E94F2
:1003F000670161E0809162020E94110160E08091DA
:1004000062020E94C500809163028551823020F50E
:100410008BE291E10197F1F762E0809162020E9424
:10042000110180916F0290E08230910538F0880FC1
:10043000991F880F991F05970197F1F7F89480E0AD
:100440000E948D006F3F7F4F8F4F9F4F61F410923E
:100450006E02789480E0A0CF64E170E080E090E0EC
:100460000E946701D9CF81E00E948D006F3F7F4FCE
:100470008F4F9F4F61F38E010F5F1F4F6E018FEB08
:10048000C81A8EEFD80A780180E00E948D00F7012B
:10049000608371838283938381E00E948D00F701E2
:1004A0006483758386839783F8E0EF0EF11CEC1468
:1004B000FD0451F7789430E020E0F801C080D1804D
:1004C000E280F3804481558166817781FFEFCF160A
:1004D000DF06EF06FF0631F04F3F8FEF5807680742
:1004E000780719F410926E02B5CFF90183E0F59503
:1004F000E7958A95E1F7E35AFD4F8081880FC4168E
:10050000D506E606F70610F180832F5F3F4F085FA0
:100510001F4F2832310589F64091610220915D021A
:1005200080915E02280F3327331F80915F02280FCE
:10053000311D80916002820F932F911D99274817DA
:10054000190681F681E080936E0226CF8160DCCFB0
:100550009091000189130BC0E8E6F0E0E4919FEF71
:1005600090930001E13049F028F0E23061F060E062
:100570000C94C50010926E00FACF90916F009D7F91
:1005800090936F00F4CF909170009D7F90937000D6
:1005900091E09093B0009091B100987F9460909317
:1005A000B1001092B300E3CFAF92BF92CF92DF922F
:1005B000EF92FF920F931F93CF93DF936C017B0118
:1005C0008B01040F151FEB015E01AE18BF08C017A9
:1005D000D10759F06991D601ED91FC910190F0811C
:1005E000E02DC6010995892B79F7C501DF91CF91DF
:1005F0001F910F91FF90EF90DF90CF90BF90AF9041
:100600000895FC01538D448D252F30E0842F90E018
:10061000821B930B541710F0CF96089501970895FD
:10062000FC01918D828D981761F0A28DAE0FBF2FC6
:10063000B11D5D968C91928D9F5F9F73928F90E01C
:1006400008958FEF9FEF0895FC01918D828D98178B
:1006500031F0828DE80FF11D858D90E008958FEFC8
:100660009FEF0895FC01918D228D892F90E0805C91
:100670009F4F821B91098F739927089580EC91E019
:100680000E94320321E0892B09F420E0822F089593
:1006900080E090E0892B29F00E943E0381110C94A8
:1006A00000000895FC01A48DA80FB92FB11DA35A15
:1006B000BF4F2C91848D90E001968F739927848F82
:1006C000A689B7892C93A089B1898C9183708064A5
:1006D0008C93938D848D981306C00288F389E02D46
:1006E00080818F7D80830895EF92FF920F931F93F7
:1006F000CF93DF93EC0181E0888F9B8D8C8D9813D5
:100700001AC0E889F989808185FF15C09FB7F894E0
:10071000EE89FF896083E889F9898081837080642C
:1007200080839FBF81E090E0DF91CF911F910F9177
:10073000FF90EF900895F62E0B8D10E00F5F1F4F86
:100740000F731127E02E8C8D8E110CC00FB607FC95
:10075000FACFE889F989808185FFF5CFCE010E9423
:100760005203F1CFEB8DEC0FFD2FF11DE35AFF4F3C
:10077000F0829FB7F8940B8FEA89FB8980818062B1
:10078000CFCFCF93DF93EC01888D8823B9F0AA896E
:10079000BB89E889F9898C9185FD03C0808186FD3C
:1007A0000DC00FB607FCF7CF8C9185FFF2CF80818B
:1007B00085FFEDCFCE010E945203E9CFDF91CF91AB
:1007C0000895089590E080E00895CF93DF93EC01C1
:1007D00060E08E810E94C50061E08E810E94C500AC
:1007E00060E08E810E94C5008BE891E00197F1F7EF
:1007F000DF91CF910895CF92DF92EF92FF920F9306
:100800001F93CF93DF936C017C0187E0E80EF11C0E
:10081000D0E0C0E0062F10E0B8010C2E02C07595A4
:1008200067950A94E2F76170F70181917F010E9458
:10083000C5002196C430D10579F7C601DF91CF916B
:100840001F910F91FF90EF90DF90CF900C94E503F4
:10085000CF92DF92EF92FF920F931F93CF93DF938C
:10086000EC01F62E642F8C810E94C5008D818F3F94
:1008700019F060E00E94C5000F2D10E08F8584FF05
:1008800025C06E0187E0C80ED11CF12CE12CB80107
:100890000E2C02C0759567950A94E2F76170F60117
:1008A00081916F010E94C500FFEFEF1AFF0A88E0F7
:1008B000E816F10461F7CE01DF91CF911F910F91FE
:1008C000FF90EF90DF90CF900C94E503B80184E0A7
:1008D000759567958A95E1F7CE010E94FB036F2D10
:1008E000CE01DF91CF911F910F91FF90EF90DF909C
:1008F000CF900C94FB0340E0682F80E792E00C94CB
:10090000280481E00E947B048BE39FE10197F1F7CB
:100910000895CF93DF93823029F490917F029860FD
:1009200090937F02809383021092840280E48093EC
:10093000850280E18093860280E58093870261E0F2
:10094000809174020E941101809175028F3F19F00D
:1009500061E00E94110161E0809176020E94110124
:10096000C0E7D2E09E012057324080917F0284FD93
:100970000BC084E090E021962817390744F461E029
:100980008E810E941101EECF88E090E0F4CF8BE3DE
:100990009DE00197F1F760E0809174020E94C5002C
:1009A00060E0809176020E94C500809175028F3FC1
:1009B00019F060E00E94C50080917F0284FD34C080
:1009C00063E080E792E00E94FB03CBE4D6E4CE0133
:1009D0000197F1F763E080E792E00E94FB03219723
:1009E000F1F763E080E792E00E94FB0383E592E089
:1009F0000197F1F762E080E792E00E94FB038091AB
:100A00007F0280620E947B0484E0809380028CE0FD
:100A10000E947B040E94810482E08093810286E030
:100A2000DF91CF910C947B0480620E947B048BE465
:100A300096E40197F1F780917F0280620E947B0427
:100A400083E592E00197F1F780917F0280620E9436
:100A50007B04D5CF90918302891710F08FEF890F17
:100A6000E82FF0E0E059FD4F848980680C947B0406
:100A700041E00E94280481E090E00895FB0101908C
:100A80000020E9F73197AF01461B570BDC01ED91D0
:100A9000FC910280F381E02D09948F929F92AF9296
:100AA000BF920F931F93CF93DF93CDB7DEB7A1977C
:100AB0000FB6F894DEBF0FBECDBF19A2423008F4C6
:100AC0004AE08E010F5D1F4F842E912CB12CA12C7A
:100AD000A50194010E94010DE62FB901CA01EA3077
:100AE00004F5E05DD801EE938D01232B242B252BFB
:100AF00079F790E080E0109729F0BD0180EC91E05B
:100B00000E943E05A1960FB6F894DEBF0FBECDBF82
:100B1000DF91CF911F910F91BF90AF909F908F90D9
:100B20000895E95CDFCFBC0180E792E00C943E05BC
:100B30004F925F926F927F928F929F92AF92BF92ED
:100B4000CF92DF92EF92FF926B017C01AC019B018F
:100B50000E94FC0C6FE171E081111AC0460157013F
:100B6000E894B7F82FEF3FEF4FE75FE7C501B40117
:100B70000E94FC0C811126C02FEF3FEF4FE75FE78B
:100B8000C501B4010E94A40B1816E4F463E271E0FD
:100B900080EC91E00E943E057C016BE271E080EC0C
:100BA00091E00E943E058E0D9F1DFF90EF90DF901B
:100BB000CF90BF90AF909F908F907F906F905F90FD
:100BC0004F9008952FEF3FEF4FE75FE4C701B60165
:100BD0000E948A0C18161CF467E271E0D9CF2FEF3F
:100BE0003FEF4FE75FECC701B6010E94A40B87FD02
:100BF000F3CF20E030E0A901C701B6010E94A40BA9
:100C0000B12CA12C87FF0AC06DE280EC91E00E941C
:100C100074035C01F7FAF094F7F8F0942AE037EDEA
:100C200043EA5BE3C701B6010E94380B2B013C018C
:100C30000E94A90B6B017C010E94D80B9B01AC01A7
:100C4000C301B2010E94370B2B013C014AE0C701EE
:100C5000B6010E944D057C01EA0CFB1C6EE280ECA3
:100C600091E00E947403E80EF91E20E030E040E2BB
:100C700051E4C301B2010E948F0C2B013C010E9480
:100C8000A90B4B01B12CA12C4AE0C501B4010E9473
:100C90004D05E80EF91EC501B4010E94D80B9B0159
:100CA000AC01C301B2010E94370B20E030E040E20A
:100CB00051E40E948F0C0E94A90B90E080E04AE072
:100CC0000E944D05E80EF91E68CF1F920F920FB6D5
:100CD0000F9211242F933F938F939F93AF93BF93C2
:100CE0008091BC019091BD01A091BE01B091BF0166
:100CF0003091B70123E0230F2D3758F50196A11D40
:100D0000B11D2093B7018093BC019093BD01A093C6
:100D1000BE01B093BF018091B8019091B901A0913B
:100D2000BA01B091BB010196A11DB11D8093B8011C
:100D30009093B901A093BA01B093BB01BF91AF9159
:100D40009F918F913F912F910F900FBE0F901F9009
:100D5000189526E8230F0296A11DB11DD2CF1F9230
:100D60000F920FB60F9211242F933F934F935F93DF
:100D70006F937F938F939F93AF93BF93EF93FF9363
:100D80008091AB019091AC01A091AD01B091AE0109
:100D9000892B8A2B8B2BD1F19091A601E091A70191
:100DA000F091A8018081892780838091AB01909187
:100DB000AC01A091AD01B091AE01181619061A064A
:100DC0001B069CF48091AB019091AC01A091AD0108
:100DD000B091AE010197A109B1098093AB01909345
:100DE000AC01A093AD01B093AE01FF91EF91BF9123
:100DF000AF919F918F917F916F915F914F913F91B3
:100E00002F910F900FBE0F901F90189580910001A9
:100E10000E94A802EACF1F920F920FB60F921124E0
:100E20002F933F934F935F936F937F938F939F93F2
:100E3000AF93BF93EF93FF9380EC91E00E94520336
:100E4000FF91EF91BF91AF919F918F917F916F91A2
:100E50005F914F913F912F910F900FBE0F901F9078
:100E600018951F920F920FB60F9211242F938F9304
:100E70009F93EF93FF93E091D001F091D101808196
:100E8000E091D601F091D70182FD1BC09081809145
:100E9000D9018F5F8F732091DA01821741F0E091C1
:100EA000D901F0E0E054FE4F958F8093D901FF9176
:100EB000EF919F918F912F910F900FBE0F901F90E8
:100EC00018958081F4CFE0ECF1E01382128288EE75
:100ED00093E0A0E0B0E084839583A683B78385E0A8
:100EE00091E09183808385EC90E09587848784EC02
:100EF00090E09787868780EC90E0918B808B81ECE7
:100F000090E0938B828B82EC90E0958B848B86ECC7
:100F100090E0978B868B118E128E138E148EE0E7E5
:100F2000F2E01382128287E191E0918380838EE068
:100F300084838FEF85838FE0868380E1878381E1DF
:100F4000808782E1818783E18287138614861586F4
:100F50001686178681E00E948904ADE5B2E082E042
:100F600015968C93159786E116968C931697E1EB60
:100F7000F0E0E4911796EC931797EDE9F0E0E49137
:100F80001896EC93189740E85EE360E070E01D96D9
:100F90004D935D936D937C9350970895789484B5A9
:100FA000826084BD84B5816084BD85B5826085BD65
:100FB00085B5816085BD80916E00816080936E00F3
:100FC00010928100809181008260809381008091E5
:100FD0008100816080938100809180008160809396
:100FE00080008091B10084608093B1008091B00056
:100FF00081608093B00080917A00846080937A0051
:1010000080917A00826080937A0080917A0081607A
:1010100080937A0080917A00806880937A001092A1
:10102000C100E091D001F091D10182E08083E09194
:10103000CC01F091CD011082E091CE01F091CF0171
:101040008FEC80831092D801E091D401F091D5010A
:1010500086E08083E091D201F091D30180818061AC
:101060008083E091D201F091D301808188608083F8
:10107000E091D201F091D301808180688083E0917A
:10108000D201F091D30180818F7D808362E08091D5
:1010900062020E9411012FB7F8948091BC019091D7
:1010A000BD01A091BE01B091BF012FBF805D9740EF
:1010B000A109B1098093660290936702A093680228
:1010C000B093690287E380936F0282E00E948904F3
:1010D00061E083E00E94110161E085E00E9411015E
:1010E00061E088E00E94110161E089E00E94110145
:1010F00004EA10E068EB262E60E0362E44244A9481
:10110000542C32010E949901882341F0809163029E
:101110008C3009F462C048F48B3001F1C12CD12C21
:1011200040ECE42E4FE7F42E43C085518230B0F7F7
:10113000B0905F026B2D70E0762F662766277F7771
:1011400080916002682B90E080E00E94D80B2DEC2B
:101150003CEC4CEC5DE30E948F0C5BC060915F0245
:1011600070E090E080E00E94D80B6B017C01C091A0
:101170006002C7FF0AC0AC019B0160E070E080E83C
:101180009FEB0E94370B6B017C016C2F6F7070E03E
:1011900090E080E00E94DA0B2DEC3CEC4CEC5DE33F
:1011A0000E948F0CA70196010E94380B6B017C01F5
:1011B0000E949901882351F0809163028B3030F0B6
:1011C0008D3080F18551823008F485C0812C912CBE
:1011D00030ECA32E3FE7B32E43C0B0905F026B2DDF
:1011E00070E090E080E00E94D80B6B017C01609180
:1011F00060026F7070E090E080E00E94DA0B2DECEE
:101200003CEC4CEC5DE30E948F0CA70196010E9420
:10121000380B6B017C01B7FECBCFF7FAF094F7F8EF
:10122000F094C6CF60915E0270E090E080E00E9492
:10123000DA0B2DEC3CEC4CEC5DE30E948F0C4B0187
:101240005C0160915D0270E090E080E00E94DA0B4A
:101250009B01AC01C501B4010E94380B4B015C013C
:10126000C701B6010E949805C501B4010E94980506
:10127000A7019601C701B6010E94FC0C811108C0AC
:10128000A5019401C501B4010E94FC0C8823A9F1B9
:1012900060E083E00E94C50060E085E00E94C50038
:1012A00060E088E00E94C50060E089E00E94C5001F
:1012B0000E9481048EE291E00E949305E0E0F0E05C
:1012C000EF2B09F41FCF0E943E03882309F41ACFA5
:1012D0000E94000017CF60915D0270915E02762738
:1012E0006727762790E080E00E94D80B2DEC3CEC3D
:1012F0004CEC5DE30E948F0CB1CF20E030E044E382
:1013000052E4C701B6010E948A0C18160CF011C1F4
:1013100080910001893031F5E8E6F0E0C491C7FD25
:10132000C0C061E089E00E941101CC2309F489C0AA
:10133000C23009F09AC08091B100887F83608093A9
:10134000B10089EF8093B3004092AB015092AC01A1
:101350006092AD017092AE018091700082608093C6
:1013600070009FC08F3F09F09CC089E0809300010E
:10137000E8E6F0E0C491CF3F09F493C0C13019F121
:1013800050F0C23009F43CC0C7FD8BC061E089E079
:101390000E941101CDCF14BC15BC84B5826084BD00
:1013A00085B5816085BDF8018491E82FF0E0EE0FEE
:1013B000FF1FED58FF4F85919491F1018491809327
:1013C000AA01C0E0AECF10928000109281008091FF
:1013D000810088608093810080918100816080938A
:1013E0008100F8018491E82FF0E0EE0FFF1FED5827
:1013F000FF4F85919491F10184918093A90191CF40
:101400001092B0001092B1008091B0008260809381
:10141000B0008091B10081608093B100F8018491A7
:10142000E82FF0E0EE0FFF1FED58FF4F85919491EC
:101430009093A8018093A701F10184918093A60164
:1014400070CF85B5887F836085BD8CE787BD40926E
:10145000B3015092B4016092B5017092B6018091CF
:101460006E00826080936E001CC0C13009F059C0CC
:1014700080918100887F8160809381008FE39FE16C
:1014800090938900809388004092AF015092B00100
:101490006092B1017092B20180916F00826080937E
:1014A0006F0061E083E00E94C50061E088E00E9477
:1014B000C50060E085E00E94C5000E9481048BE3C6
:1014C00091E00E94930520E030E04CE052E4C70137
:1014D000B6010E948A0C18160CF061C061E083E02E
:1014E0000E94C50061E088E00E94C50060E085E0E0
:1014F0000E94C5000E94810480E00E942A0581E6C6
:1015000091E00E94930581E00E942A058DE691E01A
:101510000E94930564EF71E080E090E00E94670113
:10152000CDCEC23021F0C111BCCF8FE38FCF8FE37E
:1015300009CF20E030E040E252E4C701B6010E944A
:101540008A0C181644F520E030E040EF51E4C50164
:10155000B4010E94A40B87FF1EC089E00E94A8026C
:1015600061E083E00E94C50061E088E00E94C50060
:1015700060E085E00E94C5000E94810480E00E9436
:101580002A058BE491E00E94930581E00E942A05E0
:1015900085E591E096CF89E00E94A80294CF20E0F3
:1015A00030E040E751E4C701B6010E94A40B87FF79
:1015B0001BC060E083E00E94C50060E088E00E94FC
:1015C000C50061E085E00E94C5000E94810480E0C2
:1015D0000E942A0587E791E00E94930581E00E941E
:1015E0002A0584E891E094CF20E030E040EA52E41C
:1015F000C501B4010E948A0C1816F4F489E00E9417
:10160000A80260E083E00E94C50060E085E00E94DF
:10161000C50060E088E00E94C5000E94810480E06F
:101620000E942A058DE891E00E94930581E00E94C6
:101630002A0582E991E06CCF60E083E00E94C5005A
:1016400060E088E00E94C50060E085E00E94C5007F
:101650000E94810480E00E942A058EE991E00E94A8
:10166000930581E00E942A058CE791E051CF505804
:10167000BB27AA270E944F0B0C94500C0E94420CCF
:1016800038F00E94490C20F039F49F3F19F426F4F9
:101690000C943F0C0EF4E095E7FB0C94390CE92F09
:1016A0000E94610C58F3BA17620773078407950705
:1016B00020F079F4A6F50C94830C0EF4E0950B2E33
:1016C000BA2FA02D0B01B90190010C01CA01A00194
:1016D0001124FF27591B99F0593F50F4503E68F1EF
:1016E0001A16F040A22F232F342F4427585FF3CF30
:1016F000469537952795A795F0405395C9F77EF401
:101700001F16BA0B620B730B840BBAF09150A1F049
:10171000FF0FBB1F661F771F881FC2F70EC0BA0FCF
:10172000621F731F841F48F4879577956795B79557
:10173000F7959E3F08F0B0CF9395880F08F0992752
:10174000EE0F9795879508950E94150C08F481E097
:1017500008950E94690C88F09F5798F0B92F992737
:10176000B751B0F0E1F0660F771F881F991F1AF08C
:10177000BA95C9F714C0B13091F00E94830CB1E062
:1017800008950C94830C672F782F8827B85F39F061
:10179000B93FCCF3869577956795B395D9F73EF425
:1017A00090958095709561957F4F8F4F9F4F0895CD
:1017B000E89409C097FB3EF49095809570956195EB
:1017C0007F4F8F4F9F4F9923A9F0F92F96E9BB27A1
:1017D0009395F695879577956795B795F111F8CF1D
:1017E000FAF4BB0F11F460FF1BC06F5F7F4F8F4F88
:1017F0009F4F16C0882311F096E911C0772321F07E
:101800009EE8872F762F05C0662371F096E8862F15
:1018100070E060E02AF09A95660F771F881FDAF76C
:10182000880F9695879597F90895990F0008550F99
:10183000AA0BE0E8FEEF16161706E807F907C0F056
:1018400012161306E407F50798F0621B730B840B5E
:10185000950B39F40A2661F0232B242B252B21F438
:1018600008950A2609F4A140A6958FEF811D811DD8
:10187000089597F99F6780E870E060E008959FEF12
:1018800080EC089500240A94161617061806090617
:10189000089500240A9412161306140605060895E6
:1018A000092E0394000C11F4882352F0BB0F40F46E
:1018B000BF2B11F460FF04C06F5F7F4F8F4F9F4FAE
:1018C000089557FD9058440F551F59F05F3F71F030
:1018D0004795880F97FB991F61F09F3F79F0879597
:1018E0000895121613061406551FF2CF4695F1DF20
:1018F00008C0161617061806991FF1CF86957105B0
:10190000610508940895E894BB2766277727CB01E3
:1019100097F908950E94150C08F48FEF08950E941E
:10192000A20C0C94500C0E94420C38F00E94490CFE
:1019300020F0952311F00C94390C0C943F0C1124D9
:101940000C94840C0E94610C70F3959FC1F3950F69
:1019500050E0551F629FF001729FBB27F00DB11D33
:10196000639FAA27F00DB11DAA1F649F6627B00DC3
:10197000A11D661F829F2227B00DA11D621F739FAC
:10198000B00DA11D621F839FA00D611D221F749FBA
:101990003327A00D611D231F849F600D211D822F01
:1019A000762F6A2F11249F5750409AF0F1F0882328
:1019B0004AF0EE0FFF1FBB1F661F771F881F915055
:1019C0005040A9F79E3F510580F00C94390C0C94BF
:1019D000840C5F3FE4F3983ED4F386957795679542
:1019E000B795F795E7959F5FC1F7FE2B880F911D7F
:1019F0009695879597F908950E94150C880B990B79
:101A00000895A1E21A2EAA1BBB1BFD010DC0AA1F3F
:101A1000BB1FEE1FFF1FA217B307E407F50720F057
:101A2000A21BB30BE40BF50B661F771F881F991FD2
:101A30001A9469F760957095809590959B01AC011B
:101A4000BD01CF010895EE0FFF1F0590F491E02D29
:061A50000994F894FFCF99
:101A5600FF000000007403D4020103C10332031027
:101A6600032403000000003805D402E203E1036EFC
:101A7600616E00696E66006F7666000D0A0053455A
:101A86004E534F52204552524F52004558545245DC
:101A96004D4520574541544845520048454154203C
:101AA60057415645004452592057454154484552DE
:101AB60000484F5420574541544845520054454D1F
:101AC60050204849474800434F4C4420574541540D
:101AD6004845520054454D50204C4F5700524149FD
:101AE6004E00504F53534942494C495459004E4FAA
:061AF600524D414C0000BE
:00000001FF
