:100000000C945C000C9479000C9479000C947900A9
:100010000C9479000C9479000C9479000C9479007C
:100020000C9479000C9479000C9479000C9479006C
:100030000C9479000C9479000C9479000C9479005C
:100040000C940B010C9479000C9479000C947900B9
:100050000C9479000C9479000C9479000C9479003C
:100060000C9479000C947900000000080002010053
:100070000003040700000000000000000000000072
:10008000250028002B0000000000240027002A0083
:10009000040404040404040402020202020203032E
:1000A0000303030301020408102040800102040836
:1000B000102001020408102011241FBECFEFD8E049
:1000C000DEBFCDBF11E0A0E0B1E0ECE3F4E002C0A0
:1000D00005900D92A832B107D9F721E0A8E2B1E06E
:1000E00001C01D92A133B207E1F70E9455010C94A3
:1000F0001C020C94000090E0FC01EC55FF4F249191
:1001000080579F4FFC018491882399F090E0880FDD
:10011000991FFC01EA57FF4FA591B491FC01E458E7
:10012000FF4F859194918FB7F894EC91E22BEC936B
:100130008FBF089590E0FC01E859FF4F2491FC0126
:10014000EC55FF4F3491FC01E057FF4FE491EE2353
:10015000C9F0222339F0233001F1A8F4213019F13C
:10016000223029F1F0E0EE0FFF1FE458FF4FA59178
:10017000B4918FB7F894EC91611126C030953E236D
:100180003C938FBF08952730A9F02830C9F0243060
:1001900049F7809180008F7D03C0809180008F7728
:1001A00080938000DFCF84B58F7784BDDBCF84B5AB
:1001B0008F7DFBCF8091B0008F778093B000D2CF3E
:1001C0008091B0008F7DF9CF3E2BDACF3FB7F89406
:1001D00080912D0190912E01A0912F01B0913001BD
:1001E00026B5A89B05C02F3F19F00196A11DB11D92
:1001F0003FBFBA2FA92F982F8827BC01CD01620FCE
:10020000711D811D911D42E0660F771F881F991F88
:100210004A95D1F708951F920F920FB60F921124AD
:100220002F933F938F939F93AF93BF938091290117
:1002300090912A01A0912B01B0912C0130912801BD
:1002400023E0230F2D3758F50196A11DB11D2093F2
:1002500028018093290190932A01A0932B01B09348
:100260002C0180912D0190912E01A0912F01B09130
:1002700030010196A11DB11D80932D0190932E0197
:10028000A0932F01B0933001BF91AF919F918F91B7
:100290003F912F910F900FBE0F901F90189526E859
:1002A000230F0296A11DB11DD2CF789484B5826030
:1002B00084BD84B5816084BD85B5826085BD85B50A
:1002C000816085BD80916E00816080936E00109288
:1002D0008100809181008260809381008091810003
:1002E0008160809381008091800081608093800094
:1002F0008091B10084608093B1008091B0008160F2
:100300008093B00080917A00846080937A0080911D
:100310007A00826080937A0080917A008160809375
:100320007A0080917A00806880937A001092C100F0
:1003300000E011E0C8E1D1E0888122960E947B00B4
:10034000F80180810E5F1F4F0E947B00F1E0C832F0
:10035000DF0791F760E0262E60E0362E00E111E025
:1003600058E1C52E51E0D52E48E1E42E41E0F42EAF
:10037000F7018081F2E0EF0EF11C60E00E949A002C
:10038000CE15DF05A9F720E0A22E21E0B22E37E03E
:10039000E32EF12CF5018081F2E0AF0EB11CF801E3
:1003A000208130E00E2C02C0359527950A94E2F7A3
:1003B00060E020FF61E00E949A00F1E0EF1AF1088E
:1003C00048F7F6018081F2E0CF0ED11C61E00E9477
:1003D0009A000E94E6004B015C0192E0492E512CEC
:1003E000612C712C0E94E600681979098A099B0921
:1003F000683E734081059105A8F328EE820E23E044
:10040000921EA11CB11C4A9445284628472829F071
:10041000412C512C32014394E5CF0F5F1F4F88E1EF
:1004200091E08017910709F09FCF2114310409F45E
:0C04300095CF0E94000092CFF894FFCFFF
:10043C000A000B000C000D00110010000F000E0044
:10044C00FF181818181818180200030004000500EB
:08045C0006000700080009007A
:00000001FF
