:100000000C945C000C9479000C9479000C947900A9
:100010000C9479000C9479000C9479000C9479007C
:100020000C9479000C9479000C9479000C9479006C
:100030000C9479000C9479000C9479000C9479005C
:100040000C940B010C9479000C9479000C947900B9
:100050000C9479000C9479000C9479000C9479003C
:100060000C9479000C947900000000080002010053
:100070000003040700000000000000000000000072
:10008000250028002B0000000000240027002A0083
:10009000040404040404040402020202020203032E
:1000A0000303030301020408102040800102040836
:1000B000102001020408102011241FBECFEFD8E049
:1000C000DEBFCDBF11E0A0E0B1E0E0EDF4E002C0A2
:1000D00005900D92A836B107D9F721E0A8E6B1E066
:1000E00001C01D92A137B207E1F70E9455010C949F
:1000F00066020C94000090E0FC01EC55FF4F249147
:1001000080579F4FFC018491882399F090E0880FDD
:10011000991FFC01EA57FF4FA591B491FC01E458E7
:10012000FF4F859194918FB7F894EC91E22BEC936B
:100130008FBF089590E0FC01E859FF4F2491FC0126
:10014000EC55FF4F3491FC01E057FF4FE491EE2353
:10015000C9F0222339F0233001F1A8F4213019F13C
:10016000223029F1F0E0EE0FFF1FE458FF4FA59178
:10017000B4918FB7F894EC91611126C030953E236D
:100180003C938FBF08952730A9F02830C9F0243060
:1001900049F7809180008F7D03C0809180008F7728
:1001A00080938000DFCF84B58F7784BDDBCF84B5AB
:1001B0008F7DFBCF8091B0008F778093B000D2CF3E
:1001C0008091B0008F7DF9CF3E2BDACF3FB7F89406
:1001D00080916D0190916E01A0916F01B0917001BD
:1001E00026B5A89B05C02F3F19F00196A11DB11D92
:1001F0003FBFBA2FA92F982F8827BC01CD01620FCE
:10020000711D811D911D42E0660F771F881F991F88
:100210004A95D1F708951F920F920FB60F921124AD
:100220002F933F938F939F93AF93BF9380916901D7
:1002300090916A01A0916B01B0916C0130916801BD
:1002400023E0230F2D3758F50196A11DB11D2093F2
:1002500068018093690190936A01A0936B01B09348
:100260006C0180916D0190916E01A0916F01B09130
:1002700070010196A11DB11D80936D0190936E01D7
:10028000A0936F01B0937001BF91AF919F918F9137
:100290003F912F910F900FBE0F901F90189526E859
:1002A000230F0296A11DB11DD2CFCF93DF9300D0B3
:1002B00000D000D0CDB7DEB7789484B5826084BD1D
:1002C00084B5816084BD85B5826085BD85B581605A
:1002D00085BD80916E00816080936E0010928100D8
:1002E0008091810082608093810080918100816093
:1002F0008093810080918000816080938000809154
:10030000B10084608093B1008091B00081608093DF
:10031000B00080917A00846080937A0080917A00A6
:10032000826080937A0080917A00816080937A0065
:1003300080917A00806880937A001092C10008E46E
:1003400011E028E531E03A832983E981FA8180814F
:100350003296FA83E9830E947B00F80180810E5F68
:100360001F4F0E947B0029813A812856314069F74E
:1003700080E091E09E838D8368E0262E61E0362E3A
:100380008FB7F8942091690130916A0140916B0117
:1003900050916C0129833A834B835C838FBF2FB7C5
:1003A000F8948091690190916A01A0916B01B091DC
:1003B0006C012FBF29813A814B815C81821B930B99
:1003C000A40BB50B8C329140A105B10508F068C0B3
:1003D0000D811E8158E5C52E51E0D52E48E5E42E4D
:1003E00041E0F42EF7018081F2E0EF0EF11C60E0B5
:1003F0000E949A0028E6E21621E0F20699F728E426
:10040000A22E21E0B22E37E0E32EF12CF5018081FF
:10041000F2E0AF0EB11CF801208130E00E2C02C0DA
:10042000359527950A94E2F760E020FF61E00E948D
:100430009A00F1E0EF1AF10848F7F6018081F2E046
:10044000CF0ED11C61E00E949A000E94E6004B0191
:100450005C0192E0492E512C612C712C0E94E60027
:10046000681979098A099B09683E734081059105DD
:10047000A8F328EE820E23E0921EA11CB11C4A9420
:1004800045284628472829F0412C512C3201439415
:10049000E5CF0F5F1F4F2016310609F09FCF7FCFAA
:1004A00058E0250E311C8D819E8108969E838D8398
:1004B000E8E4F1E0E817F90709F062CF20E030E066
:1004C000232B09F455CF0E94000052CFF894FFCFA0
:1004D0003C428181FF81818100000000000000001A
:1004E000FC8282FCA09088840000000000000000D4
:1004F00081C1A19189858381000000000000000076
:100500003C428181FF8181810000000000000000E9
:10051000FC8282FC828282FC0A000B000C000D002F
:10052000110010000F000E0002000300040005007F
:080530000600070008000900A5
:00000001FF
