:020000040000FA
:100000000C945D000C9485000C9485000C94850084
:100010000C9485000C9485000C9485000C9485004C
:100020000C9485000C9485000C9485000C9485003C
:100030000C9485000C9485000C9485000C9485002C
:100040000C9418020C9485000C9488020C946202A3
:100050000C9485000C9485000C9485000C9485000C
:100060000C9485000C9485000000000024002700FB
:100070002A0000000000250028002B0004040404CE
:100080000404040402020202020203030303030342
:10009000010204081020408001020408102001021F
:1000A00004081020000000080002010000030407FB
:1000B0000000000000000000970411241FBECFEFD5
:1000C000D8E0DEBFCDBF11E0A0E0B1E0E6E9FAE0A4
:1000D00002C005900D92AC35B107D9F722E0ACE52E
:1000E000B1E001C01D92A630B207E1F710E0CDE506
:1000F000D0E004C02197FE010E944305CC35D10712
:10010000C9F70E94BA020C9449050C9400008E5065
:10011000806480937C0080917A00806480937A0070
:1001200080917A0086FDFCCF8091780090917900D3
:100130000895AF92BF92CF92DF92EF92FF920F930A
:100140001F93CF93DF936C017B018B01040F151F6D
:10015000EB015E01AE18BF08C017D10759F06991D5
:10016000D601ED91FC910190F081E02DC601099539
:10017000892B79F7C501DF91CF911F910F91FF90E6
:10018000EF90DF90CF90BF90AF900895FC01538D1A
:10019000448D252F30E0842F90E0821B930B541761
:1001A00010F0CF96089501970895FC01918D828DEE
:1001B000981761F0A28DAE0FBF2FB11D5D968C9187
:1001C000928D9F5F9F73928F90E008958FEF9FEFC6
:1001D0000895FC01918D828D981731F0828DE80F82
:1001E000F11D858D90E008958FEF9FEF0895FC013C
:1001F000918D228D892F90E0805C9F4F821B910909
:100200008F739927089589E691E00E94F70021E015
:10021000892B09F420E0822F089580E090E0892B5B
:1002200029F00E94030181110C9400000895FC0143
:10023000A48DA80FB92FB11DA35ABF4F2C91848D47
:1002400090E001968F739927848FA689B7892C93A4
:10025000A089B1898C91837080648C93938D848DF7
:10026000981306C00288F389E02D80818F7D8083FA
:100270000895EF92FF920F931F93CF93DF93EC01BA
:1002800081E0888F9B8D8C8D98131AC0E889F9893D
:10029000808185FF15C09FB7F894EE89FF89608340
:1002A000E889F98980818370806480839FBF81E0C1
:1002B00090E0DF91CF911F910F91FF90EF90089503
:1002C000F62E0B8D10E00F5F1F4F0F731127E02EDE
:1002D0008C8D8E110CC00FB607FCFACFE889F98916
:1002E000808185FFF5CFCE010E941701F1CFEB8D04
:1002F000EC0FFD2FF11DE35AFF4FF0829FB7F894EA
:100300000B8FEA89FB8980818062CFCFCF93DF9307
:10031000EC01888D8823B9F0AA89BB89E889F9891D
:100320008C9185FD03C0808186FD0DC00FB607FC52
:10033000F7CF8C9185FFF2CF808185FFEDCFCE0185
:100340000E941701E9CFDF91CF910895FC01019040
:100350000020E9F73197AF01481B590BBC0189E632
:1003600091E00C9499008F929F92AF92BF920F935D
:100370001F93CF93DF93CDB7DEB7A1970FB6F89455
:10038000DEBF0FBECDBF19A2423008F44AE08E0195
:100390000F5D1F4F842E912CB12CA12CA50194012F
:1003A0000E94E304E62FB901CA01EA30F4F4E05DEB
:1003B000D801EE938D01232B242B252B79F790E088
:1003C00080E0109719F0CD010E94A601A1960FB60A
:1003D000F894DEBF0FBECDBFDF91CF911F910F917B
:1003E000BF90AF909F908F900895E95CE1CFCF923E
:1003F000DF92EF92FF92CF93DF936B017C016DE26E
:1004000089E691E00E943901EC0166277727CB014C
:100410006C197D098E099F094AE00E94B3018C0F77
:100420009D1FDF91CF91FF90EF90DF90CF900895C7
:100430001F920F920FB60F9211242F933F938F9319
:100440009F93AF93BF938091650190916601A091B6
:100450006701B09168013091640123E0230F2D37CB
:1004600058F50196A11DB11D20936401809365018B
:1004700090936601A0936701B09368018091600139
:1004800090916101A0916201B09163010196A11D5B
:10049000B11D8093600190936101A0936201B093BC
:1004A0006301BF91AF919F918F913F912F910F90D9
:1004B0000FBE0F901F90189526E8230F0296A11DDE
:1004C000B11DD2CF1F920F920FB60F9211242F930E
:1004D0003F934F935F936F937F938F939F93AF93CC
:1004E000BF93EF93FF9389E691E00E941701FF917C
:1004F000EF91BF91AF919F918F917F916F915F919C
:100500004F913F912F910F900FBE0F901F90189514
:100510001F920F920FB60F9211242F938F939F93D8
:10052000EF93FF93E0917901F0917A018081E0915E
:100530007F01F091800182FD1BC09081809182013A
:100540008F5F8F7320918301821741F0E0918201C8
:10055000F0E0E759FE4F958F80938201FF91EF9174
:100560009F918F912F910F900FBE0F901F90189514
:100570008081F4CFCF93DF9300D000D000D0CDB7EF
:10058000DEB7789484B5826084BD84B5816084BD13
:1005900085B5826085BD85B5816085BD80916E0021
:1005A000816080936E001092810080918100826052
:1005B000809381008091810081608093810080918F
:1005C00080008160809380008091B100846080937E
:1005D000B1008091B00081608093B00080917A007A
:1005E000846080937A0080917A00826080937A00A0
:1005F00080917A00816080937A0080917A0080688F
:1006000080937A001092C1002AE131E0A2E1B1E0CA
:100610008D9190E0FC01E057FF4F449184589F4F2B
:10062000FC0184918823A1F090E0880F991FFC01C0
:10063000E859FF4F05911491FC01EE58FF4F859149
:1006400094918FB7F894F8019081942B90838FBF89
:100650002A173B07E9F6E0917901F0917A0182E0EF
:100660008083E0917501F09176011082E09177012D
:10067000F09178018FEC808310928101E0917D01EF
:10068000F0917E0186E08083E0917B01F0917C0116
:10069000808180618083E0917B01F0917C01808189
:1006A00088608083E0917B01F0917C01808180688B
:1006B0008083E0917B01F0917C0180818F7D80833C
:1006C00044244A9453E0552E612C712C8EE00E94F4
:1006D00087007C0183E10E9487005C0124E233E112
:1006E000D7010E942805A30192010E94C404690158
:1006F0007A01F4E6CF0ED11CE11CF11C2FE730E0AB
:10070000D5010E942805A30192010E94C404490159
:100710005A013A8329830D2C000CEE08FF08A7012B
:10072000960195E0220F331F441F551F9A95D1F76C
:1007300060E472E48FE090E00E94E3043C832B834A
:10074000220F331F220F331F190145E0241A3108ED
:100750002AE131E03E832D83ED81FE812191FE83EC
:10076000ED832058330B49815A81249FC001259F76
:10077000900D349F900D11246FE770E00E941405D6
:1007800060587F4FA2E1B1E030E020E077278D9103
:1007900090E0FC01EC55FF4F4491FC01E057FF4F06
:1007A0001491FC01E458FF4FE491EE2329F1442316
:1007B00059F0433009F495C008F088C0413009F47D
:1007C00096C0423009F497C0F0E0EE0FFF1FEE58DC
:1007D000FF4F459154910FB7F894CB01022E02C000
:1007E000959587950A94E2F7FA0180FD91C0808182
:1007F0001095182310830FBF2F5F3F4F283031050E
:1008000009F0C5CF2B813C812230310518F0C101A0
:100810000197F1F74AE351E02D813E8142175307DA
:1008200009F09ACF2FB7F8948091650190916601F5
:10083000A0916701B09168012FBF40915C01509178
:100840005D0160915E0170915F01841B950BA60BA9
:10085000B70B853F9140A105B10558F18AE391E0BE
:100860000E94A601F7FE57C0C701B6010E94F7011A
:1008700086E491E00E94A601B7FE53C0C501B40111
:100880000E94F70189E591E00E94A6012FB7F89434
:100890008091650190916601A0916701B091680116
:1008A0002FBF80935C0190935D01A0935E01B09394
:1008B0005F0140E050E0452B09F408CF0E9403019E
:1008C000882309F403CF0E94000000CF4730B1F025
:1008D0004830D1F0443009F077CF809180008F7D8F
:1008E00003C0809180008F77809380006DCF84B5A6
:1008F0008F7784BD69CF84B58F7DFBCF8091B000A9
:100900008F778093B00060CF8091B0008F7DF9CF5A
:100910008081182B6FCF4AE0C701B6010E94B30156
:10092000A7CF4AE0C501B4010E94B301ABCFE9E60D
:10093000F1E01382128288EE93E0A0E0B0E08483BD
:100940009583A683B78384E091E09183808385ECCF
:1009500090E09587848784EC90E09787868780EC89
:1009600090E0918B808B81EC90E0938B828B82EC7A
:1009700090E0958B848B86EC90E0978B868B118E24
:10098000128E138E148E0895052E97FB1EF400947C
:100990000E94DB0457FD07D00E94E30407FC03D04C
:1009A0004EF40C94DB0450954095309521953F4FC3
:1009B0004F4F5F4F089590958095709561957F4F4B
:1009C0008F4F9F4F0895A1E21A2EAA1BBB1BFD015A
:1009D0000DC0AA1FBB1FEE1FFF1FA217B307E4071E
:1009E000F50720F0A21BB30BE40BF50B661F771F76
:1009F000881F991F1A9469F7609570958095909556
:100A00009B01AC01BD01CF010895A29FB001B39F2E
:100A1000C001A39F700D811D1124911DB29F700D07
:100A2000811D1124911D089597FB072E16F4009443
:100A300007D077FD09D00E942F0507FC05D03EF4B2
:100A4000909581959F4F0895709561957F4F08957A
:100A50000E940505B7FF0895821B930B0895AA1BFA
:100A6000BB1B51E107C0AA1FBB1FA617B70710F099
:100A7000A61BB70B881F991F5A95A9F780959095CB
:100A8000BC01CD010895EE0FFF1F0590F491E02DFC
:100A90000994F894FFCF0000000039019900C600C6
:100AA0008601F700D500E9000203040506070809DE
:100AB0008099B1C7DAEAF5FCFFFCF5EADAC7B1992B
:100AC00080674F3926160B0400040B1626394F6732
:100AD0004672657175656E63793A200020487A2008
:100AE000202020416D706C69747564653A20000D9A
:020AF0000A00FA
:107E0000112484B714BE81FFF0D085E080938100F7
:107E100082E08093C00088E18093C10086E0809377
:107E2000C20080E18093C4008EE0C9D0259A86E02C
:107E300020E33CEF91E0309385002093840096BBD3
:107E4000B09BFECF1D9AA8958150A9F7CC24DD24C4
:107E500088248394B5E0AB2EA1E19A2EF3E0BF2EE7
:107E6000A2D0813461F49FD0082FAFD0023811F036
:107E7000013811F484E001C083E08DD089C08234E0
:107E800011F484E103C0853419F485E0A6D080C0E4
:107E9000853579F488D0E82EFF2485D0082F10E0AE
:107EA000102F00270E291F29000F111F8ED06801E7
:107EB0006FC0863521F484E090D080E0DECF843638
:107EC00009F040C070D06FD0082F6DD080E0C81688
:107ED00080E7D80618F4F601B7BEE895C0E0D1E017
:107EE00062D089930C17E1F7F0E0CF16F0E7DF06D8
:107EF00018F0F601B7BEE89568D007B600FCFDCFD4
:107F0000A601A0E0B1E02C9130E011968C91119780
:107F100090E0982F8827822B932B1296FA010C0160
:107F200087BEE89511244E5F5F4FF1E0A038BF0790
:107F300051F7F601A7BEE89507B600FCFDCF97BE46
:107F4000E89526C08437B1F42ED02DD0F82E2BD052
:107F50003CD0F601EF2C8F010F5F1F4F84911BD097
:107F6000EA94F801C1F70894C11CD11CFA94CF0C13
:107F7000D11C0EC0853739F428D08EE10CD085E9AC
:107F80000AD08FE07ACF813511F488E018D01DD067
:107F900080E101D065CF982F8091C00085FFFCCF94
:107FA0009093C60008958091C00087FFFCCF809118
:107FB000C00084FD01C0A8958091C6000895E0E648
:107FC000F0E098E1908380830895EDDF803219F02E
:107FD00088E0F5DFFFCF84E1DECF1F93182FE3DFCA
:107FE0001150E9F7F2DF1F91089580E0E8DFEE27F6
:047FF000FF270994CA
:027FFE00040479
:00000001FF
