:100000000C945D000C9485000C9485000C94850084
:100010000C9485000C9485000C9485000C9485004C
:100020000C9485000C9485000C9485000C9485003C
:100030000C9485000C9485000C9485000C9485002C
:100040000C94B4030C9485000C9424040C94FE03CB
:100050000C9485000C9485000C9485000C9485000C
:100060000C9485000C94850000000008000201003B
:100070000003040700000000000000000000000072
:10008000250028002B0000000000240027002A0083
:10009000040404040404040402020202020203032E
:1000A0000303030301020408102040800102040836
:1000B0001020010204081020560411241FBECFEFA7
:1000C000D8E0DEBFCDBF17E0A0E0B1E0E2E6FBE0A4
:1000D00002C005900D92A631B107D9F727E0A6E13D
:1000E000B7E001C01D92A63DB207E1F710E0CDE5F3
:1000F000D0E004C02197FE010E94A905CC35D107AC
:10010000C9F70E94A0040C94AF050C94000090E085
:10011000FC01EC55FF4F249180579F4FFC018491C7
:10012000882399F090E0880F991FFC01EA57FF4F50
:10013000A591B491FC01E458FF4F859194918FB73C
:10014000F894EC91E22BEC938FBF089590E0FC01C2
:10015000E859FF4F2491FC01EC55FF4F3491FC010D
:10016000E057FF4FE491EE23C9F0222339F023300A
:1001700001F1A8F4213019F1223029F1F0E0EE0F5D
:10018000FF1FE458FF4FA591B4918FB7F894EC91FD
:10019000611126C030953E233C938FBF08952730D0
:1001A000A9F02830C9F0243049F7809180008F7D74
:1001B00003C0809180008F7780938000DFCF84B56B
:1001C0008F7784BDDBCF84B58F7DFBCF8091B0006E
:1001D0008F778093B000D2CF8091B0008F7DF9CF20
:1001E0003E2BDACFAF92BF92CF92DF92EF92FF9287
:1001F0000F931F93CF93DF936C017B018B01040F4F
:10020000151FEB015E01AE18BF08C017D10759F0EA
:100210006991D601ED91FC910190F081E02DC6012C
:100220000995892B79F7C501DF91CF911F910F9126
:10023000FF90EF90DF90CF90BF90AF900895FC01BA
:10024000538D448D252F30E0842F90E0821B930B3B
:10025000541710F0CF96089501970895FC01918DE1
:10026000828D981761F0A28DAE0FBF2FB11D5D96E4
:100270008C91928D9F5F9F73928F90E008958FEF86
:100280009FEF0895FC01918D828D981731F0828D3A
:10029000E80FF11D858D90E008958FEF9FEF089591
:1002A000FC01918D228D892F90E0805C9F4F821BF5
:1002B00091098F739927089581E297E00E94500178
:1002C00021E0892B09F420E0822F089580E090E05E
:1002D000892B29F00E945C0181110C940000089583
:1002E000FC01A48DA80FB92FB11DA35ABF4F2C91AB
:1002F000848D90E001968F739927848FA689B789A2
:100300002C93A089B1898C91837080648C93938D98
:10031000848D981306C00288F389E02D80818F7D3B
:1003200080830895EF92FF920F931F93CF93DF93F3
:10033000EC0181E0888F9B8D8C8D98131AC0E88921
:10034000F989808185FF15C09FB7F894EE89FF89F0
:100350006083E889F98980818370806480839FBF8E
:1003600081E090E0DF91CF911F910F91FF90EF908E
:100370000895F62E0B8D10E00F5F1F4F0F7311279E
:10038000E02E8C8D8E110CC00FB607FCFACFE889D9
:10039000F989808185FFF5CFCE010E947001F1CFF0
:1003A000EB8DEC0FFD2FF11DE35AFF4FF0829FB74D
:1003B000F8940B8FEA89FB8980818062CFCFCF933D
:1003C000DF93EC01888D8823B9F0AA89BB89E8897D
:1003D000F9898C9185FD03C0808186FD0DC00FB623
:1003E00007FCF7CF8C9185FFF2CF808185FFEDCFA1
:1003F000CE010E947001E9CFDF91CF910895089559
:1004000090E080E008958F929F92AF92BF920F93F9
:100410001F93CF93DF93CDB7DEB7A1970FB6F894B4
:10042000DEBF0FBECDBF19A2423008F44AE08E01F4
:100430000F5D1F4F842E912CB12CA12CA50194018E
:100440000E948705E62FB901CA01EA3044F5E05D54
:10045000D801EE938D01232B242B252B79F790E0E7
:1004600080E0109769F0FD0101900020E9F73197D5
:10047000AF014A1B5B0BBD018EEB97E00E94F200BF
:10048000A1960FB6F894DEBF0FBECDBFDF91CF911E
:100490001F910F91BF90AF909F908F900895E95C4E
:1004A000D7CFCF93DF93EC0160E08E810E94A6004E
:1004B00061E08E810E94A60060E08E810E94A6000D
:1004C0008BE891E00197F1F7DF91CF910895CF92FA
:1004D000DF92EF92FF920F931F93CF93DF936C0104
:1004E0007C0187E0E80EF11CD0E0C0E0062F10E0B0
:1004F000B8010C2E02C0759567950A94E2F76170F9
:10050000F70181917F010E94A6002196C430D10598
:1005100079F7C601DF91CF911F910F91FF90EF9076
:10052000DF90CF900C945102CF92DF92EF92FF9226
:100530000F931F93CF93DF93EC01F62E642F8C81E2
:100540000E94A6008D818F3F19F060E00E94A600F6
:100550000F2D10E08F8584FF25C06E0187E0C80E47
:10056000D11CF12CE12CB8010E2C02C075956795B9
:100570000A94E2F76170F60181916F010E94A60072
:10058000FFEFEF1AFF0A88E0E816F10461F7CE01E9
:10059000DF91CF911F910F91FF90EF90DF90CF905F
:1005A0000C945102B80184E0759567958A95E1F73E
:1005B000CE010E9467026F2DCE01DF91CF911F9176
:1005C0000F91FF90EF90DF90CF900C94670240E086
:1005D000682F8EEB97E00C949402CF93DF938230D8
:1005E00029F49091CD0798609093CD078093D1071F
:1005F0001092D20780E48093D30780E18093D407E0
:1006000080E58093D5078091C2070E948700809182
:10061000C3078F3F11F00E9487008091C4070E949A
:100620008700CEEBD7E09E012E5B37408091CD074F
:1006300084FD0AC084E090E02196281739073CF435
:100640008E810E948700EFCF88E090E0F5CF8BE3AA
:100650009DE00197F1F760E08091C2070E94A6003B
:1006600060E08091C4070E94A6008091C3078F3F7D
:1006700019F060E00E94A6008091CD0784FD39C08A
:1006800063E08EEB97E00E946702CBE4D6E4CE01F4
:100690000197F1F763E08EEB97E00E9467022197E4
:1006A000F1F763E08EEB97E00E94670283E592E04A
:1006B0000197F1F762E08EEB97E00E94670280916C
:1006C000CD0780620E94E70284E08093CE078CE031
:1006D0000E94E70281E00E94E7028BE39FE101971D
:1006E000F1F782E08093CF0786E0DF91CF910C9401
:1006F000E70280620E94E7028BE496E40197F1F73B
:100700008091CD0780620E94E70283E592E0019725
:10071000F1F78091CD0780620E94E702D0CF41E0DF
:100720000E94940281E090E008950F931F93CF936D
:10073000DF93C7E0D0E0082F10E0B8010C2E02C014
:10074000759567950A94E2F761707727072E000C7C
:10075000880B990B4AE00E940302219770F7DF9102
:10076000CF911F910F9108951F920F920FB60F9284
:1007700011242F933F938F939F93AF93BF938091B7
:100780001D0790911E07A0911F07B091200730917F
:100790001C0723E0230F2D3758F50196A11DB11D2D
:1007A00020931C0780931D0790931E07A0931F079B
:1007B000B09320078091180790911907A0911A070C
:1007C000B0911B070196A11DB11D8093180790934E
:1007D0001907A0931A07B0931B07BF91AF919F9180
:1007E0008F913F912F910F900FBE0F901F901895F2
:1007F00026E8230F0296A11DB11DD2CF1F920F92A2
:100800000FB60F9211242F933F934F935F936F93E3
:100810007F938F939F93AF93BF93EF93FF9381E267
:1008200097E00E947001FF91EF91BF91AF919F916E
:100830008F917F916F915F914F913F912F910F9089
:100840000FBE0F901F9018951F920F920FB60F9228
:1008500011242F938F939F93EF93FF93E091310790
:10086000F09132078081E0913707F091380782FDDF
:100870001BC0908180913A078F5F8F7320913B0757
:10088000821741F0E0913A07F0E0EF5DF84F958F65
:1008900080933A07FF91EF919F918F912F910F9045
:1008A0000FBE0F901F9018958081F4CFE1E2F7E022
:1008B0001382128288EE93E0A0E0B0E084839583F7
:1008C000A683B78384EF96E09183808385EC90E0E4
:1008D0009587848784EC90E09787868780EC90E00A
:1008E000918B808B81EC90E0938B828B82EC90E0FB
:1008F000958B848B86EC90E0978B868B118E128E75
:10090000138E148EEEEBF7E01382128286E097E0EE
:100910009183808387E084838FEF858386E086835D
:1009200085E0878384E0808783E0818782E0828717
:100930001386148615861686178681E00C94ED02C0
:10094000789484B5826084BD84B5816084BD85B5AA
:10095000826085BD85B5816085BD80916E008160B6
:1009600080936E001092810080918100826080935C
:10097000810080918100816080938100809180005E
:100980008160809380008091B10084608093B10089
:100990008091B00081608093B00080917A00846083
:1009A00080937A0080917A00826080937A008091AF
:1009B0007A00816080937A0080917A0080688093C9
:1009C0007A001092C10082E00E94ED02E0913107AE
:1009D000F091320782E08083E0912D07F0912E079D
:1009E0001082E0912F07F091300780E18083109210
:1009F0003907E0913507F091360786E08083E09172
:100A00003307F0913407808180618083E091330760
:100A1000F0913407808188608083E0913307F09102
:100A20003407808180688083E0913307F091340738
:100A300080818F7D80830BE31FE1C0E0D0E0809157
:100A4000160790911707803F25E0920708F052C0E3
:100A500080509F4FFC01F08081E00E94E702C801B6
:100A60000197F1F7E1E08091D1078111E0E0E19594
:100A7000F0E0E254F84F848980680E94E70243E086
:100A800050E06EE077E08EEB97E00E94F2008F2D51
:100A90000E9495036F2D81E297E00E94920181E20E
:100AA00097E00E945001892BD1F381E297E00E94E8
:100AB0002E01F82EE091D107E23038F5E150F0E058
:100AC000E254F84F848980680E94E70243E050E0D6
:100AD00062E177E08EEB97E00E94F2008F2D0E949A
:100AE0009503809116079091170701969093170729
:100AF00080931607209709F4A2CF0E945C018823F7
:100B000009F49DCF0E9400009ACFE1E0D8CFA1E286
:100B10001A2EAA1BBB1BFD010DC0AA1FBB1FEE1F77
:100B2000FF1FA217B307E407F50720F0A21BB30BC2
:100B3000E40BF50B661F771F881F991F1A9469F73E
:100B400060957095809590959B01AC01BD01CF019A
:100B50000895EE0FFF1F0590F491E02D0994F8948D
:020B6000FFCFC5
:100B62005249464624B9010057415645666D7420E4
:100B7200100000000100020044AC0000885801008F
:100B8200020008006461746100B901007F7F7F7F09
:100B92007F7F7F7F7F7F7F7F7F7F7F7F7F7F7F7F63
:100BA2007F7F7F7F7F7F7F7F7F7F7F7F7F7F7F7F53
:100BB2007F7F7F7F7F7F7F7F7F7F7F7F7F7F7F7F43
:100BC2007F7F7F7F7F7F7F7F7F7F7F7F7F7F7F7F33
:100BD2007F7F7F7F7F7F7F7F7F7F7F7F7F7F7F7F23
:100BE2007F7F7F7F7F7F7F7F7F7F7F7F7F7F7F7F13
:100BF2007F7F7F7F7F7F7F7F7F7F7F7F7F7F7F7F03
:100C02007F7F7F7F7F7F7F7F7F7F7F7F7F7F7F7FF2
:100C12007F7F7F7F7F7F7F7F7F7F7F7F7F7F7F7FE2
:100C22007F7F7F7F7F7F7F7F7F7F7F7F7F7F7F7FD2
:100C32007F7F7F7F7F7F7F7F7F7F7F7F7F7F7F7FC2
:100C42007F7F7F7F7F7F7F7F7F7F7F7F7F7F7F7FB2
:100C52007F7F7F7F7F7F7F7F7F7F7F7F7F7F7F7FA2
:100C62007F7F7F7F7F7F7F7F7F7F7F7F7F7F7F7F92
:100C72007F7F7F7F7F7F7F7F7F7F7F7F7F7F7F7F82
:100C82007F7F7F7F7F7F7F7F7F7F7F7F7F7F7F7F72
:100C92007F7F7F7F7F7F7F7F7F7F7F7F7F7F7F7F62
:100CA2007F7F7F7F7F7F7F7F7F7F7F7F7F7F7F7F52
:100CB2007F7F7F7F7F7F7F7F7F7F7F7F7F7F7F7F42
:100CC2007F7F7F7F7F7F7F7F7F7F7F7F7F7F7F7F32
:100CD2007F7F7F7F7F7F7F7F7F7F7F7F7F7F7F7F22
:100CE2007F7F7F7F7F7F7F7F7F7F7F7F7F7F7F7F12
:100CF2007F7F7F7F7F7F7F7F7F7F7F7F7F7F7F7F02
:100D02007F7F7F7F7F7F7F7F7F7F7F7F7F7F7F7FF1
:100D1200878787878B8B8B8B8E8E8E8E9090909011
:100D22009292929293939393949494949595959589
:100D32009696969697979797979797979898989841
:100D42009898989899999999999999999A9A9A9A11
:100D52009A9A9A9A9B9B9B9B9B9B9B9B9C9C9C9CE1
:100D62009C9C9C9C9C9C9C9C9D9D9D9D9D9D9D9DB9
:100D72009D9D9D9D9D9D9D9D9D9D9D9D9D9D9D9DA1
:100D82009D9D9D9D9D9D9D9D9D9D9D9D9D9D9D9D91
:100D92009D9D9D9D9D9D9D9D9C9C9D9D9C9C9C9C87
:100DA2009C9C9C9C9B9B9B9B9A9A9A9A9999999999
:100DB2009898989896969696939393938E8E8E8EF5
:100DC20085858585777777776F6F6F6F6A6A6A6ACD
:100DD20067676767646464646262626261616161D9
:100DE20060605F5F5F5F5E5E5E5E5D5D5D5D5D5D1F
:100DF2005C5C5C5C5B5B5B5B5B5B5B5B5A5A5A5A41
:100E02005959595959595959585858585858585858
:100E12005858575757575757575757575656565662
:100E22005656565656565656565656565656565660
:100E32005656565656565656565656565656565650
:100E42005656565657575656575757575757575736
:100E52005858585858585858595959595A5A5A5A04
:100E62005B5B5B5B5D5D5D5D606060606363636394
:100E720069696969727272728484848491919191B0
:100E8200999999999E9E9E9EA1A1A1A1A4A4A4A470
:100E9200A6A6A6A6A7A7A8A8A9A9A9A9AAAAAAAACE
:100EA200ABABABABACACACACADADADADAEAEAEAE78
:100EB200AEAEAFAFAFAFAFAFB0B0B0B0B0B0B0B03A
:100EC200B1B1B1B1B1B1B2B2B2B2B2B2B2B2B3B304
:100ED200B3B3B3B3B3B3B3B3B3B3B3B3B3B3B3B3E0
:100EE200B3B3B3B3B3B3B3B3B3B3B3B3B3B3B3B3D0
:100EF200B3B3B3B3B2B2B2B2B2B2B2B2B2B2B2B2CC
:100F0200B1B1B1B1B0B0B1B1B0B0B0B0AFAFAFAFDD
:100F1200AEAEAEAEACACACACAAAAAAAAA7A7A7A723
:100F2200A3A3A3A39D9D9D9D939393938080808073
:100F32006C6C6C6C616161615B5B5A5A56565656B9
:100F420052525252505050504E4E4E4E4C4C4C4CAF
:100F52004A4A4A4A49494949484848484747474707
:100F62004646464645454545444444444444444433
:100F7200434343434242424242424242414141414F
:100F8200414140404040404040404040404040405D
:100F9200404040404040404040404040404040404F
:100FA2004040404041414040414141414141414135
:100FB2004242424242424242434343434444444403
:100FC2004545454547474747494948484B4B4B4BA1
:100FD2004E4E4E4E53535353595959596464646497
:100FE2007777777791919191A0A0A0A0A9A9A9A9BB
:100FF200AFAFAFAFB3B3B3B3B7B7B7B7B9B9B9B9A7
:10100200BBBBBBBBBDBDBDBDBFBFBFBFC0C0C0C002
:10101200C1C1C1C1C2C2C2C2C3C3C4C4C4C4C4C4A4
:10102200C5C5C5C5C6C6C6C6C6C6C7C7C7C7C7C75C
:10103200C8C8C8C8C9C9C9C9C9C9C9C9CACACACA1E
:10104200CACACACAC9C9C9C9C9C9C9C9C9C9C9C90A
:10105200C9C9C9C9C9C9C9C9C8C8C8C8C8C8C8C806
:10106200C7C7C8C8C7C7C7C7C6C6C6C6C5C5C5C518
:10107200C4C4C4C4C3C3C3C3C1C1C1C1BFBFBFBF52
:10108200BDBDBDBDB9B9B9B9B4B4B4B4ADADADAD02
:10109200A2A2A2A28F8F8F8F6F6F6F6F5C5C5C5C5E
:1010A2005050505049494949434343433F3F3F3FD2
:1010B2003C3C3C3C3A3A3A3A3737373736363636A2
:1010C2003434343433333232313131313030303000
:1010D2002F2F2F2F2E2E2E2E2E2E2D2D2D2D2C2C32
:1010E2002C2C2C2C2B2B2B2B2B2B2A2A2A2A2A2A50
:1010F2002929292929292929292929292A2A2A2A5A
:101102002A2A2A2A2A2A2A2A2A2A2A2A2B2B2B2B39
:101112002B2B2B2B2C2C2C2C2D2D2C2C2D2D2D2D0B
:101122002E2E2E2E30302F2F3131313133333333B7
:1011320035353535383838383C3C3C3C4141414105
:101142004949494954545454676767678B8B8B8B61
:10115200000000009201F2001F01DF0150012E0188
:101162004201000000008F03F2000002FF01545808
:061172003A0052583A0059
:00000001FF
