:020000040000FA
:100000000C94A0030C94C8030C94C8030C94C8036C
:100010000C94C8030C94C8030C94C8030C94C80334
:100020000C94C8030C94C8030C94C8030C94C80324
:100030000C94C8030C94C8030C94C8030C94C80314
:100040000C94A7100C94C8030C94C8030C94C80318
:100050000C94C8030C94C8030C94C8030C94C803F4
:100060000C94F1100C94C80307634236B79BD8A7D1
:100070001A39685618AEBAAB558C1D3CB7CC5763CD
:10008000BD6DEDFD753EF6177231BF000000803F7B
:1000900008000000BE922449123EABAAAA2ABECD97
:1000A000CCCC4C3E00000080BEABAAAAAA3E000009
:1000B0000000BF000000803F000000000008417801
:1000C000D3BB4387D1133D190E3CC3BD4282AD2B38
:1000D0003E68EC8276BED98FE1A93E4C80EFFFBE30
:1000E00001C4FF7F3F000000000000407A10F35A77
:1000F00000A0724E18090010A5D4E80000E8764868
:10010000170000E40B54020000CA9A3B000000E113
:10011000F505000080969800000040420F000000A6
:10012000A08601000000102700000000E803000086
:1001300000006400000000000A0000000000010050
:10014000000000002C76D888DC674F0823DFC1DF71
:10015000AE59E1B1B796E5E3E453C63AE651997674
:1001600096E8E6C28426EB898C9B62ED407C6FFCAE
:10017000EFBC9C9F40F2BAA56FA5F490055A2AF7F0
:100180005C936B6CF9676DC11BFCE0E40D47FEF5F9
:1001900020E6B500D0ED902E030094357705008061
:1001A000841E080000204E0A000000C80C333333C0
:1001B000330F986E12831141EF8D2114893BE65560
:1001C00016CFFEE6DB18D1844B381BF77C1D901D43
:1001D000A4BBE424203284725E228100C9F124ECA5
:1001E000A1E53D2700000000003E5B4F5B3E3E6BFB
:1001F0004F6B3E1C3E7C3E1C183C7E3C181C577DC1
:10020000571C1C5E7F5E1C00183C1800FFE7C3E70C
:10021000FF0018241800FFE7DBE7FF30483A060E1E
:100220002629792926407F050507407F05253F5A65
:100230003CE73C5A7F3E1C1C08081C1C3E7F1422D5
:100240007F22145F5F005F5F06097F017F00668980
:10025000956A606060606094A2FFA29408047E04C6
:100260000810207E201008082A1C08081C2A0808EC
:100270001E101010100C1E0C1E0C30383E383006AC
:100280000E3E0E06000000000000005F00000007A8
:10029000000700147F147F14242A7F2A12231308D6
:1002A000646236495620500008070300001C2241B2
:1002B000000041221C002A1C7F1C2A08083E080856
:1002C0000080703000080808080800006060002006
:1002D000100804023E5149453E00427F40007249E9
:1002E0004949462141494D331814127F102745458D
:1002F00045393C4A494931412111090736494949A3
:1003000036464949291E0000140000004034000010
:100310000008142241141414141400412214080279
:10032000015909063E415D594E7C1211127C7F49EC
:100330004949363E414141227F4141413E7F494941
:1003400049417F090909013E414151737F0808086D
:100350007F00417F41002040413F017F081422413E
:100360007F404040407F021C027F7F0408107F3E98
:100370004141413E7F090909063E4151215E7F0905
:10038000192946264949493203017F01033F40406C
:10039000403F1F2040201F3F4038403F6314081457
:1003A0006303047804036159494D43007F4141418F
:1003B0000204081020004141417F04020102044070
:1003C00040404040000307080020545478407F28F4
:1003D0004444383844444428384444287F385454EA
:1003E000541800087E090218A4A49C787F0804040D
:1003F0007800447D40002040403D007F10284400AC
:1004000000417F40007C047804787C08040478383C
:1004100044444438FC1824241818242418FC7C086C
:10042000040408485454542404043F44243C4040E9
:10043000207C1C2040201C3C4030403C442810289C
:10044000444C9090907C4464544C440008364100E5
:100450000000770000004136080002010204023C5F
:100460002623263C1EA1A161123A4040207A38542E
:1004700054555921555579412254547842215554A7
:10048000784020545579400C1E52721239555555FA
:1004900059395454545939555454580000457C41E5
:1004A0000002457D420001457C407D1211127DF025
:1004B000282528F07C545545002054547C547C0A4F
:1004C000097F4932494949323A4444443A324A4818
:1004D00048303A4141217A3A42402078009DA0A01C
:1004E0007D3D4242423D3D4040403D3C24FF24246E
:1004F000487E4943662B2FFC2F2BFF0929F620C08D
:10050000887E090320545479410000447D413048DD
:10051000484A32384040227A007A0A0A727D0D1920
:10052000317D2629292F28262929292630484D4082
:1005300020380808080808080808382F10C8ACBA7E
:100540002F102834FA00007B000008142A142222FD
:10055000142A14085500550055AA55AA55AAFF5546
:10056000FF55FF000000FF00101010FF00141414CE
:10057000FF001010FF00FF1010F010F0141414FC16
:10058000001414F700FF0000FF00FF1414F404FC33
:10059000141417101F10101F101F1414141F001014
:1005A0001010F0000000001F101010101F1010108D
:1005B00010F010000000FF1010101010101010109C
:1005C000FF10000000FF140000FF00FF00001F10DC
:1005D000170000FC04F414141710171414F404F496
:1005E0000000FF00F714141414141414F700F71487
:1005F0001414171410101F101F141414F4141010D6
:10060000F010F000001F101F0000001F1400000079
:10061000FC140000F010F01010FF10FF141414FF71
:10062000141010101F00000000F010FFFFFFFFFF6C
:10063000F0F0F0F0F0FFFFFF0000000000FFFF0F00
:100640000F0F0F0F3844443844FC4A4A4A347E02A4
:10065000020606027E027E02635549416338444425
:100660003C04407E201E2006027E020299A5E7A5DA
:10067000991C2A492A1C4C7201724C304A4D4D304B
:100680003048784830BC625A463D3E494949007E70
:100690000101017E2A2A2A2A2A44445F4444405107
:1006A0004A444040444A51400000FF0103E080FFBB
:1006B000000008086B6B083612362436060F090F47
:1006C00006000018180000001010003040FF010163
:1006D000001F01011E00191D1712003C3C3C3C008C
:1006E0000000000000000000240027002A00000095
:1006F00000080002010000030407000000000000E1
:100700000000000000002300260029000102040868
:10071000102040800102040810200102040810206B
:1007200000000000250028002B0004040404040439
:1007300004040202020202020303030303030C1275
:1007400011241FBECFEFD8E0DEBFCDBF13E0A0E085
:10075000B1E0E2E7F0E402C005900D92A239B107E2
:10076000D9F726E0A2E9B3E001C01D92AB31B20790
:10077000E1F713E0C0EAD3E004C02197FE010E9434
:10078000F71ECF39D107C9F70E940F130C943720F9
:100790000C940000FC0120812EBD0DB407FEFDCF9E
:1007A0002EB5FC012083089596E0899FD001112485
:1007B000AF57BA4F90967C936E935F9791E0919666
:1007C0009C939197E091EE05F091EF059091ED05E6
:1007D000992339F0309751F0811108C080919D051F
:1007E0000994309719F05C968C91FACF0895CF92C6
:1007F000DF92EF92FF920F931F9396E0899FF00193
:100800001124EF57FA4F11A2278D30A12130310565
:1008100051F178F02230310509F451C0233031050F
:1008200009F452C01F910F91FF90EF90DF90CF908D
:1008300008956623B9F361E070E00E94D4032FB7F6
:10084000F89480917D0590917E05A0917F05B091EF
:1008500080052FBF8093D9059093DA05A093DB051F
:10086000B093DC05DFCF9FB7F894C0907D05D090A2
:100870007E05E0907F05F09080059FBF0091D9052F
:100880001091DA052091DB053091DC05C01AD10A00
:10089000E20AF30A0091EB051091EC0530E020E04C
:1008A0000C151D052E053F0550F462E070E01F9108
:1008B0000F91FF90EF90DF90CF900C94D4036111D3
:1008C000B1CF63E070E0F3CF70E060E0F0CF833051
:1008D00081F028F4813099F08230A9F008958730B2
:1008E000A9F08830C9F08430B1F4809180008F7D08
:1008F00003C0809180008F7780938000089584B535
:100900008F7784BD089584B58F7DFBCF8091B00033
:100910008F778093B00008958091B0008F7DF9CFDC
:10092000CF93DF93282F30E0F901E251F94F849102
:10093000F901E45FF84FD491F901E65DF84FC491F5
:10094000CC23A1F081110E946704EC2FF0E0EE0FA0
:10095000FF1FEE5FF84FA591B491EC91ED2381E07C
:1009600090E009F480E0DF91CF91089580E090E07D
:10097000FACF1F93CF93DF93282F30E0F901E25194
:10098000F94F8491F901E45FF84FD491F901E65DE4
:10099000F84FC491CC23A9F0162F81110E9467044F
:1009A000EC2FF0E0EE0FFF1FE05EF84FA591B49141
:1009B0008FB7F894EC91111108C0D095DE23DC9329
:1009C0008FBFDF91CF911F910895DE2BF8CFCF938A
:1009D000DF9390E0FC01E45FF84F2491865D984F2F
:1009E000FC0184918823C9F090E0880F991FFC01D5
:1009F000EC51F94FA591B491FC01E05EF84FC5911F
:100A0000D49161110DC09FB7F8948C9120958223E9
:100A10008C938881282328839FBFDF91CF910895ED
:100A2000623051F49FB7F8943C91822F80958323D4
:100A30008C93E8812E2BEFCF8FB7F894EC912E2B6F
:100A40002C938FBFEACF8230910538F0880F991F21
:100A5000880F991F05970197F1F708959F92AF921C
:100A6000BF92CF92DF92EF92FF920F931F93CF939B
:100A7000DF93EC015B018885998511E0892B09F0F2
:100A800010E8F501E0808E2D812399249394811143
:100A9000912C2C813D814E815F8160E271EA87E07B
:100AA00090E00E94C11E022FF12CC22ED12C0023F7
:100AB00019F0C6010E9423058A85982F977F09F0B7
:100AC0004FC08D858F3F89F09E2D912381E009F4E1
:100AD00080E0891551F0EF85F8898F899923D1F14C
:100AE0009081892B808399249394E989FA89808164
:100AF000998D892B8083002319F0C6010E9423055C
:100B00008E858F3F39F0EB89FC898081988D892310
:100B100009F0F12AE989FA899081898D80958923E4
:100B2000808388859985892B09F073C0110F111175
:100B3000BECF8E858F3F11F0F501F082DF91CF910E
:100B40001F910F91FF90EF90DF90CF90BF90AF90EB
:100B50009F9008959081809589238083912CC5CFA3
:100B60008C30A1F58D858F3F49F0EF85F8898F890D
:100B70009E2D912339F19081892B8083E989FA890F
:100B80009081898D809589238083002319F0C60187
:100B90000E942305E989FA898081998D892B8083B8
:100BA000002319F0C6010E9423058E858F3F09F4AA
:100BB000B8CFEB89FC898081988D892309F4B1CF66
:100BC000F12AAFCF908180958923D7CFE989FA891F
:100BD0008081998D892B8083002319F0C6010E94A2
:100BE00023058D858F3F49F0EF85F8898F899E2DEC
:100BF000912359F09081892B8083E989FA8990812A
:100C0000898D809589238083D0CF90818095892399
:100C1000F3CF16958CCFAF92BF92CF92DF92EF9227
:100C2000FF920F931F93CF93DF931F92CDB7DEB741
:100C30008C015B016A01DC018D919C911197892BDC
:100C400039F01296ED91FC91908181819CBD8DBD12
:100C5000F80183858F3F19F060E00E94B9047501A7
:100C6000CA0CDB1CCE14DF04A9F0D7018D917D01E5
:100C70008983F80180819181892B29F0CE01019629
:100C80000E94CA03EFCFBE016F5F7F4FC8010E9471
:100C90002E05E8CFD8011B968C918F3F19F061E0AB
:100CA0000E94B90481E00F90DF91CF911F910F91C5
:100CB000FF90EF90DF90CF90BF90AF9008953FB737
:100CC000F8948091790590917A05A0917B05B09177
:100CD0007C0526B5A89B05C02F3F19F00196A11DE4
:100CE000B11D3FBFBA2FA92F982F8827BC01CD0176
:100CF000620F711D811D911D42E0660F771F881FD5
:100D0000991F4A95D1F708958F929F92AF92BF9203
:100D1000CF92DF92EF92FF924B015C010E945F063F
:100D20006B017C010E945F066C197D098E099F0989
:100D3000683E734081059105A8F321E0821A91086D
:100D4000A108B10888EEC80E83E0D81EE11CF11C92
:100D500081149104A104B10429F7FF90EF90DF9072
:100D6000CF90BF90AF909F908F900895862F642F63
:100D70000C94E704862F642F0C94B904862F0C94EE
:100D80009004AF92BF92CF92DF92EF92FF920F93B7
:100D90001F93CF93DF936C017B018B01040F151F11
:100DA000EB015E01AE18BF08C017D10759F0699179
:100DB000D601ED91FC910190F081E02DC6010995DD
:100DC000892B79F7C501DF91CF911F910F91FF908A
:100DD000EF90DF90CF90BF90AF9008950F931F9347
:100DE000CF93DF931F92CDB7DEB78C01698360E0AC
:100DF000FC01868D0E94B90441E050E0BE016F5FA6
:100E00007F4FF801838D948D0E940B060F90DF9128
:100E1000CF911F910F910895CF93C82F87FDCFE7F2
:100E2000C0930F0661E280EF95E00E94EE066C2F02
:100E3000606880EF95E00E94EE0660E280EF95E04A
:100E4000CF910C94EE06CF9380910D0687FD13C0D1
:100E500061E00E94E70460E080910D060E94B90401
:100E600061E070E080E090E00E94840661E08091A3
:100E70000D060E94B904C0911006C83008F0C7E002
:100E8000C093100661E280EF95E00E94EE066C2FA1
:100E9000606180EF95E00E94EE0660E280EF95E0F1
:100EA0000E94EE0680910F060E940C0760E280EF20
:100EB00095E00E94EE066CE080EF95E0CF910C94F7
:100EC000EE06FF920F931F93CF93DF93909111063D
:100ED000992339F0809112068F5F8917E8F5809386
:100EE0001206D0911506D695D695D69584E5D89F4D
:100EF00080011124809116068695869586958D171A
:100F000080F16D2F606480EF95E00E94EE06C09145
:100F10001306F09014066C2F606880EF95E00E9435
:100F2000EE0661E080910E060E94B9044F2D50E05C
:100F30006C2F70E0461B570B4F5F5F4F600F711FA8
:100F400060507F4F80910B0690910C060E940B061B
:100F5000DF5F0C5A1F4FCECF109212060E9423075C
:100F6000C0CF60E480EF95E00E94EE0683E58093B9
:100F70001306109214068FE280931506109216063F
:100F8000DF91CF911F910F91FF9008951F93CF9301
:100F9000DF93EC01162F60E20E94EE066CE0111167
:100FA0006DE0CE01DF91CF911F910C94EE06FC0114
:100FB00077FD55C080859185681779070CF04FC083
:100FC00057FD4DC082859385481759070CF047C0DF
:100FD0008689823009F444C0833009F44EC08130E0
:100FE00031F48FE290E0861B970BBA01AC01842F9D
:100FF000A62F93A1691708F4962F93A394A19A178B
:1010000008F49A2F94A395A1891708F4982F95A313
:1010100096A1981708F4982F96A3CA0157FD079632
:10102000E3E095958795EA95E1F7A4E5A89FF0019F
:10103000A99FF00D1124E60FF71FE050FF4FCA01E2
:1010400068E070E00E94AD1E41E050E001C0440F36
:101050008A95EAF78081232BB9F0842B8083089549
:1010600083E590E0DC01A61BB70BBD018FE290E0A9
:10107000DC01A41BB50BAD01BACF83E590E0841B66
:10108000950BAB01BC01B3CF40958423E7CF2091F2
:101090000B04260F3327331F21323105ECF4209146
:1010A0002F04FC0190E080E0243069F082E0089594
:1010B000A0910B042191AC0145515C4FA40FB52FB9
:1010C000B11D2C930196861798F380910B04680F3D
:1010D00060930B0480E0089581E0089508958FEFF8
:1010E0009FEF08958FEF9FEF08958091E40390E0C4
:1010F0009195819591090895CF93DF93CB01EA01F2
:10110000642F0E944708CE01DF91CF910895CF93BD
:10111000DF931F92CDB7DEB7698361E0CE01019600
:101120000E94470881E090E00F90DF91CF910895F1
:101130000895FC016370668B8481958126813781D7
:10114000613039F0633029F09187808733872287B7
:101150000895318720879387828708952F923F9241
:101160004F925F926F927F928F929F92AF92BF92B7
:10117000CF92DF92EF92FF920F931F93CF93DF9363
:10118000CDB7DEB76A970FB6F894DEBF0FBECDBFFE
:101190009A8F898F7A8369834A01D22E18870F83A9
:1011A0003701BC2CDC0159962D913C915A972115A1
:1011B000310509F015C118968D919C911997681702
:1011C00079070CF0D7C11A968D919C914817590751
:1011D0000CF0D0C14C2C512CB6E0CB9E600D711D93
:1011E00011247C876B87161617060CF0C3C1EA2DF5
:1011F000F0E0FA87E98793E0EE0FFF1F9A95E1F799
:10120000F88BEF87CF01840F951F181619060CF085
:10121000B1C1A98DBA8D58968C91811104C0BFEAD5
:10122000BD1508F4D394A98DBA8DED91FC91119759
:101230000284F385E02DCD010995B5E0DB9EC00168
:101240001124E981FA81FC83EB83312C212C9C0150
:101250002C513E4F388F2F8B4A2D50E05E8B4D8B9B
:10126000EF89F88DE20DF31D44919E828D82D12C81
:10127000C12C69817A81620D731D7A8B698B842FF1
:1012800090E09C8B8B8BE98DFA8DA081B18140FF22
:1012900082C0F1E0BF126FC0AF126DC01C96ED911D
:1012A000FC912F813885A4014C0D5D1D69897A89D7
:1012B000898D9A8D0995EB89FC89F595E7954E2FD7
:1012C0005FEFC51AD50A6D817E818D899E89680F71
:1012D000791F7E836D8398E0C916D10481F6AFEF44
:1012E0002A1A3A0AEB81FC81E40DF51DFC83EB839D
:1012F000F5E02F16310409F0B3CF2F81388526157C
:101300003705B9F0A98DBA8DED91FC91B1E0BB1212
:1013100057C0AB1255C069817A816B5F7F4F0088DF
:10132000F189E02D830128E030E0A401898D9A8DB8
:101330000995A98DBA8DED91FC9111970688F789D1
:10134000E02DCD016A960FB6F894DEBF0FBECDBF7B
:10135000DF91CF911F910F91FF90EF90DF90CF9091
:10136000BF90AF909F908F907F906F905F904F90C5
:101370003F902F9009941E96ED91FC91EF80F88498
:1013800009851A8592014D815E816B817C81898DF1
:101390009A8D099590CF2F8138852615370509F448
:1013A0008ACF31E0B31207C0A31205C01C96ED919D
:1013B000FC91930178CF1E96ED91FC917301E0CFE3
:1013C0006B857C85641975090684F785E02D7301AA
:1013D0000F8518899201A401898D9A8D0995A9CF4D
:1013E000F90134969491329745915491D91AB7E006
:1013F000DB9E400D511D1124F901259134913C8B48
:101400002B8BFA0125903490FA0132967490319624
:101410003491398B329664903196449041E04C156A
:1014200018F04A1508F07FC0662D062C000C770BCB
:101430007C836B83842D042C000C990B9E838D83FD
:10144000A98DBA8DED91FC9111970284F385E02D61
:10145000CD010995512CD12CC12CEA2DF0E0FA8751
:10146000E9872B2D30E03C872B87A401440D511DCB
:1014700047FC5A95588F4F8B69817A81660D711D93
:1014800067FC7A957E876D877989C71608F051CFFA
:101490002C2D30E04D815E81420F531FA985BA8506
:1014A0004A9FC0014B9F900D5A9F900D1124FC0143
:1014B000E80DF91DF88BEF87852D612C4F89588D2C
:1014C000420F531F5E8B4D8B671408F050C04424AD
:1014D0004394480E877041F4C1010196EB89FC8961
:1014E000E20DF31DD4901C01D7FE19C0A98DBA8D51
:1014F000ED91FC91662D70E0B1E0BB1219C0AB120A
:1015000017C02D853E85620F731F0484F585E02D7D
:101510002F8138854D895E89898D9A8D0995DD0CDD
:101520006394842DD1CF1E821D821C821B8288CFA2
:101530004B815C81640F751FAB85BC856A9FC001C0
:101540006B9F900D7A9F900D112469817A81680FAD
:10155000791F0684F785E02DEF80F88409851A85C8
:101560009D014F855889898D9A8D0995D8CF570C43
:10157000C3948ACF6A960FB6F894DEBF0FBECDBF74
:10158000DF91CF911F910F91FF90EF90DF90CF905F
:10159000BF90AF909F908F907F906F905F904F9093
:1015A0003F902F9008958F929F92AF92CF92EF929B
:1015B000FF920F931F93CF93DF93EC01262F898D1A
:1015C0009A8D009709F051C06A30D1F41D861C86AF
:1015D0008D8948E0849F900111248E859F85820F1C
:1015E000931F9F878E8781E090E0DF91CF911F91BD
:1015F0000F91FF90EF90CF90AF909F908F900895B4
:101600006D3089F3CC88AD888F898823C1F08C85B3
:101610009D8536E0C39E800D911D11244885598516
:101620004817590764F44E855F851D861C8638E08F
:10163000A39EC0011124840F951F9F878E87EA887F
:10164000FB88088919894E855F856C857D85CE016B
:101650000E94AE082C898C859D8546E0249F800DD4
:10166000911D11249D878C87BECF6A3069F41D8639
:101670001C86FC013896E4912D898E859F85E29F1A
:10168000800D911D1124ADCF6D3009F4ACCFFC015C
:1016900034963491631708F4A6CF3296E491E61796
:1016A00008F4A1CFFC01329685909490462F431BFD
:1016B000342F47E0349F800C911C1124F4013296A2
:1016C00034913196E4913323A9F1EE2399F1CC883A
:1016D000F4013596E491AD884F89442301F10E2E33
:1016E000000CFF0BE30FF11DCE9EA001CF9E500D0D
:1016F00011246C857D85460F571F68857985641791
:1017000075076CF44E855F851D861C86FC01389636
:10171000E491AE9E400D511D11245F874E87EA88EB
:10172000FB88088919894E855F856C857D85CE018A
:101730000E94AE08F4013496E4912C898C859D8535
:10174000E29F800D911D11248DCF6F927F928F9219
:101750009F92AF92BF92CF92DF92EF92FF920F9340
:101760001F93CF93DF93EC016B015A0139014801BC
:10177000E881F9810284F385E02D0995E881F981FA
:101780000288F389E02D87019301A501B601CE01FE
:101790000995A501480D591D41505109E881F9816C
:1017A0000288F389E02D9301B601CE010995E88105
:1017B000F9810088F189E02D9401A501B601CE01DF
:1017C0000995C60CD71CB60161507109E881F981F1
:1017D0000088F189E02D9401A501CE010995E881E9
:1017E000F9810688F789E02DCE01DF91CF911F9115
:1017F0000F91FF90EF90DF90CF90BF90AF909F90B0
:101800008F907F906F9009946F927F928F929F92AA
:10181000AF92BF92CF92DF92EF92FF920F931F93FE
:10182000CF93DF935C01EB016A0149013801870125
:10183000DC01ED91FC916217730719F564167506CA
:101840002CF0962D872D3A01C92ED82E96012619F7
:1018500037092F5F3F4F048CF58DE02DA301BE01AA
:10186000C5010995DF91CF911F910F91FF90EF90E6
:10187000DF90CF90BF90AF909F908F907F906F90B0
:1018800008954615570591F42617370724F0892D3A
:101890004B01C22FD82F9E01281939092F5F3F4FC6
:1018A000068CF78DE02DA601B401DACF0284F38512
:1018B000E02D0995D501ED91FC910488F589E02D85
:1018C00083019401A601BE01C5010995D501ED91E1
:1018D000FC910688F789E02DC501DF91CF911F911A
:1018E0000F91FF90EF90DF90CF90BF90AF909F90BF
:1018F0008F907F906F900994EF92FF920F931F93B8
:10190000DC011A960D911C911B9718962D913C9114
:101910001997ED91FC9100A0F1A1E02D7B0150E021
:1019200040E070E060E009951F910F91FF90EF900B
:1019300008954F925F926F927F928F929F92AF9293
:10194000BF92CF92DF92EF92FF920F931F93CF93AC
:10195000DF936C012B015A0139014801DC01ED9143
:10196000FC910284F385E02D0995E201640C751C5D
:10197000D601ED91FC91C615D7055CF40088F1897C
:10198000E02D87019401A501BE01C60109952196AC
:10199000EFCF0688F789E02DC601DF91CF911F9127
:1019A0000F91FF90EF90DF90CF90BF90AF909F90FE
:1019B0008F907F906F905F904F9009948F929F923D
:1019C000AF92BF92CF92DF92EF92FF920F931F934D
:1019D000CF93DF93EC015B014A016901E881F98152
:1019E0000284F385E02D099595012C0D3D1D2150B4
:1019F0003109E881F9810488F589E02D78018401B5
:101A0000A401B501CE010995E881F9810688F7891D
:101A1000E02DCE01DF91CF911F910F91FF90EF90BC
:101A2000DF90CF90BF90AF909F908F9009948F924E
:101A30009F92AF92BF92CF92DF92EF92FF920F935D
:101A40001F93CF93DF93EC015B014A016901780199
:101A5000E881F9810284F385E02D0995C80CD91C31
:101A6000860101501109E881F9810488F589E02D8A
:101A70009501A401B501CE010995E881F981068897
:101A8000F789E02DCE01DF91CF911F910F91FF904B
:101A9000EF90DF90CF90BF90AF909F908F90099480
:101AA000EF92FF920F931F93DC01ED91FC9100A048
:101AB000F1A1E02D09951F910F91FF90EF900895EE
:101AC0000F931F93DC01ED91FC91068CF78DE02DB7
:101AD00009951F910F9108950F931F93DC01ED91CC
:101AE000FC91048CF58DE02D09951F910F910895BF
:101AF000DC01ED91FC910084F185E02D09942F9299
:101B00003F924F925F926F927F928F929F92AF928D
:101B1000BF92CF92DF92EF92FF920F931F93CF93DA
:101B2000DF9300D000D000D0CDB7DEB73C016A0112
:101B30003E832D83FC82EB825801A41AB50AB7FEBE
:101B400003C0B194A194B1088D809E80861A970A33
:101B500097FE03C09194819491088A149B045CF0D1
:101B6000902F812F0D811E819D838E839C2D8D2D25
:101B70006B01692F782F0C151D055CF09D818E81FE
:101B80007E836D83692F782F902F812F8601C92E38
:101B9000D82E1601201A310A2B012D813E81421ABE
:101BA000530A57FE03C0519441945108710137FE06
:101BB00003C03FEFE31AF30AF594E7948D819E8109
:101BC000861797075CF5A1E0B0E0BA83A983C01639
:101BD000D1064CF1D301ED91FC910484F585E02D03
:101BE0002B813C81A8016D817E818A149B041CF0AD
:101BF0004D815E81B801C3010995E418F508F7FE2F
:101C00000AC02D813E8189819A81280F391F3E8328
:101C10002D83E20CF31C0F5F1F4FD9CF2FEF3FEF47
:101C20003A832983D4CF26960FB6F894DEBF0FBE31
:101C3000CDBFDF91CF911F910F91FF90EF90DF907B
:101C4000CF90BF90AF909F908F907F906F905F905C
:101C50004F903F902F900895089590E080E0089570
:101C60008B3259F08D3249F08A3251F08F3241F087
:101C70008E3549F090E080E0089581E090E008958D
:101C800082E090E0089583E090E00895982F8D7FA2
:101C90008D3249F086ED890F823028F081E09E3543
:101CA00019F080E0089581E00895CF93DF93FC015F
:101CB00001900020E9F73197AF01481B590BBC0197
:101CC00080EF95E00E94C106EC0142E050E06DE536
:101CD00073E080EF95E00E94C1068C0F9D1FDF919D
:101CE000CF910895FC0101900020E9F731979F0101
:101CF000281B390BFC01E20FF31FDB01CD01861B12
:101D0000970B821793071CF482918D93F7CF620F84
:101D1000731FFB0110820895E0E0F1E088EF91E08D
:101D2000DF019C011D9221503040E1F71092130613
:101D300080911406833508F483E58093140610928D
:101D40001506809116068F3208F48FE280931606EE
:101D50001092FD051092FC051092FF051092FE05F1
:101D60000895CF93DF930E948C0EC0EFD5E081E001
:101D70008C8B8D8B1D861C861F861E8680E693E0CD
:101D80000E94550E1D861C8684E190E09F878E87F9
:101D900020916E0530916F054FE1429FC001439F36
:101DA000900D112486559B4F0E94550EDF91CF91C7
:101DB0000C946107CF92DF92EF92FF920F931F93E3
:101DC000CF93DF930E948C0E81E080930406809372
:101DD000050681E090E090930306809302069093BD
:101DE0000106809300061092FD051092FC051092EA
:101DF000FF051092FE0588E693E00E94550EEE2442
:101E0000E394F12C08E010E023E530E048E050E0F6
:101E100070E060E080EF95E00E94040CC0916A05DC
:101E2000D0916B05CE30D10544F12D971092FD0570
:101E30001092FC0582E190E09093FF058093FE05EF
:101E4000CE018B5B9A4F7C016E019EE0C90ED11CC6
:101E50008E0180916805909169050817190784F42F
:101E60000C151D0569F0F70161917F0180EF95E088
:101E70000E94D30A0F5F1F4FECCFD0E0C0E0D6CF57
:101E800080916A0590916B058C1B9D0B26E0289F25
:101E9000B001299F700D11249B012B5F3F4FEE2451
:101EA000E394F12C03E210E043E250E080EF95E090
:101EB0000E94040CDF91CF911F910F91FF90EF9042
:101EC000DF90CF900C9461070E9422201F93CF9344
:101ED000DF9385ED8093BC008091E7039091E80348
:101EE000A091E903B091EA030796A11DB11D23E07B
:101EF000B695A795979587952A95D1F72091BC001F
:101F000024FD03C010922F0452C04091E70350916A
:101F1000E8036091E9037091EA03452B462B472BB8
:101F200069F30097A105B10541F02AE22A95F1F77E
:101F300000C00197A109B109E1CF8091E603C1E09A
:101F4000C093E503882399F1D091B8001091BA00AD
:101F50008091BC008A7B8093BC0060E082E10E949B
:101F6000B90460E083E10E94B90410922F04C09389
:101F700031041092300461E082E10E94B90461E012
:101F800083E10E94B9048091B9008E7F8093B900EB
:101F90008091B9008D7F8093B90088E48093B80068
:101FA00085E48093BC001093BA00D093B800DF9111
:101FB000CF911F9108954F925F926F927F928F926F
:101FC0009F92AF92BF92CF92DF92FF920F931F9397
:101FD000CF93DF938FEF9FEF9093E3038093E20320
:101FE0000BE814E0F80101900020E9F78F0101509F
:101FF0001109CFEFDFEFF4E00B381F0709F489C0B8
:10200000F801F2908F016F2D0F2C000C770B6053AD
:1020100071096A307105B0F42196CE01880F991FBD
:10202000880F991F9C012E563C4F6901072E000C0A
:10203000880B990B0E94BE1BF6016083718382831B
:102040009383D9CF8F2D0E94460E8823A1F26E0173
:10205000F1E0CF1AD108CC0FDD1FCC0FDD1FCE561B
:10206000DC4F488059806A807B80E601CC0FDD1F01
:10207000CC0FDD1FFE01EE56FC4F80809180A280C8
:10208000B3802DE2F21639F12F1554F03AE2F3162F
:1020900049F18BE2F81689F060E070E0CB0113C0E3
:1020A000EFE2FE1631F1FEE5FF12F6CFA501940135
:1020B000C301B2010E94DB1C06C0A5019401C3014B
:1020C000B2010E94D91ACE56DC4F688379838A8385
:1020D0009B83E60190CFA5019401C301B2010E9448
:1020E000D81AF1CFA5019401C301B2010E946E1C60
:1020F000EACF20E030E0A901C501B4010E94451BF0
:10210000882351F2A5019401C301B2010E944A1B28
:10211000DACFD093E303C093E203CC0FDD1FCC0FE3
:10212000DD1FCE56DC4F688179818A819B81DF91EA
:10213000CF911F910F91FF90DF90CF90BF90AF9004
:102140009F908F907F906F905F904F9008951F9217
:102150000F920FB60F9211242F933F938F939F935B
:10216000AF93BF9380917D0590917E05A0917F05EF
:10217000B09180053091780523E0230F2D3758F575
:102180000196A11DB11D2093780580937D05909344
:102190007E05A0937F05B09380058091790590918D
:1021A0007A05A0917B05B0917C050196A11DB11D1A
:1021B0008093790590937A05A0937B05B0937C0575
:1021C000BF91AF919F918F913F912F910F900FBE33
:1021D0000F901F90189526E8230F0296A11DB11DA0
:1021E000D2CF1F920F920FB60F9211242F933F93CD
:1021F0004F935F936F937F938F939F93AF93BF930F
:10220000EF93FF938091B900887F803609F44AC02C
:10221000F0F5883209F4A5C018F5803109F499C0A9
:10222000B8F4882309F4F5C0883009F492C0FF910E
:10223000EF91BF91AF919F918F917F916F915F913E
:102240004F913F912F910F900FBE0F901F901895B7
:10225000883109F486C0803251F780932E0414C06F
:10226000803409F49BC040F48033B9F38833F9F625
:1022700080932E0485ECAEC0803509F483C0883588
:1022800009F494C0883499F60E94660FD0CF88393B
:1022900009F48AC038F5883729F050F4883611F0EF
:1022A000803729F683E080932F0410922D0455C0C7
:1022B000883809F479C0803919F0803809F0B7CF2F
:1022C00080912D04803208F06FC0E0912D0481E0F0
:1022D0008E0F80932D048091BB00F0E0E35FFB4FF5
:1022E00080833BC0803B39F0D0F4803A09F477C05A
:1022F000883A09F09CCF84E080932F0410920C045C
:1023000010920B04F0E0E0E0099580910B0481113C
:102310000FC081E080930B041092EB0309C0803C56
:1023200009F4A8CF883C09F4A5CF883B09F07FCFFA
:10233000E0910C0481E08E0F80930C04F0E0E551F5
:10234000FC4F80818093BB0090910C0480910B0422
:1023500029C0809154048093BB0085EC8093BC001D
:1023600066CF9091530480915204981758F5E091EC
:10237000530481E08E0F80935304F0E0EE5CFB4F3A
:102380008081E9CFE091530481E08E0F8093530464
:102390008091BB00F0E0EE5CFB4F80839091530492
:1023A000809152049817C8F285E8D8CFE091530481
:1023B00081E08E0F809353048091BB00F0E0EE5CCF
:1023C000FB4F80838091310481115ECF81E0809347
:1023D000300484EA8093BC0010922F0428CF85EC4F
:1023E0008093BC0010922F0480912D04803230F431
:1023F000E0912D04F0E0E35FFB4F108260912D042B
:1024000070E08DE094E0F0E0E0E0099510922D049A
:102410000ECF10922E0438CF1092F3051092F205D1
:1024200024E530E03093F5052093F40580E390E057
:102430009093F7058093F6053093F9052093F805FE
:102440009093FB058093FA05109206061092FD0505
:102450001092FC051092FF051092FE0581E080931A
:102460000506809304062FEF3FEF30930306209379
:10247000020630930106209300068093070610920F
:10248000080610920A061092090685E393E09093DD
:10249000F1058093F0058CE190E00E94FD1EDC01C7
:1024A00011961C921E9213961C921E9212978FE008
:1024B0001B968C931B9782E11C968C931C978FEF35
:1024C0001E968C931E9781E11D968C931D97E9E3D0
:1024D000F7E0E491F0E0EE0FFF1FE05EF84F85912A
:1024E000949156969C938E935597EBE1F7E0E49187
:1024F0005A96EC935A97EBE3F7E0E491F0E0EE0F95
:10250000FF1FE05EF84F8591949150969C938E93B7
:102510001F97EDE1F7E0E4915796EC935797ECE3C2
:10252000F7E0E491F0E0EE0FFF1FE05EF84F8591D9
:10253000949152969C938E935197EEE1F7E0E4913B
:102540005996EC93599740E059E06DE370E014968A
:102550004D935D936D937C93179781E090E019966E
:102560009C938E9318971A961C921A975B961C92BE
:102570005B97B0930C06A0930B0680E180930E0648
:102580008EE080930D0610928305109287051092BD
:102590008605109288058BE293E0909382058093E4
:1025A0008105EDE9F5E010821482138215823696DA
:1025B00085E0E93DF807B9F78DEF92E09093E405E7
:1025C0008093E30588EF92E09093E6058093E5051C
:1025D00086E08093E70585E08093E80583E093E05B
:1025E0009093E2058093E1058AE090E09093EA05FC
:1025F0008093E90584EF91E09093EC058093EB05DF
:102600001092EF051092EE051092DD051092DE0596
:102610001092DF051092E0051092ED050895CF931A
:10262000DF93CDB7DEB7A1970FB6F894DEBF0FBE2C
:10263000CDBF789484B5826084BD84B5816084BD4B
:1026400085B5826085BD85B5816085BD80916E0050
:10265000816080936E001092810080918100826081
:1026600080938100809181008160809381008091BE
:1026700080008160809380008091B10084608093AD
:10268000B1008091B00081608093B00080917A00A9
:10269000846080937A0080917A00826080937A00CF
:1026A00080917A00816080937A0080917A008068BE
:1026B00080937A001092C10000910B0610910C06D5
:1026C000D8011B968C918F3F41F061E00E94E70496
:1026D00061E0F80183850E94B904D8018D919C9135
:1026E000892B09F4B2C0FFB6F8948091550481118A
:1026F00027C0E4E3F7E08491E6E1F7E09491E82F66
:10270000F0E0EE0FFF1FEC51F94FA591B491EC9161
:10271000E92321F461E08AE00E94B90461E08AE0E3
:102720000E94E7048CB580618CBD8CB580648CBD43
:1027300061E08DE00E94E70461E08BE00E94E70425
:10274000809155048F5F80935504FFBE81E0F801AE
:10275000838F61E080910E060E94E70480910D0650
:1027600087FD03C061E00E94E70484E080931006C7
:1027700088E280930F0610921106109212060E94B2
:1027800023071092130680911406833508F483E51D
:102790008093140610921506809116068F3208F465
:1027A0008FE2809316060E9461078CE30E940C075B
:1027B000109269051092680510926B0510926A05D7
:1027C000109245050E94DA0ECE01039699A388A3C4
:1027D000DE0111963D0134E1232E312C81E08093FE
:1027E000ED058FB7F89440917D0550917E0560917D
:1027F0007F05709180058FBF8091DD059091DE058A
:10280000A091DF05B091E005481B590B6A0B7B0BCB
:102810008091E9059091EA05B0E0A0E08417950762
:10282000A607B70708F050C110E08091E705181718
:10283000B8F5E091E305F091E405E10FF11D62E0E8
:1028400080810E94E7041F5FF0CF61E0F80184857A
:102850000E94E704D8011A968C911A978B7FE1F4B5
:1028600060E01C968C910E94B904D8011D968C9151
:102870008F3F41F061E00E94E70461E0F801858547
:102880000E94B904D8011E968C918F3F09F45ECF47
:1028900060E00E94E7045ACF61E0F8018485E3CF4D
:1028A000912C8091E805981608F063C0E92CF12C72
:1028B000E091E505F091E605EE0DFF1D61E08081F8
:1028C0000E94E704E091E505F091E605EE0DFF1D9D
:1028D00060E080810E94B90481E090E0A0E0B0E077
:1028E000092C04C0880F991FAA1FBB1F0A94D2F796
:1028F0005C016C01C094D094812C8091E70588160E
:1029000008F5082D10E0E091E305F091E405E00FF3
:10291000F11F80810E9490040C5F1F4F000F111F58
:10292000F801EF57FA4F892B41F4808191818A2970
:102930009B29918380838394E0CF808191818C2136
:102940009D21F7CFE091E505F091E605EE0DFF1D25
:1029500061E080810E94B9048091E5059091E605CF
:10296000E80EF91E60E0F70180810E94E70493946D
:1029700098CF01E815E07801D7015F968D919C9181
:102980009097892B59F45C961C925C97EFEFFFEFC0
:102990005E96FC93EE935D9791961C92F6E0EF0E97
:1029A000F11C5DEBE51655E0F50631F7D12C809171
:1029B000E705D81608F053C0C12CAD2CB12CAA0CD9
:1029C000BB1CC50187579A4F5C012091E805C216D0
:1029D00008F043C0D5016D917C910C2C02C0769516
:1029E00067950A94E2F7D29E900111242C0D311DB7
:1029F000E1E8F5E080E0458D568D2417350709F4B0
:102A000049C38F5F36968A30B1F760FF24C0E1E892
:102A1000F5E090E080E0448D411118C0E091E105BF
:102A2000F091E205E20FF31F4081B6E0B89FF0019C
:102A3000B99FF00D1124EF57FA4F448F368F258F31
:102A400010A2178E61E00E94F70305C0019636962A
:102A50008A30910501F7C394B8CFD394A8CF80E012
:102A6000F80191A19111892F0A5F1F4FE016F1061D
:102A7000B9F79FB7F89440917D0550917E0560911C
:102A80007F05709180059FBF4093DD055093DE0563
:102A90006093DF057093E0058823B1F08091A20573
:102AA000882391F08091A0059091A105019761F490
:102AB00010919D0511110BC0E0E0F0E0EF2B09F43F
:102AC0008DCE0E9400008ACE1092ED05F5CF809148
:102AD0007705882309F465C0812F012E000C990B1E
:102AE000C0970A9738F580917505909176058330E7
:102AF00091057CF49C012F5F3F4F30937605209326
:102B000075058F589A4FDC011C932F583A4FF901E5
:102B100010820E948C0E1092FD051092FC051092FE
:102B2000FF051092FE058FE793E00E94550E0E946C
:102B30006107C2CF1D3369F763E773E081E795E072
:102B40000E942720892B59F4109277051092760560
:102B500010927505109271050E94DA0EDACF10926C
:102B6000760510927505109271050E948C0E81E019
:102B700080930406809305061092FD051092FC05D3
:102B80003092FF052092FE0587E793E00E94550EE4
:102B90000E9461076CEB72E080E090E00E94840686
:102BA000DBCF80917005882309F44EC01C3351F4AB
:102BB00080916E0590916F05181619060CF041C0B2
:102BC000019710C01E3399F480916E0590916F05A6
:102BD00020916C0530916D052150310982179307C2
:102BE00084F5019690936F0580936E052AC01D337E
:102BF00031F580916E0590916F052FE1289FB0010E
:102C0000299F700D112466557B4F85E495E00E9445
:102C1000302085E495E0DC010D900020E9F7CD013E
:102C200086549540909369058093680590936B0551
:102C300080936A05109270050E94DA0E3DCF13341E
:102C4000C9F30E94B10E38CF123409F46BC0DCF521
:102C50001C3309F493C024F5153209F4B3C0C090B5
:102C60006805D0906905BEE1CB16D1042CF7E09041
:102C70006A05F0906B051E141F042CF4812F0E942E
:102C8000460E8111E6C1F601EB5BFA4FC6013197A2
:102C9000E816F9060CF0E7C1019720812183F7CFF0
:102CA00020916805309169051D3309F4ADC01E33CC
:102CB000B1F680916A0590916B05821793070CF02D
:102CC000BBCF019664C0183409F470C06CF413349F
:102CD00031F6109269051092680510926B051092FA
:102CE0006A0510924505A8CF1C3409F455C0123569
:102CF00009F0B5CF0E94DB0F0E94311D609364057F
:102D000070936505809366059093670505E415E06B
:102D100022E040E00E944C18D8010D900020E9F715
:102D2000CD016BC080916805909169051816190650
:102D30000CF082CF20916A0530916B0512161306B4
:102D40000CF07ACF21503109F901EB5BFA4F019772
:102D5000AF0145545540481759071CF44181419330
:102D6000F7CF909369058093680530936B052093A6
:102D70006A058B5B9A4FFC0110825ECF80916A05D9
:102D800090916B05181619060CF056CF0197909389
:102D90006B0580936A0550CF81E080937705109290
:102DA0007605109275051092710546CF80916C05DD
:102DB00090916D05181619060CF07ECE21E0209337
:102DC0007005FECE0E94DB0F20E030E048EC52E4BC
:102DD0000E944A1B609364057093650580936605A5
:102DE0009093670505E415E022E040E00E944C184E
:102DF000F80101900020E9F7CF01865495409093A7
:102E0000690580936805C3CF232B09F415CF6CE6C1
:102E100074E085E495E00E94720E8CE6A82E84E0B2
:102E2000B82EF5019DE728E239E281918823C9F0A7
:102E3000883221F4DF0111973C93F7CF893221F4D6
:102E4000DF0111972C93F1CF8B3721F4DF0111971C
:102E50009C93EBCF8D3749F7DF0111975BE75C93CC
:102E6000E4CF1A8219828DE1A8A1B9A11D928A9599
:102E7000E9F70FEF1FEFF12CE12CF50151905F0105
:102E8000511010C0F301EE0DFF1DCF0186199709F7
:102E900017FD62C0D801AA5ABB4F8C918193015093
:102EA0001109F3CF852D052C000C990BC0970A97BB
:102EB00068F0FEE25F1651F058E255120FC00F5F46
:102EC0001F4FF801EA5AFB4F5082D7CFF301EE0DA6
:102ED000FF1D5082C70101967C01CFCF9BE7591699
:102EE00071F3A9E25A1631F0BDE76301CE0CDF1C85
:102EF0005B1218C0C801F301EE0DFF1D7F01E6183B
:102F0000F7080150110997FDB8CF8A5A9B4FDC0191
:102F10002C91283209F4B1CFC8012B3709F4ADCF79
:102F20002193ECCF7601E618F70817FDC8CFF8011A
:102F3000EA5AFB4F4080842D0E94300E4C01852DB3
:102F40000E94300E881599050CF0B9CF0150110977
:102F5000F60141926F01E6CF10936B0400936A046F
:102F6000F301E80FF91F10826BE874E0C3010E94BF
:102F7000720E0E948C0E81E08093040680930506F9
:102F80001092FD051092FC051092FF051092FE05AF
:102F90008AE893E00E94550E1092FD051092FC0500
:102FA0003092FF052092FE058BE894E00E94550EBA
:102FB0000E94610768EE73E080E090E00E94840662
:102FC0000E94DB0F6B017C01C0926405D092650505
:102FD000E0926605F092670520916C0530916D05D1
:102FE00025303105CCF4C901019690936D0580938D
:102FF0006C054FE1429FC001439F900D112465E491
:1030000075E086559B4F0E94302005E415E022E0D4
:1030100040E0C701B6017ECE69EC74E08AEA94E034
:103020000E94302068EE74E089EC94E00E94302029
:1030300067E075E088EE94E00E94302066E275E07B
:1030400087E095E00E94302065E475E086E295E037
:10305000DACFF701EC5BFA4F80810E94460E88239D
:1030600009F411CEE9CDF701EB5BFA4F108386012D
:103070000F5F1F4F1093690500936805EFEFEE1A7D
:10308000FE0AF0926B05E0926A050B5B1A4FD801BD
:103090001C92D2CD6170D7CCEF920F931F93CF9338
:1030A000DF93E80134E047FD34E1042E000C550BBA
:1030B00057FF03C0519541955109E32E022F242F4C
:1030C000AE010E946A18CE01DF91CF911F910F913E
:1030D000EF900895A9E0B0E0E0E7F8E10C94A71ABA
:1030E0006A01F22EB02E102FFBE3AF2EA01608F4CB
:1030F0001BE31F5F012F27E0AE014F5F5F4F0E9470
:10310000C919BC018981982F9970913009F43FC089
:103110009BE2E1FC04C09E2D9170E0FC3AC05E2D64
:103120005071E82FE87083FF46C084E0911101C020
:1031300083E0EF2DE81B8F1508F0E0E0D6018E2F1D
:1031400020E2552351F1992329F0D6019C93C60121
:1031500001966C0196012D5F3F4FE2FE24C08EE484
:10316000D6018C9391E411969C93119712968C93AF
:10317000D9018E2F90E281111BC0E20FF32FF11DB8
:1031800010828EEF9FEF2996ECE00C94C31A9DE21B
:10319000C6CF90E2C4CF2D9381508111FCCFCE0ECB
:1031A000D11CE0E0D0CF8EE6D6018C9391E6DBCF48
:1031B0009D938150E0CF482F447082FF3DC084E052
:1031C000911101C083E08F1510F4EF2DE81BD6019B
:1031D0008E2F20E2552309F1992329F0D6019C93E3
:1031E000C60101966C0196012D5F3F4FE2FE1BC0A8
:1031F00089E4D6018C938EE411968C93119786E422
:1032000012968C93D9018E2F90E2882309F4B5CFC2
:103210009D938150FACF2D9381508111FCCFCE0E1A
:10322000D11CE0E0D9CF89E6D6018C938EE61196C9
:103230008C93119786E6E4CF9B0177FF02C030E0C4
:1032400020E0A1E0B0E0911102C0B0E0A0E0F901FF
:103250003196AE0FBF1F8B2C912CBB2009F461C09F
:103260005401EFEFAE1ABE0AAA0DBB1DFA161B06DB
:1032700019F014F04F2D4A1B511188C0E3FC59C0BE
:103280007601A42FB0E2A1114FC0C40ED11C992326
:1032900009F45BC040E0D6011196F60190836D0100
:1032A000552309F448C0012F060F9A81582F5071F9
:1032B00084FF03C0913309F4015010160CF047C08D
:1032C000093008F008E0EEE2FE2E5B01A01AB1081A
:1032D00085019194819491082F3F320729F4D601FA
:1032E000FC92F60131966F016217730794F1021791
:1032F00013077CF5DB01A21BB30BAA24A394B12C0A
:10330000AC0EBD1EAA0DBB1D11968C91215031092A
:10331000D601119628153905F4F0F60180836D0168
:10332000DBCFB12CA12CA0CFF701B1937F01A1502D
:10333000AACF9111B0CFD601942F50E302C05D9374
:1033400091509111FCCFC40ED11C40E0ACCF01E0F4
:10335000BACF80E3DBCF6217730731F4963388F47A
:10336000953311F4552369F0F6018083FD01842F14
:1033700090E2811108C0A40FB11D1C9290E080E082
:1033800002CF81E3F1CF91938150F3CF911183CF9D
:103390008ACF283008F027E03327DA01990F311D52
:1033A00087FD916000966105710539F432602E5FEA
:1033B0003D9330E32A95E1F708959F3F30F0803840
:1033C0007105610509F03C5F3C5F3D93913008F069
:1033D0008068911DDF93CF931F930F93FF92EF921D
:1033E000192F987F9695E92F96959695E90FFF27C7
:1033F000EC5BFE4F99273327EE24FF24A701E7015A
:1034000005900894079428F4360FE71EF81E491F0C
:10341000511D660F771F881F991F0694A1F705900D
:10342000079428F4E70EF81E491F561FC11D770F99
:10343000881F991F661F0694A1F70590079428F42A
:10344000F80E491F561FC71FD11D880F991F661FF1
:10345000771F0694A1F70590079420F4490F561F93
:10346000C71FD81F990F661F771F881F0694A9F7DB
:1034700084911095177041F0D695C795579547954B
:10348000F794E7941A95C1F7EAEEF0E06894159086
:10349000159135916591959105907FE27395E118AD
:1034A000F10A430B560BC90BD009C0F7E10CF11E12
:1034B000431F561FC91FD01D7EF4703311F48A9527
:1034C000E6CFE894015030F0080F0AF40027021705
:1034D00008F4202F2395022F7A3328F079E37D9387
:1034E0002A95E9F710C07D932A9589F60694979559
:1034F0006795379517951794E118F10A430B560B0A
:10350000C90BD00998F023957E9173957A3308F012
:1035100070E37C932013B8F77E9170617D9330F057
:10352000839571E37D9370E32A95E1F71124EF9081
:10353000FF900F911F91CF91DF91992787FD909573
:1035400008952F923F924F925F926F927F928F9247
:103550009F92AF92BF92CF92DF92EF92FF920F9322
:103560001F93CF93DF93CDB7DEB7CA1BDB0B0FB62C
:10357000F894DEBF0FBECDBF09942A8839884888E9
:103580005F846E847D848C849B84AA84B984C8847F
:10359000DF80EE80FD800C811B81AA81B981CE0F76
:1035A000D11D0FB6F894DEBF0FBECDBFED0108955B
:1035B0005058BB27AA270E94F01A0C94341C0E9472
:1035C000261C38F00E942D1C20F039F49F3F19F47E
:1035D00026F40C94231C0EF4E095E7FB0C941D1CC0
:1035E000E92F0E94451C58F3BA1762077307840736
:1035F000950720F079F4A6F50C94671C0EF4E0957D
:103600000B2EBA2FA02D0B01B90190010C01CA019C
:10361000A0011124FF27591B99F0593F50F4503E47
:1036200068F11A16F040A22F232F342F4427585F39
:10363000F3CF469537952795A795F0405395C9F751
:103640007EF41F16BA0B620B730B840BBAF0915009
:10365000A1F0FF0FBB1F661F771F881FC2F70EC0A8
:10366000BA0F621F731F841F48F48795779567957B
:10367000B795F7959E3F08F0B0CF9395880F08F067
:103680009927EE0F9795879508950E94F91B08F4E6
:1036900081E008950E945E1B0C94341C0E942D1C36
:1036A00058F00E94261C40F029F45F3F29F00C944A
:1036B0001D1C51110C94681C0C94231C0E94451C69
:1036C00068F39923B1F3552391F3951B550BBB2751
:1036D000AA2762177307840738F09F5F5F4F220F96
:1036E000331F441FAA1FA9F335D00E2E3AF0E0E88D
:1036F00032D091505040E695001CCAF72BD0FE2FD7
:1037000029D0660F771F881FBB1F2617370748076A
:10371000AB07B0E809F0BB0B802DBF01FF27935822
:103720005F4F3AF09E3F510578F00C941D1C0C94AD
:10373000681C5F3FE4F3983ED4F3869577956795D0
:10374000B795F7959F5FC9F7880F911D9695879557
:1037500097F90895E1E0660F771F881FBB1F621776
:1037600073078407BA0720F0621B730B840BBA0B34
:10377000EE1F88F7E0950895E89409C097FB3EF4A2
:1037800090958095709561957F4F8F4F9F4F9923AE
:10379000A9F0F92F96E9BB279395F695879577952C
:1037A0006795B795F111F8CFFAF4BB0F11F460FFEC
:1037B0001BC06F5F7F4F8F4F9F4F16C0882311F044
:1037C00096E911C0772321F09EE8872F762F05C058
:1037D000662371F096E8862F70E060E02AF09A95F3
:1037E000660F771F881FDAF7880F9695879597F9E8
:1037F0000895990F0008550FAA0BE0E8FEEF161682
:103800001706E807F907C0F012161306E407F507D4
:1038100098F0621B730B840B950B39F40A2661F048
:10382000232B242B252B21F408950A2609F4A140EB
:10383000A6958FEF811D811D089597F99F6780E8F8
:1038400070E060E008959FEF80EC089500240A94F2
:103850001616170618060906089500240A9412166B
:103860001306140605060895092E0394000C11F49E
:10387000882352F0BB0F40F4BF2B11F460FF04C04B
:103880006F5F7F4F8F4F9F4F089557FD9058440FA4
:10389000551F59F05F3F71F04795880F97FB991FAF
:1038A00061F09F3F79F0879508951216130614066C
:1038B000551FF2CF4695F1DF08C0161617061806F9
:1038C000991FF1CF86957105610508940895E894D4
:1038D000BB2766277727CB0197F908950E94811CA3
:1038E0000C94341C0E94261C38F00E942D1C20F0E1
:1038F000952311F00C941D1C0C94231C11240C9482
:10390000681C0E94451C70F3959FC1F3950F50E011
:10391000551F629FF001729FBB27F00DB11D639F81
:10392000AA27F00DB11DAA1F649F6627B00DA11D27
:10393000661F829F2227B00DA11D621F739FB00DCD
:10394000A11D621F839FA00D611D221F749F33273D
:10395000A00D611D231F849F600D211D822F762FD6
:103960006A2F11249F5750409AF0F1F088234AF0B3
:10397000EE0FFF1FBB1F661F771F881F915050401F
:10398000A9F79E3F510580F00C941D1C0C94681CF7
:103990005F3FE4F3983ED4F3869577956795B795A6
:1039A000F795E7959F5FC1F7FE2B880F911D9695C0
:1039B000879597F90895FA01EE0FFF1F30962105BC
:1039C0003105A1F16115710561F48038BFE39B07F2
:1039D00049F168949038810561F08038BFEF9B070A
:1039E00041F099234AF5FF3FE1053105210519F121
:1039F000E8940894E795D901AA2329F4AB2FBE2FA8
:103A0000F85FD0F310C0FF5F70F4A695E0F7F739C8
:103A100050F019F0FF3A38F49F779F930DD00F9034
:103A200007FC9058089546F00C94231C60E070E069
:103A300080E89FE308954FE79F775F934F933F930D
:103A40002F930E94311E2F913F914F915F910E94C1
:103A50006E1C0C94791D19F416F40C94231C0C9410
:103A6000AB1D0E944D1CB8F39923C9F3B6F39F57C1
:103A7000550B87FF0E94B91D0024A0E640EA900183
:103A800080585695979528F4805C660F771F881F9D
:103A900020F026173707480730F4621B730B840B9E
:103AA000202931294A2BA6951794079420253125E2
:103AB0004A2758F7660F771F881F20F02617370709
:103AC000480730F4620B730B840B200D311D411D30
:103AD000A09581F7B901842F9158880F9695879505
:103AE000089529F416F00C941D1C0C94671C0C947A
:103AF000231C0E944D1CA8F39638A0F707F80F92DC
:103B0000E8942BE33AEA48EB5FE70E94841C0F92AB
:103B10000F920F924DB75EB70F920E94791EE8E6A2
:103B2000F0E00E94C01D4F915F91EF91FF91E595EC
:103B3000EE1FFF1F49F0FE57E0684427EE0F441FB9
:103B4000FA95E1F74195550B0E94F31D0F9007FE82
:103B50000C94E71D08959F3F31F0915020F4879514
:103B600077956795B795880F911D9695879597F9E5
:103B7000089591505040660F771F881FD2F708951F
:103B8000DF93CF931F930F93FF92EF92DF927B010E
:103B90008C01689406C0DA2EEF010E94811CFE01A0
:103BA000E894A5912591359145915591A6F3EF01A2
:103BB0000E94F01AFE019701A801DA9469F7DF90DC
:103BC000EF90FF900F911F91CF91DF9108959B018E
:103BD000AC0160E070E080E89FE30C944A1B0C9419
:103BE0001D1C0C94AB1D0E944D1CD8F39923C9F3E6
:103BF000940F511DA3F39150504094F059F0882335
:103C000032F0660F771F881F91505040C1F79E3FDA
:103C100051052CF7880F911D9695879597F9089572
:103C20005F3FACF0983E9CF0BB27869577956795F3
:103C3000B79508F4B1609395C1F7BB0F58F711F42D
:103C400060FFE8CF6F5F7F4F8F4F9F4FE3CF0C94A4
:103C5000681C16F00C94AB1D0C94231C68940C94F7
:103C60001D1C0E944D1CA8F39923C1F3AEF3DF93F2
:103C7000CF931F930F93FF92C92FDD2788232AF03C
:103C80002197660F771F881FDAF720E030E040E8C1
:103C90005FEB9FE3883920F0803E38F021968F77E4
:103CA0000E94D91AE0E9F0E004C00E94D91AEDEBB5
:103CB000F0E00E94C01D8B01BE01EC01FB2E6F578E
:103CC00071097595771F880B990B0E94BE1B28E11F
:103CD00032E741E35FE30E94811CAF2D9801AE0102
:103CE000FF900F911F91CF91DF910E94F01A0C94D9
:103CF000341CFA01DC01AA0FBB1F9B01AC01BF57AA
:103D000028F4222733274427507820C0B75190F455
:103D1000AB2F0024469537952795011CA395D2F328
:103D2000002071F0220F331F441FB395DAF30ED039
:103D30000C94D81A61307105A0E88A07B94630F4AE
:103D40009B01AC016627772788279078309621F071
:103D50002083318342835383089597FB072E16F403
:103D6000009407D077FD09D00E94E31E07FC05D020
:103D70003EF4909581959F4F0895709561957F4F82
:103D80000895A1E21A2EAA1BBB1BFD010DC0AA1F9C
:103D9000BB1FEE1FFF1FA217B307E407F50720F0B4
:103DA000A21BB30BE40BF50B661F771F881F991F2F
:103DB0001A9469F760957095809590959B01AC0178
:103DC000BD01CF010895AA1BBB1B51E107C0AA1F6B
:103DD000BB1FA617B70710F0A61BB70B881F991FAC
:103DE0005A95A9F780959095BC01CD010895EE0FE5
:103DF000FF1F0590F491E02D09940F931F93CF932B
:103E0000DF938230910510F482E090E0E091190692
:103E1000F0911A0630E020E0B0E0A0E0309799F48D
:103E20002115310509F44AC0281B390B243031050E
:103E3000D8F58A819B816115710589F1FB01938316
:103E40008283FE0111C04081518102811381481794
:103E50005907E0F04817590799F4109761F0129646
:103E60000C93129713961C933296CF01DF91CF914A
:103E70001F910F9108950093190610931A06F4CF1D
:103E80002115310551F04217530738F0A901DB0124
:103E90009A01BD01DF01F801C1CFEF01F9CF909385
:103EA0001A0680931906CDCFFE01E20FF31F81930E
:103EB00091932250310939832883D7CF2091170657
:103EC00030911806232B41F42091230330912403D1
:103ED0003093180620931706209121033091220376
:103EE0002115310541F42DB73EB74091250350917E
:103EF0002603241B350BE0911706F0911806E217F4
:103F0000F307A0F42E1B3F0B2817390778F0AC01FC
:103F10004E5F5F4F2417350748F04E0F5F1F5093D9
:103F2000180640931706819391939FCFF0E0E0E04D
:103F30009CCFCF93DF930097E9F0FC013297138277
:103F40001282A0911906B0911A06ED0130E020E02E
:103F50001097A1F420813181820F931F20911706C1
:103F6000309118062817390709F061C0F093180638
:103F7000E0931706DF91CF910895EA01CE17DF078E
:103F8000E8F54A815B819E0141155105B1F7E901D0
:103F9000FB83EA8349915991C40FD51FEC17FD07A4
:103FA00061F4808191810296840F951FE9019983C4
:103FB0008883828193819B838A83F0E0E0E012967C
:103FC0008D919C9113970097B9F52D913C91119784
:103FD000CD010296820F931F20911706309118068B
:103FE0002817390739F6309751F510921A061092B2
:103FF0001906B0931806A0931706BCCFD383C283CB
:1040000040815181840F951FC817D90761F44E5F15
:104010005F4F88819981480F591F518340838A815E
:104020009B81938382832115310509F0B0CFF093F2
:104030001A06E09319069ECFFD01DC01C0CF138262
:104040001282D7CF81E090E0F8940C943720FB01E6
:10405000DC018D91019080190110D9F3990B08951D
:10406000FB01DC0101900D920020E1F70895F89426
:10407000FFCF000000000000000000000000000072
:104080000000000000000000000000000000000030
:104090000000000000000000C0E0F0F8FCFCFEFFA3
:1040A000FCE0000000000000000000000000000034
:1040B0000000000000000000000000000000000000
:1040C00000000000000000000000000000000000F0
:1040D00000000000000000F8F8F8F8F8F8F8F8F828
:1040E000F8F8F8F0F0E0E0C080C0FCFFFFFFFF7FD1
:1040F0003F7FFFFFFFFFFF00000000000000000007
:1041000000000000000000000000000000000000AF
:10411000000000000000000000000000000000009F
:104120000000000000000000000000000F1F3F7FA3
:10413000FFFFFFFFFFFFFFFFE7C7C7878F9F9FFFBF
:10414000FFFFC1C0E0FCFFFFFFFFFFFCFCFCFCFE2B
:10415000FEFEFCFCF8F8F0E0C0C00000000000002B
:10416000000000000000000000000000000000004F
:10417000000000000000000000000000000000003F
:1041800000000080C0E0F1FBFFFFFFFFFF7F1F0F7B
:104190000F87E7FFFFFF1F1F3FF9F8F8F8F8F8F85F
:1041A000FDFFFFFFFFFFFFFFFFFF7F3F0F07010046
:1041B00000000000000000000000000000000000FF
:1041C00000000000000000000000000000000000EF
:1041D0000000000000F0FEFFFFFFFFFFFFFFFFFFFA
:1041E000FFFE7E3F3F0F1FFFFFFFFCF0E0F1FFFFF0
:1041F000FFFFFFFCF00101010101010101000000CE
:1042000000000000000000000000000000000000AE
:10421000000000000000000000000000000000009E
:104220000000000000000000000303030303030379
:10423000030101010100000000000000030F1F3F07
:104240007F7FFFFFFFFF7F7F1F0300000000000054
:10425000000000000000000000000000000000005E
:104260000000000000000000000008090A0B0C021A
:1042700003040506073132332B2D3435362A2F3708
:104280003839282943302E3D52487B7D4C255E3CF1
:104290003E424100001B06800000000000B606BA46
:1042A00006BE0600000000D30AC1062D0E2C0ED754
:1042B000076E08780D500D6C0D600D7F0D6E08991E
:1042C00008C607170DDE0C990C7C0C040CA50B0D11
:1042D0000A00484953544F52590043616C63756C4E
:1042E00061746F720031323300494E56414C49447B
:1042F00000454E54455220505357440050524546B5
:044300004958000018
:107E0000112484B714BE81FFF0D085E080938100F7
:107E100082E08093C00088E18093C10086E0809377
:107E2000C20080E18093C4008EE0C9D0259A86E02C
:107E300020E33CEF91E0309385002093840096BBD3
:107E4000B09BFECF1D9AA8958150A9F7CC24DD24C4
:107E500088248394B5E0AB2EA1E19A2EF3E0BF2EE7
:107E6000A2D0813461F49FD0082FAFD0023811F036
:107E7000013811F484E001C083E08DD089C08234E0
:107E800011F484E103C0853419F485E0A6D080C0E4
:107E9000853579F488D0E82EFF2485D0082F10E0AE
:107EA000102F00270E291F29000F111F8ED06801E7
:107EB0006FC0863521F484E090D080E0DECF843638
:107EC00009F040C070D06FD0082F6DD080E0C81688
:107ED00080E7D80618F4F601B7BEE895C0E0D1E017
:107EE00062D089930C17E1F7F0E0CF16F0E7DF06D8
:107EF00018F0F601B7BEE89568D007B600FCFDCFD4
:107F0000A601A0E0B1E02C9130E011968C91119780
:107F100090E0982F8827822B932B1296FA010C0160
:107F200087BEE89511244E5F5F4FF1E0A038BF0790
:107F300051F7F601A7BEE89507B600FCFDCF97BE46
:107F4000E89526C08437B1F42ED02DD0F82E2BD052
:107F50003CD0F601EF2C8F010F5F1F4F84911BD097
:107F6000EA94F801C1F70894C11CD11CFA94CF0C13
:107F7000D11C0EC0853739F428D08EE10CD085E9AC
:107F80000AD08FE07ACF813511F488E018D01DD067
:107F900080E101D065CF982F8091C00085FFFCCF94
:107FA0009093C60008958091C00087FFFCCF809118
:107FB000C00084FD01C0A8958091C6000895E0E648
:107FC000F0E098E1908380830895EDDF803219F02E
:107FD00088E0F5DFFFCF84E1DECF1F93182FE3DFCA
:107FE0001150E9F7F2DF1F91089580E0E8DFEE27F6
:047FF000FF270994CA
:027FFE00040479
:00000001FF
