:020000040000FA
:100000000C945C000C9479000C9479000C947900A9
:100010000C9479000C9479000C9479000C9479007C
:100020000C9479000C9479000C9479000C9479006C
:100030000C9479000C9479000C9479000C9479005C
:100040000C94A0000C9479000C9479000C94790025
:100050000C9479000C9479000C9479000C9479003C
:100060000C9479000C947900000000002400270013
:100070002A0000000000250028002B0004040404CE
:100080000404040402020202020203030303030342
:10009000010204081020408001020408102001021F
:1000A00004081020000000080002010000030407FB
:1000B000000000000000000011241FBECFEFD8E0B8
:1000C000DEBFCDBF11E0A0E0B1E0E0EEF3E002C0A2
:1000D00005900D92A435B107D9F721E0A4E5B1E070
:1000E00001C01D92AD35B207E1F70E94EA000C9401
:1000F000EE010C9400003FB7F89480915901909163
:100100005A01A0915B01B0915C0126B5A89B05C086
:100110002F3F19F00196A11DB11D3FBFBA2FA92F86
:10012000982F8827BC01CD01620F711D811D911D83
:1001300042E0660F771F881F991F4A95D1F70895EF
:100140001F920F920FB60F9211242F933F938F930C
:100150009F93AF93BF938091550190915601A091C9
:100160005701B09158013091540123E0230F2D37EE
:1001700058F50196A11DB11D20935401809355019E
:1001800090935601A0935701B09358018091590163
:1001900090915A01A0915B01B0915C010196A11D63
:1001A000B11D8093590190935A01A0935B01B093C4
:1001B0005C01BF91AF919F918F913F912F910F90D3
:1001C0000FBE0F901F90189526E8230F0296A11DD1
:1001D000B11DD2CF789484B5826084BD84B581602E
:1001E00084BD85B5826085BD85B5816085BD809102
:1001F0006E00816080936E0010928100809181007A
:100200008260809381008091810081608093810071
:10021000809180008160809380008091B100846033
:100220008093B1008091B00081608093B000809194
:100230007A00846080937A0080917A008260809353
:100240007A0080917A00816080937A0080917A00B0
:10025000806880937A001092C1002EE031E0A0E027
:10026000B1E08D919D919927FC01E057FF4F44919A
:1002700084589F4FFC018491882399F090E0880F67
:10028000991FFC01E859FF4FC591D491FC01EE582C
:10029000FF4F859194918FB7F894E881E42BE88320
:1002A0008FBF2A173B07E9F600E010E0CEE0D1E06F
:1002B000A0E0B1E030E020E08D919D919927FC0114
:1002C000EC55FF4F5491FC01E057FF4F4491FC0166
:1002D000E458FF4F7491772321F1CE01820F931FD1
:1002E000FC016081552359F0533009F45DC008F0DA
:1002F00050C0513009F45EC0523009F45FC0E72F9E
:10030000F0E0EE0FFF1FEE58FF4F859194915FB71D
:10031000F894FC0161115FC06081409546234083E1
:100320005FBF2F5F3F4F2730310509F0C5CF0E94D7
:100330007B004B015C0188EEC82E83E0D82EE12CB7
:10034000F12C0E947B00681979098A099B09683E93
:10035000734081059105A8F3F1E0CF1AD108E108B7
:10036000F10828EE820E23E0921EA11CB11CC114DC
:10037000D104E104F10429F72796F1E0C435DF0741
:1003800009F096CF0115110509F490CF0E940000E5
:100390008DCF5730B1F05830D1F0543009F0AFCF95
:1003A000809180008F7D03C0809180008F77809343
:1003B0008000A5CF84B58F7784BDA1CF84B58F7D14
:1003C000FBCF8091B0008F778093B00098CF809161
:1003D000B0008F7DF9CF6081462BA1CFF894FFCF7D
:1003E00002000300040005000600070008000101E8
:1003F00001010101000001010000000001010001F4
:1004000001000101010101000001000101000001E2
:1004100001010001010001010100010101010101CF
:1004200001010000000001010101010101010101C0
:0404300001000101C5
:107E0000112484B714BE81FFF0D085E080938100F7
:107E100082E08093C00088E18093C10086E0809377
:107E2000C20080E18093C4008EE0C9D0259A86E02C
:107E300020E33CEF91E0309385002093840096BBD3
:107E4000B09BFECF1D9AA8958150A9F7CC24DD24C4
:107E500088248394B5E0AB2EA1E19A2EF3E0BF2EE7
:107E6000A2D0813461F49FD0082FAFD0023811F036
:107E7000013811F484E001C083E08DD089C08234E0
:107E800011F484E103C0853419F485E0A6D080C0E4
:107E9000853579F488D0E82EFF2485D0082F10E0AE
:107EA000102F00270E291F29000F111F8ED06801E7
:107EB0006FC0863521F484E090D080E0DECF843638
:107EC00009F040C070D06FD0082F6DD080E0C81688
:107ED00080E7D80618F4F601B7BEE895C0E0D1E017
:107EE00062D089930C17E1F7F0E0CF16F0E7DF06D8
:107EF00018F0F601B7BEE89568D007B600FCFDCFD4
:107F0000A601A0E0B1E02C9130E011968C91119780
:107F100090E0982F8827822B932B1296FA010C0160
:107F200087BEE89511244E5F5F4FF1E0A038BF0790
:107F300051F7F601A7BEE89507B600FCFDCF97BE46
:107F4000E89526C08437B1F42ED02DD0F82E2BD052
:107F50003CD0F601EF2C8F010F5F1F4F84911BD097
:107F6000EA94F801C1F70894C11CD11CFA94CF0C13
:107F7000D11C0EC0853739F428D08EE10CD085E9AC
:107F80000AD08FE07ACF813511F488E018D01DD067
:107F900080E101D065CF982F8091C00085FFFCCF94
:107FA0009093C60008958091C00087FFFCCF809118
:107FB000C00084FD01C0A8958091C6000895E0E648
:107FC000F0E098E1908380830895EDDF803219F02E
:107FD00088E0F5DFFFCF84E1DECF1F93182FE3DFCA
:107FE0001150E9F7F2DF1F91089580E0E8DFEE27F6
:047FF000FF270994CA
:027FFE00040479
:00000001FF
