:020000040000FA
:100000000C9463000C948B000C948B000C948B006C
:100010000C948B000C948B000C948B000C947C043F
:100020000C948B000C948B000C948B000C948B0024
:100030000C948B000C948B000C948B000C948B0014
:100040000C9432040C948B000C94FE040C94D80491
:100050000C948B000C948B000C948B000C948B00F4
:100060000C948B000C948B000200000000240027ED
:10007000002A0000000000250028002B00000000DE
:100080000800020100000304070000000000000057
:1000900000000000002300260029000404040404DA
:1000A0000404040202020202020303030303030125
:1000B00002040810204080010204081020010204FC
:1000C00008102000300511241FBECFEFD8E0DEBF9E
:1000D000CDBF11E0A0E0B1E0E8E2F5E102C005909B
:1000E0000D92A232B107D9F721E0A2E2B1E001C03E
:1000F0001D92AC3EB207E1F710E0C3E6D0E004C0C9
:100100002197FE010E948C0AC236D107C9F70E94CE
:100110007D050C94920A0C940000CF92DF92EF922E
:10012000FF92CF93DF93B091E001A0E08111AB2F5C
:100130008091E10190E0880F991FAC014F565F4F0D
:10014000C090E601D090E701E090E801F090E9016D
:1001500030E020E0FA01C591D491E881B90190E046
:1001600080E0EB23EA130AC02F5F3F4F6C157D053B
:100170008E059F0578F36FEF7FEFCB01DF91CF9175
:10018000FF90EF90DF90CF90089590E0FC01E3584E
:10019000FF4F2491FC01E155FF4F3491FC01E556DE
:1001A000FF4FE491EE23C9F0222339F0233001F10F
:1001B000A8F4213019F1223029F1F0E0EE0FFF1FF1
:1001C000ED58FF4FA591B4918FB7F894EC91611160
:1001D00026C030953E233C938FBF08952730A9F069
:1001E0002830C9F0243049F7809180008F7D03C00A
:1001F000809180008F7780938000DFCF84B58F77E8
:1002000084BDDBCF84B58F7DFBCF8091B0008F772D
:100210008093B000D2CF8091B0008F7DF9CF3E2B7C
:10022000DACFCF93DF9390E0FC01E155FF4F2491AB
:1002300085569F4FFC0184918823D1F090E0880F70
:10024000991FFC01E759FF4FA591B491FC01ED58AE
:10025000FF4FC591D491623071F49FB7F8943C91EF
:10026000822F809583238C93E8812E2B28839FBF38
:10027000DF91CF9108958FB7F894EC912E2B2C93AA
:100280008FBFF6CF3FB7F89480913401909135013C
:10029000A0913601B091370126B5A89B05C02F3F2C
:1002A00019F00196A11DB11D3FBFBA2FA92F982F9C
:1002B0008827BC01CD01620F711D811D911D42E097
:1002C000660F771F881F991F4A95D1F708958F925F
:1002D0009F92AF92BF92CF92DF92EF92FF924B012B
:1002E0005C010E9442016B017C010E9442016C1979
:1002F0007D098E099F09683E734081059105A8F329
:1003000021E0821A9108A108B10888EEC80E83E0A6
:10031000D81EE11CF11C81149104A104B10429F739
:10032000FF90EF90DF90CF90BF90AF909F908F9015
:100330000895CF92DF92EF92FF920F931F93CF9386
:10034000DF93CDB7DEB7C054D1400FB6F894DEBF0F
:100350000FBECDBF2FB7F89480913801909139012D
:10036000A0913A01B0913B012FBF4091E201509121
:10037000E3016091E4017091E5018C019D01041B92
:10038000150B260B370BB901A801403D57406105FD
:10039000710590F48091EA01C05CDE4F0FB6F894CD
:1003A000DEBF0FBECDBFDF91CF911F910F91FF90A8
:1003B000EF90DF90CF9008958093E2019093E30156
:1003C000A093E401B093E5011092DD011092DC01ED
:1003D0001092DB011092DA011092D90162E0809153
:1003E000DE010E94110161E070E080E090E00E9477
:1003F000670161E08091DE010E94110160E080915F
:10040000DE010E94C5008091DF018551823020F518
:100410008BE291E10197F1F762E08091DE010E94A9
:1004200011018091EB0190E08230910538F0880F46
:10043000991F880F991F05970197F1F7F89480E0AD
:100440000E948D006F3F7F4F8F4F9F4F61F410923E
:10045000EA01789480E0A0CF64E170E080E090E071
:100460000E946701D9CF81E00E948D006F3F7F4FCE
:100470008F4F9F4F61F38E010F5F1F4F6E018FEB08
:10048000C81A8EEFD80A780180E00E948D00F7012B
:10049000608371838283938381E00E948D00F701E2
:1004A0006483758386839783F8E0EF0EF11CEC1468
:1004B000FD0451F7789430E020E0F801C080D1804D
:1004C000E280F3804481558166817781FFEFCF160A
:1004D000DF06EF06FF0631F04F3F8FEF5807680742
:1004E000780719F41092EA01B5CFF90183E0F59588
:1004F000E7958A95E1F7E752FE4F8081880FC41691
:10050000D506E606F70610F180832F5F3F4F085FA0
:100510001F4F2832310589F64091DD012091D90124
:100520008091DA01280F3327331F8091DB01280FD8
:10053000311D8091DC01820F932F911D992748175F
:10054000190681F681E08093EA0126CF8160DCCF35
:100550009091000189130BC0E8E6F0E0E4919FEF71
:1005600090930001E13049F028F0E23061F060E062
:100570000C94C50010926E00FACF90916F009D7F91
:1005800090936F00F4CF909170009D7F90937000D6
:1005900091E09093B0009091B100987F9460909317
:1005A000B1001092B300E3CFAF92BF92CF92DF922F
:1005B000EF92FF920F931F93CF93DF936C017B0118
:1005C0008B01040F151FEB015E01AE18BF08C017A9
:1005D000D10759F06991D601ED91FC910190F0811C
:1005E000E02DC6010995892B79F7C501DF91CF91DF
:1005F0001F910F91FF90EF90DF90CF90BF90AF9041
:100600000895FC01538D448D252F30E0842F90E018
:10061000821B930B541710F0CF96089501970895FD
:10062000FC01918D828D981761F0A28DAE0FBF2FC6
:10063000B11D5D968C91928D9F5F9F73928F90E01C
:1006400008958FEF9FEF0895FC01918D828D98178B
:1006500031F0828DE80FF11D858D90E008958FEFC8
:100660009FEF0895FC01918D228D892F90E0805C91
:100670009F4F821B91098F73992708958CE391E016
:100680000E94320321E0892B09F420E0822F089593
:1006900080E090E0892B29F00E943E0381110C94A8
:1006A00000000895FC01A48DA80FB92FB11DA35A15
:1006B000BF4F2C91848D90E001968F739927848F82
:1006C000A689B7892C93A089B1898C9183708064A5
:1006D0008C93938D848D981306C00288F389E02D46
:1006E00080818F7D80830895EF92FF920F931F93F7
:1006F000CF93DF93EC0181E0888F9B8D8C8D9813D5
:100700001AC0E889F989808185FF15C09FB7F894E0
:10071000EE89FF896083E889F9898081837080642C
:1007200080839FBF81E090E0DF91CF911F910F9177
:10073000FF90EF900895F62E0B8D10E00F5F1F4F86
:100740000F731127E02E8C8D8E110CC00FB607FC95
:10075000FACFE889F989808185FFF5CFCE010E9423
:100760005203F1CFEB8DEC0FFD2FF11DE35AFF4F3C
:10077000F0829FB7F8940B8FEA89FB8980818062B1
:10078000CFCFCF93DF93EC01888D8823B9F0AA896E
:10079000BB89E889F9898C9185FD03C0808186FD3C
:1007A0000DC00FB607FCF7CF8C9185FFF2CF80818B
:1007B00085FFEDCFCE010E945203E9CFDF91CF91AB
:1007C0000895FC0101900020E9F73197AF01481B23
:1007D000590BBC018CE391E00C94D4028F929F9250
:1007E000AF92BF920F931F93CF93DF93CDB7DEB736
:1007F000A1970FB6F894DEBF0FBECDBF19A242304D
:1008000008F44AE08E010F5D1F4F842E912CB12C0D
:10081000A12CA50194010E946A0AE62FB901CA0120
:10082000EA30F4F4E05DD801EE938D01232B242B04
:10083000252B79F790E080E0109719F0CD010E9408
:10084000E103A1960FB6F894DEBF0FBECDBFDF91D6
:10085000CF911F910F91BF90AF909F908F9008956F
:10086000E95CE1CF1F920F920FB60F9211242F93E4
:100870003F938F939F93AF93BF9380913801909153
:100880003901A0913A01B0913B013091330123E04D
:10089000230F2D3758F50196A11DB11D209333016B
:1008A0008093380190933901A0933A01B0933B01B2
:1008B0008091340190913501A0913601B0913701BA
:1008C0000196A11DB11D8093340190933501A09331
:1008D0003601B0933701BF91AF919F918F913F91B6
:1008E0002F910F900FBE0F901F90189526E8230FA1
:1008F0000296A11DB11DD2CF1F920F920FB60F927B
:1009000011242F933F934F935F936F937F938F9314
:100910009F93AF93BF93EF93FF93809127019091A3
:100920002801A0912901B0912A01892B8A2B8B2BB8
:10093000D1F190912201E0912301F0912401808175
:10094000892780838091270190912801A091290116
:10095000B0912A01181619061A061B069CF48091FC
:10096000270190912801A0912901B0912A010197B6
:10097000A109B1098093270190932801A09329012F
:10098000B0932A01FF91EF91BF91AF919F918F9109
:100990007F916F915F914F913F912F910F900FBE7B
:1009A0000F901F901895809100010E94A802EACF35
:1009B0001F920F920FB60F9211242F933F934F93D4
:1009C0005F936F937F938F939F93AF93BF93EF93B7
:1009D000FF938CE391E00E945203FF91EF91BF914E
:1009E000AF919F918F917F916F915F914F913F91C7
:1009F0002F910F900FBE0F901F9018951F920F927E
:100A00000FB60F9211242F938F939F93EF93FF9321
:100A1000E0914C01F0914D018081E0915201F09103
:100A2000530182FD1BC09081809155018F5F8F73B0
:100A300020915601821741F0E0915501F0E0E45C0D
:100A4000FE4F958F80935501FF91EF919F918F916C
:100A50002F910F900FBE0F901F9018958081F4CFAB
:100A6000ECE3F1E01382128288EE93E0A0E0B0E0C4
:100A700084839583A683B78385E091E09183808307
:100A800085EC90E09587848784EC90E09787868753
:100A900080EC90E0918B808B81EC90E0938B828B4B
:100AA00082EC90E0958B848B86EC90E0978B868B24
:100AB000118E128E138E148EA9EDB1E082E0159680
:100AC0008C93159786E116968C931697E1EBF0E0E0
:100AD000E4911796EC931797EDE9F0E0E4911896FE
:100AE000EC93189740E85EE360E070E01D964D934C
:100AF0005D936D937C9350970895789484B582604C
:100B000084BD84B5816084BD85B5826085BD85B5B1
:100B1000816085BD80916E00816080936E0010922F
:100B200081008091810082608093810080918100AA
:100B3000816080938100809180008160809380003B
:100B40008091B10084608093B1008091B000816099
:100B50008093B00080917A00846080937A008091C5
:100B60007A00826080937A0080917A00816080931D
:100B70007A0080917A00806880937A001092C10098
:100B8000E0914C01F0914D0182E08083E0914801B9
:100B9000F09149011082E0914A01F0914B018FECF4
:100BA000808310925401E0915001F091510186E050
:100BB0008083E0914E01F0914F01808180618083BC
:100BC000E0914E01F0914F01808188608083E09137
:100BD0004E01F0914F01808180688083E0914E0149
:100BE000F0914F0180818F7D808362E08091DE01F2
:100BF0000E9411012FB7F89480913801909139012A
:100C0000A0913A01B0913B012FBF805D9740A109AF
:100C1000B1098093E2019093E301A093E401B093C2
:100C2000E50187E38093EB0161E083E00E9411011D
:100C300061E085E00E94110161E088E00E941101FD
:100C400061E089E00E94110104EA10E068EB262EC1
:100C500060E0362E0E949901882309F4AEC080918D
:100C6000DF018C3009F484C048F48B3001F1C12CD1
:100C7000D12C40ECE42E4FE7F42E43C08551823056
:100C8000B0F7B090DB016B2D70E0762F66276627FA
:100C90007F778091DC01682B90E080E00E94410921
:100CA0002DEC3CEC4CEC5DE30E94F8097DC06091BA
:100CB000DB0170E090E080E00E9441096B017C0163
:100CC000C091DC01C7FF0AC0AC019B0160E070E08D
:100CD00080E89FEB0E94A0086B017C016C2F6F7075
:100CE00070E090E080E00E9443092DEC3CEC4CEC7D
:100CF0005DE30E94F809A70196010E94A1086B011B
:100D00007C01A7019601C701B6010E94650A8823EC
:100D100009F45AC083E191E00E94E1038FE191E080
:100D20000E94E103A7019601C701B6010E94650A6E
:100D3000882309F4DBC060E083E00E94C50060E026
:100D400085E00E94C50060E088E00E94C50060E088
:100D500089E00E94C500A0E0B0E0AB2B09F47ACF97
:100D60000E943E03882309F475CF0E94000072CFD1
:100D7000B090DB016B2D70E090E080E00E944109B3
:100D80006B017C016091DC016F7070E090E080E0AD
:100D90000E9443092DEC3CEC4CEC5DE30E94F80909
:100DA000A70196010E94A1086B017C01B7FEA9CFA3
:100DB000F7FAF094F7F8F094A4CFC12CD12C30ECD2
:100DC000E32E3FE7F32EA6CF46015701E894B7F88C
:100DD0002FEF3FEF4FE75FE7C501B4010E94650ABF
:100DE00081110DC02FEF3FEF4FE75FE7C501B40161
:100DF0000E940D0918161CF487E191E08DCF2FEFAA
:100E00003FEF4FE75FE4C701B6010E94F3091816F0
:100E10001CF48BE191E080CF2FEF3FEF4FE75FECC9
:100E2000C701B6010E940D0987FDF3CF20E030E035
:100E3000A901C701B6010E940D0987FF54C06DE2E8
:100E40008CE391E00E947403C701B60190582AE038
:100E500037ED43EA5BE30E94A1082B013C010E94AD
:100E600012094B015C010E9441099B01AC01C301C5
:100E7000B2010E94A0082B013C014AE0C501B40167
:100E80000E94EE036EE28CE391E00E94740320E086
:100E900030E040E251E4C301B2010E94F8092B01A5
:100EA0003C010E9412094B01B12CA12C4AE0C50162
:100EB000B4010E94EE03C501B4010E9441099B01E7
:100EC000AC01C301B2010E94A00820E030E040E282
:100ED00051E40E94F8090E94120990E080E04AE083
:100EE0000E94EE031BCFC701B601B1CF20E030E076
:100EF00044E352E4C701B6010E94F30918160CF04E
:100F0000F9C080910001893049F5E8E6F0E0C4912C
:100F1000C7FDC8C061E089E00E941101CC2309F43B
:100F20008CC0C23009F0A0C08091B100887F83607E
:100F30008093B10089EF8093B3008FEF9FEFDC01C6
:100F40008093270190932801A0932901B0932A014F
:100F500080917000826080937000A4C08F3F09F080
:100F6000A1C089E080930001E8E6F0E0C491CF3FA2
:100F700009F498C0C13019F150F0C23009F43CC0F6
:100F8000C7FD90C061E089E00E941101CACF14BC86
:100F900015BC84B5826084BD85B5816085BDF801CE
:100FA0008491E82FF0E0EE0FFF1FED58FF4F859181
:100FB0009491F101849180932601C0E0ABCF10920F
:100FC0008000109281008091810088608093810070
:100FD00080918100816080938100F8018491E82FE5
:100FE000F0E0EE0FFF1FED58FF4F85919491F10156
:100FF0008491809325018ECF1092B0001092B100A1
:101000008091B00082608093B0008091B1008160D7
:101010008093B100F8018491E82FF0E0EE0FFF1FFC
:10102000ED58FF4F85919491909324018093230173
:10103000F1018491809322016DCF85B5887F836013
:1010400085BD8CE787BD8FEF9FEFDC0180932F017B
:1010500090933001A0933101B093320180916E00E2
:10106000826080936E001EC0C130E1F580918100E6
:10107000887F8160809381008FE39FE19093890056
:10108000809388008FEF9FEFDC0180932B0190937A
:101090002C01A0932D01B0932E0180916F008260EE
:1010A00080936F0061E083E00E94C50061E088E00A
:1010B0000E94C50060E085E00E94C50020E030E0AD
:1010C0004CE052E4C701B6010E94F3091816B4F4CB
:1010D00061E083E00E94C50061E088E00E94C500F5
:1010E00060E01FC0C23021F0C111DCCF8FE3AACF76
:1010F0008FE321CF89E00E94A802E0CF20E030E01A
:1011000048EC51E4C701B6010E940D0960E087FF79
:1011100012C083E00E94C50060E088E00E94C50024
:1011200061E085E00E94C50064EF71E080E090E03E
:101130000E94670110CE83E00E94C50060E0CDCF21
:101140005058BB27AA270E94B8080C94B9090E94DE
:10115000AB0938F00E94B20920F039F49F3F19F42E
:1011600026F40C94A8090EF4E095E7FB0C94A20970
:10117000E92F0E94CA0958F3BA1762077307840758
:10118000950720F079F4A6F50C94EC090EF4E0959F
:101190000B2EBA2FA02D0B01B90190010C01CA0131
:1011A000A0011124FF27591B99F0593F50F4503EDC
:1011B00068F11A16F040A22F232F342F4427585FCE
:1011C000F3CF469537952795A795F0405395C9F7E6
:1011D0007EF41F16BA0B620B730B840BBAF091509E
:1011E000A1F0FF0FBB1F661F771F881FC2F70EC03D
:1011F000BA0F621F731F841F48F487957795679510
:10120000B795F7959E3F08F0B0CF9395880F08F0FB
:101210009927EE0F9795879508950E947E0908F407
:1012200081E008950E94D20988F09F5798F0B92F65
:101230009927B751B0F0E1F0660F771F881F991F0B
:101240001AF0BA95C9F714C0B13091F00E94EC09B8
:10125000B1E008950C94EC09672F782F8827B85FC8
:1012600039F0B93FCCF3869577956795B395D9F763
:101270003EF490958095709561957F4F8F4F9F4F6D
:101280000895E89409C097FB3EF490958095709579
:1012900061957F4F8F4F9F4F9923A9F0F92F96E9C2
:1012A000BB279395F695879577956795B795F11137
:1012B000F8CFFAF4BB0F11F460FF1BC06F5F7F4FD4
:1012C0008F4F9F4F16C0882311F096E911C07723E6
:1012D00021F09EE8872F762F05C0662371F096E8EF
:1012E000862F70E060E02AF09A95660F771F881FBE
:1012F000DAF7880F9695879597F90895990F000862
:10130000550FAA0BE0E8FEEF16161706E807F907D7
:10131000C0F012161306E407F50798F0621B730B72
:10132000840B950B39F40A2661F0232B242B252BF3
:1013300021F408950A2609F4A140A6958FEF811D96
:10134000811D089597F99F6780E870E060E0089537
:101350009FEF80EC089500240A94161617061806CD
:101360000906089500240A941216130614060506A9
:101370000895092E0394000C11F4882352F0BB0F3A
:1013800040F4BF2B11F460FF04C06F5F7F4F8F4F9D
:101390009F4F089557FD9058440F551F59F05F3FD8
:1013A00071F04795880F97FB991F61F09F3F79F087
:1013B00087950895121613061406551FF2CF469509
:1013C000F1DF08C0161617061806991FF1CF86958B
:1013D0007105610508940895E894BB27662777276F
:1013E000CB0197F908950E947E0908F48FEF0895C4
:1013F0000E940B0A0C94B9090E94AB0938F00E94B4
:10140000B20920F0952311F00C94A2090C94A809BC
:1014100011240C94ED090E94CA0970F3959FC1F341
:10142000950F50E0551F629FF001729FBB27F00D92
:10143000B11D639FAA27F00DB11DAA1F649F6627E7
:10144000B00DA11D661F829F2227B00DA11D621F36
:10145000739FB00DA11D621F839FA00D611D221FF0
:10146000749F3327A00D611D231F849F600D211DD4
:10147000822F762F6A2F11249F5750409AF0F1F057
:1014800088234AF0EE0FFF1FBB1F661F771F881FC0
:1014900091505040A9F79E3F510580F00C94A2094D
:1014A0000C94ED095F3FE4F3983ED4F3869577956D
:1014B0006795B795F795E7959F5FC1F7FE2B880F66
:1014C000911D9695879597F908950E947E09880B3E
:1014D000990B0895A1E21A2EAA1BBB1BFD010DC09A
:1014E000AA1FBB1FEE1FFF1FA217B307E407F507D4
:1014F00020F0A21BB30BE40BF50B661F771F881FB0
:10150000991F1A9469F760957095809590959B0145
:10151000AC01BD01CF010895EE0FFF1F0590F491BE
:10152000E02D0994F894FFCFFF000000007403D46D
:10153000020103C1033203100324036E616E0069CC
:0A1540006E66006F7666000D0A006B
:107E0000112484B714BE81FFF0D085E080938100F7
:107E100082E08093C00088E18093C10086E0809377
:107E2000C20080E18093C4008EE0C9D0259A86E02C
:107E300020E33CEF91E0309385002093840096BBD3
:107E4000B09BFECF1D9AA8958150A9F7CC24DD24C4
:107E500088248394B5E0AB2EA1E19A2EF3E0BF2EE7
:107E6000A2D0813461F49FD0082FAFD0023811F036
:107E7000013811F484E001C083E08DD089C08234E0
:107E800011F484E103C0853419F485E0A6D080C0E4
:107E9000853579F488D0E82EFF2485D0082F10E0AE
:107EA000102F00270E291F29000F111F8ED06801E7
:107EB0006FC0863521F484E090D080E0DECF843638
:107EC00009F040C070D06FD0082F6DD080E0C81688
:107ED00080E7D80618F4F601B7BEE895C0E0D1E017
:107EE00062D089930C17E1F7F0E0CF16F0E7DF06D8
:107EF00018F0F601B7BEE89568D007B600FCFDCFD4
:107F0000A601A0E0B1E02C9130E011968C91119780
:107F100090E0982F8827822B932B1296FA010C0160
:107F200087BEE89511244E5F5F4FF1E0A038BF0790
:107F300051F7F601A7BEE89507B600FCFDCF97BE46
:107F4000E89526C08437B1F42ED02DD0F82E2BD052
:107F50003CD0F601EF2C8F010F5F1F4F84911BD097
:107F6000EA94F801C1F70894C11CD11CFA94CF0C13
:107F7000D11C0EC0853739F428D08EE10CD085E9AC
:107F80000AD08FE07ACF813511F488E018D01DD067
:107F900080E101D065CF982F8091C00085FFFCCF94
:107FA0009093C60008958091C00087FFFCCF809118
:107FB000C00084FD01C0A8958091C6000895E0E648
:107FC000F0E098E1908380830895EDDF803219F02E
:107FD00088E0F5DFFFCF84E1DECF1F93182FE3DFCA
:107FE0001150E9F7F2DF1F91089580E0E8DFEE27F6
:047FF000FF270994CA
:027FFE00040479
:00000001FF
