:020000040000FA
:100000000C9473000C949B000C949B000C949B002C
:100010000C949B000C949B000C949B000C94860CFD
:100020000C949B000C949B000C949B000C949B00E4
:100030000C949B000C949B000C949B000C949B00D4
:100040000C943C0C0C949B000C94080D0C94E20C4A
:100050000C949B000C949B000C949B000C949B00B4
:100060000C943A0D0C949B00005EBCE2613FDD8372
:10007000C29C7E20A3FD1F41009D23BE46DB65F888
:100080008C11AF32CA57E974020000000024002727
:10009000002A0000000000250028002B00000000BE
:1000A0000800020100000304070000000000000037
:1000B00000000000002300260029000404040404BA
:1000C0000404040202020202020303030303030105
:1000D00002040810204080010204081020010204DC
:1000E00008102000590E11241FBECFEFD8E0DEBF4C
:1000F000CDBF11E0A0E0B1E0EEE5F1E302C0059074
:100100000D92AE3CB107D9F723E0AEECB1E001C0EF
:100110001D92AF3AB207E1F710E0C3E7D0E004C0A8
:100120002197FE010E94A718C237D107C9F70E9484
:10013000FD0E0C94AD180C940000833081F028F46F
:10014000813099F08230A9F008958730A9F0883085
:10015000C9F08430B1F4809180008F7D03C080911C
:1001600080008F7780938000089584B58F7784BD59
:10017000089584B58F7DFBCF8091B0008F778093F9
:10018000B00008958091B0008F7DF9CFCF93DF93B9
:10019000282F30E0F901E356FF4F8491F901E15334
:1001A000FF4FD491F901E554FF4FC491CC23A1F046
:1001B00081110E949D00EC2FF0E0EE0FFF1FEF5425
:1001C000FF4FA591B491EC91ED2381E090E009F40B
:1001D00080E0DF91CF91089580E090E0FACF1F9307
:1001E000CF93DF93282F30E0F901E356FF4F84913E
:1001F000F901E153FF4FD491F901E554FF4FC49148
:10020000CC23A9F0162F81110E949D00EC2FF0E065
:10021000EE0FFF1FED56FF4FA591B4918FB7F894E5
:10022000EC91111108C0D095DE23DC938FBFDF91D4
:10023000CF911F910895DE2BF8CFCF93DF9390E0FD
:10024000FC01E153FF4F249185549F4FFC018491A1
:100250008823C9F090E0880F991FFC01E757FF4FF2
:10026000A591B491FC01ED56FF4FC591D491611158
:100270000DC09FB7F8948C91209582238C93888130
:10028000282328839FBFDF91CF910895623051F4D6
:100290009FB7F8943C91822F809583238C93E881BB
:1002A0002E2BEFCF8FB7F894EC912E2B2C938FBF82
:1002B000EACF3FB7F8948091550290915602A091F1
:1002C0005702B091580226B5A89B05C02F3F19F0E0
:1002D0000196A11DB11D3FBFBA2FA92F982F8827C6
:1002E000BC01CD01620F711D811D911D42E0660FA1
:1002F000771F881F991F4A95D1F708958F929F9273
:10030000AF92BF92CF92DF92EF92FF926B017C018E
:100310000E9459014B015C01C114D104E104F104B4
:10032000B9F00E945901681979098A099B09683E48
:1003300073408105910580F321E0C21AD108E108DC
:10034000F10888EE880E83E0981EA11CB11CE4CF52
:10035000FF90EF90DF90CF90BF90AF909F908F90E5
:1003600008952FB7F89460915102709152028091D4
:100370005302909154022FBF0895089508959091CB
:10038000000189130BC0E8E8F0E0E4919FEF90933F
:100390000001E13049F028F0E23061F060E00C94B7
:1003A000EF0010926E00FACF90916F009D7F9093B6
:1003B0006F00F4CF909170009D7F9093700091E05A
:1003C0009093B0009091B100987F94609093B100A9
:1003D0001092B300E3CFDC01ED91FC910190F0812C
:1003E000E02D0994AF92BF92CF92DF92EF92FF92ED
:1003F0000F931F93CF93DF936C017B018B01040F4D
:10040000151FEB015E01AE18BF08C017D10759F0E8
:100410006991D601ED91FC910190F081E02DC6012A
:100420000995892B79F7C501DF91CF911F910F9124
:10043000FF90EF90DF90CF90BF90AF900895FC01B8
:10044000538D448D252F30E0842F90E0821B930B39
:10045000541710F0CF96089501970895FC01918DDF
:10046000828D981761F0A28DAE0FBF2FB11D5D96E2
:100470008C91928D9F5F9F73928F90E008958FEF84
:100480009FEF0895FC01918D828D981731F0828D38
:10049000E80FF11D858D90E008958FEF9FEF08958F
:1004A000FC01918D228D892F90E0805C9F4F821BF3
:1004B00091098F739927089589EC92E00E94500268
:1004C00021E0892B09F420E0822F089580E090E05C
:1004D000892B29F00E945C0281110C940000089580
:1004E000FC01A48DA80FB92FB11DA35ABF4F2C91A9
:1004F000848D90E001968F739927848FA689B789A0
:100500002C93A089B1898C91837080648C93938D96
:10051000848D981306C00288F389E02D80818F7D39
:1005200080830895EF92FF920F931F93CF93DF93F1
:10053000EC0181E0888F9B8D8C8D98131AC0E8891F
:10054000F989808185FF15C09FB7F894EE89FF89EE
:100550006083E889F98980818370806480839FBF8C
:1005600081E090E0DF91CF911F910F91FF90EF908C
:100570000895F62E0B8D10E00F5F1F4F0F7311279C
:10058000E02E8C8D8E110CC00FB607FCFACFE889D7
:10059000F989808185FFF5CFCE010E947002F1CFED
:1005A000EB8DEC0FFD2FF11DE35AFF4FF0829FB74B
:1005B000F8940B8FEA89FB8980818062CFCFCF933B
:1005C000DF93EC01888D8823B9F0AA89BB89E8897B
:1005D000F9898C9185FD03C0808186FD0DC00FB621
:1005E00007FCF7CF8C9185FFF2CF808185FFEDCF9F
:1005F000CE010E947002E9CFDF91CF910895DC0116
:1006000080E0615090F09D919827E92FEF70F0E025
:10061000E859FF4F2491E92FE295EF70F0E0E85898
:10062000FF4FE491822F8E27ECCF0895DC012C91AF
:100630001196ED91FC91F8948181822B81839281B6
:10064000322F30959323928387E090E00197F1F762
:1006500081818323818383E290E00197F1F7908188
:100660007894EFECF0E03197F1F7922381E009F410
:1006700080E00895FC0190810180F281E02D292F16
:10068000209560FF14C0F894828182238283818147
:10069000892B8183A3E2B0E01197F1F78281982B37
:1006A0009283789487ED90E00197F1F70895F8949C
:1006B0008281822382838181892B8183AFEFB0E0A5
:1006C0001197F1F78281982B928378948FE090E0D4
:1006D000EBCFDF92EF92FF920F931F93CF93DF93B5
:1006E000EC01D62EE42E08E010E0FF24F39461E044
:1006F0008D2D8F2109F460E0CE010E943A03FF0C9A
:1007000001501109A1F7E11010C0F894E981FA81B4
:1007100091818881809589238183E981FA81928101
:1007200088818095892382837894DF91CF911F916E
:100730000F91FF90EF90DF900895EF92FF920F934B
:100740001F93CF93DF938C017B0140E065E50E940E
:100750006903E70188E0E80EF11C699140E0C801F7
:100760000E946903CE15DF05C1F7DF91CF911F917C
:100770000F91FF90EF900895FC0190810180F2812C
:10078000E02DF8948181292F20958223818378940C
:100790003DE743E050E0315029F1DA011197F1F7DC
:1007A00080818923C1F3F8948281822382838181AD
:1007B000892B81837894ABE7B7E01197F1F7F89430
:1007C000818182238183A3E1B1E01197F1F78081D8
:1007D000982381E009F080E07894E3E6F6E0319731
:1007E000F1F7089580E008956F927F928F929F9223
:1007F000AF92BF92CF92DF92EF92FF920F931F932F
:10080000CF93DF938C01EB0180917B0390917C036C
:100810000E94BC03882309F43FC0B80180917B0388
:1008200090917C030E949D0340E06EEB80917B03DE
:1008300090917C030E9469037E016E0189E0C80EDD
:10084000D11C8E01A0907B03B0907C0388E0882EA1
:10085000912C712C66246394C5010E9416038111AA
:100860007628660CE1E08E1A9108B1F7F8017192D2
:100870008F01CE16DF0631F780917B0390917C03C8
:100880000E94BC03813041F4F70181917F01811105
:1008900005C0E017F107C1F790E008C068E0CE019D
:1008A0000E94FF0291E028852813F6CF892FDF915F
:1008B000CF911F910F91FF90EF90DF90CF90BF905D
:1008C000AF909F908F907F906F90089508952091A2
:1008D000EF01260F3327331F21323105ECF420912D
:1008E0009F02FC0190E080E0243069F082E00895EE
:1008F000A091EF012191AC0141535E4FA40FB52FA0
:10090000B11D2C930196861798F38091EF01680F23
:100910006093EF0180E0089581E0089510929F02B6
:1009200081E080939E021092790261E082E10E9450
:10093000EF0061E083E10E94EF00E9EBF0E08081ED
:100940008E7F808380818D7F808388E48093B80050
:1009500085E48093BC000895CF93DF9391E090935A
:10096000CE018823B9F0C091B800D091BA0080912F
:10097000BC008A7B8093BC0060E082E10E94EF00B3
:1009800060E083E10E94EF000E948E04D093BA00E1
:10099000C093B800DF91CF910895CF92DF92EF928C
:1009A000FF920F931F93CF93DF93D091C80281E002
:1009B000D13208F09CC0C091C7020E9459016B015E
:1009C0007C0180919F0281116CC082E080939F0224
:1009D00081E080939E028FEF80939D0210929C0293
:1009E000D0939B02A7EAB2E0EBE7F2E080E0D813F5
:1009F0008DC010927A0280917A02CC0FC82BC093DE
:100A00007A0280917902813009F084C010927902D3
:100A10000E9459016B017C0180917A028093BB0096
:100A20008091A1029091A202A091A302B091A40290
:100A3000892B8A2B8B2BA1F00E9459010091A102D6
:100A40001091A2022091A3023091A4026C197D0999
:100A50008E099F09061717072807390708F442C0AF
:100A60008091BC0083FDD8CF85EC8093BC000E94B0
:100A700059016B017C0180919F02823009F44CC0C6
:100A800080919D028F3F09F469C080919D02803260
:100A900009F466C080919D02803309F463C084E04C
:100AA00026C08091A1029091A202A091A302B091D0
:100AB000A402892B8A2B8B2B09F483CF0E94590126
:100AC0000091A1021091A2022091A3023091A402F0
:100AD0006C197D098E099F09061717072807390722
:100AE00008F06FCF8091A0020E94AC0485E01092C4
:100AF000A6021092C8021092A502DF91CF911F9119
:100B00000F91FF90EF90DF90CF9008959D9191937A
:100B10008F5F6DCF85EEA9CF8091A1029091A20247
:100B2000A091A302B091A402892B8A2B8B2B09F4EC
:100B3000A2CF0E9459010091A1021091A20220911E
:100B4000A3023091A4026C197D098E099F09061732
:100B500017072807390708F08ECFC4CF80E0C7CF2A
:100B600082E0C5CF83E0C3CFCF92DF92EF92FF92B6
:100B70000F931F93CF93DF93D82FC62F613208F0C6
:100B800098C00E9459016B017C0180919F028111E4
:100B90006BC081E080939F0280939E029FEF9093B1
:100BA0009D0210929C029C0F90939B0280937A026C
:100BB00080917A02DD0FD82BD0937A02809179024E
:100BC000813009F078C0109279020E9459016B01BE
:100BD0007C0180917A028093BB008091A102909168
:100BE000A202A091A302B091A402892B8A2B8B2B85
:100BF000A1F00E9459010091A1021091A20220913E
:100C0000A3023091A4026C197D098E099F09061771
:100C100017072807390708F448C08091BC0083FDF6
:100C2000D8CF85EC8093BC000E9459016B017C01F8
:100C300080919F02813009F440C080919C028C1702
:100C400010F4C0919C02EBE7F2E0A9E5B2E080E08D
:100C50008C1355C08C2FDF91CF911F910F91FF9076
:100C6000EF90DF90CF9008958091A1029091A20221
:100C7000A091A302B091A402892B8A2B8B2B09F49B
:100C800084CF0E9459010091A1021091A2022091EB
:100C9000A3023091A4026C197D098E099F090617E1
:100CA00017072807390708F070CF8091A0020E942B
:100CB000AC04C0E0CFCF85EEB5CF8091A10290917A
:100CC000A202A091A302B091A402892B8A2B8B2BA4
:100CD00009F4AECF0E9459010091A1021091A20225
:100CE0002091A3023091A4026C197D098E099F09FD
:100CF000061717072807390708F09ACFD6CF919122
:100D00009D938F5FA5CF0895E09117028091160201
:100D1000E81730F4F0E0E75AFD4F808190E0089545
:100D20008FEF9FEF089590911702809116022FEF99
:100D30003FEF981748F4E92FF0E0E75AFD4F208184
:100D400030E09F5F90931702C901089580911602C9
:100D500090911702891B990B0895CF92DF92EF9221
:100D6000FF920F931F93CF93DF937C01CB018A01F6
:100D70002091A502222389F0EB016B01C40ED51E40
:100D8000CC15DD0569F06991D701ED91FC910190D9
:100D9000F081E02DC7010995F3CF642F0E9467040D
:100DA000C801DF91CF911F910F91FF90EF90DF90DD
:100DB000CF900895CF93DF931F92CDB7DEB76983AD
:100DC0002091A5022223F9F02091C802203258F088
:100DD00021E030E0FC013383228390E080E00F903B
:100DE000DF91CF9108958091A602E82FF0E0E955B8
:100DF000FD4F998190838F5F8093A6028093C802F4
:100E000081E090E0ECCF61E0CE0101960E946704A2
:100E1000F7CF682F86E693E00C94DA0690E080E046
:100E20000895CF9360E08AE00E94EF0061E08BE0DC
:100E30000E94EF008BEC97E00197F1F78CE00E94A5
:100E4000C600CBE2892B39F08DE00E94C600CDE4CC
:100E5000892B09F0CEE461E08AE00E94EF00CE34F5
:100E6000B9F460E08BE00E94EF008BEC97E0019713
:100E7000F1F78CE00E94C600892B69F08DE00E949A
:100E8000C600892B09F4C3E561E08BE00E94EF0006
:100E90008C2FCF910895CDE2F7CFBF92CF92DF9202
:100EA000EF92FF920F931F93CF93DF93EC01B62E37
:100EB000C72E8D85811105C0CE010E94BC03811112
:100EC0000EC01B861D861C8680E0DF91CF911F918E
:100ED0000F91FF90EF90DF90CF90BF90089540E08A
:100EE00060EFCE010E94690301E0E12CD12C11E0FA
:100EF000CE010E941603F82ECE010E94160391E047
:100F0000F91218C0813099F51134D8F2DB86D1106E
:100F100002C081E08D878B81882399F22396EB2D87
:100F2000FC2DCF01089629912193E817F907D9F7ED
:100F300081E0CBCFEE2DF0E0F8120FC08B851817B3
:100F4000A0F4DE01AE0FBF1F13968C91802379F4BD
:100F5000F12C193008F41C87D12EEC0FFD1F838172
:100F6000902F9095892383830AC08113F1CFFE01CE
:100F7000EE0DF11D8381802B8383FF24F3946F2D6D
:100F8000CE010E943A031F5F000F11F4E39401E0C9
:100F900087E08E1508F0ACCFB7CFCF93DF93EC018D
:100FA00060E08E810E94EF0061E08E810E94EF0080
:100FB00060E08E810E94EF008BE891E00197F1F7ED
:100FC000DF91CF910895CF92DF92EF92FF920F932E
:100FD0001F93CF93DF936C017C0187E0E80EF11C37
:100FE000D0E0C0E0062F10E0B8010C2E02C07595CD
:100FF00067950A94E2F76170F70181917F010E9481
:10100000EF002196C430D10579F7C601DF91CF9169
:101010001F910F91FF90EF90DF90CF900C94CD0730
:10102000CF92DF92EF92FF920F931F93CF93DF93B4
:10103000EC01F62E642F8C810E94EF008D818F3F92
:1010400019F060E00E94EF000F2D10E08F8584FF03
:1010500025C06E0187E0C80ED11CF12CE12CB8012F
:101060000E2C02C0759567950A94E2F76170F6013F
:1010700081916F010E94EF00FFEFEF1AFF0A88E0F5
:10108000E816F10461F7CE01DF91CF911F910F9126
:10109000FF90EF90DF90CF900C94CD07B80184E0E3
:1010A000759567958A95E1F7CE010E94E3076F2D4C
:1010B000CE01DF91CF911F910F91FF90EF90DF90C4
:1010C000CF900C94E30740E0682F87E993E00C94FD
:1010D000100881E00E9463088BE39FE10197F1F71C
:1010E0000895CF93DF93823029F49091A6039860FE
:1010F0009093A6038093AA031092AB0380E480939D
:10110000AC0380E18093AD0380E58093AE0361E0A2
:1011100080919B030E941D0180919C038F3F19F0D9
:1011200061E00E941D0161E080919D030E941D010C
:10113000C7E9D3E09E01275933408091A60384FD7F
:101140000BC084E090E021962817390744F461E051
:101150008E810E941D01EECF88E090E0F4CF8BE3FA
:101160009DE00197F1F760E080919B030E94EF0002
:1011700060E080919D030E94EF0080919C038F3F6F
:1011800019F060E00E94EF008091A60384FD34C056
:1011900063E087E993E00E94E307CBE4D6E4CE0165
:1011A0000197F1F763E087E993E00E94E307219755
:1011B000F1F763E087E993E00E94E30783E592E0BB
:1011C0000197F1F762E087E993E00E94E3078091DD
:1011D000A60380620E94630884E08093A7038CE0EA
:1011E0000E9463080E94690882E08093A80386E059
:1011F000DF91CF910C94630880620E9463088BE4B6
:1012000096E40197F1F78091A60380620E9463083B
:1012100083E592E00197F1F78091A60380620E9436
:101220006308D5CF41E00E94100881E090E0089566
:10123000CF92DF92EF92FF920F931F93CF93DF93A2
:101240006C017B018A0181E08093A50288E680938E
:10125000C7021092A6021092C80290E080E00E949D
:1012600009070E94CD0463E088E60E94B40510924D
:10127000170280931602833050F480E0DF91CF9103
:101280001F910F91FF90EF90DF90CF90089586E629
:1012900093E00E949306C82F86E693E00E9493068F
:1012A000D82F86E693E00E949306282F229523707C
:1012B0009AE08F70299F800D11248831F0F62D2F30
:1012C00022952F70DF70299FD00D1124DC33A8F6F2
:1012D0002C2F22952770CF70299FC00D1124CC335D
:1012E00060F690E0F601918380838D2F90E0F70106
:1012F00091838083D0E0F801D183C08381E0BECFA9
:10130000FB0101900020E9F73197AF01461B570B15
:10131000DC01ED91FC910280F381E02D09948F9224
:101320009F92AF92BF92EF92FF920F931F93CF9332
:10133000DF93CDB7DEB7A1970FB6F894DEBF0FBE2F
:10134000CDBF7C01FA01CB0119A2223008F42AE0BA
:101350008E010F5D1F4F822E912CB12CA12CBF014D
:10136000A50194010E947118F901CA016A300CF5B7
:10137000605DD8016E938D01232B242B252B79F7EB
:1013800090E080E0109721F0BD01C7010E94800924
:10139000A1960FB6F894DEBF0FBECDBFDF91CF91FF
:1013A0001F910F91FF90EF90BF90AF909F908F9003
:1013B0000895695CDECFCF92DF92EF92FF920F9398
:1013C0001F93CF93DF936B01770FEE08FF08F7FEB3
:1013D0001BC0EC016DE20E94EB018C0144275527F4
:1013E000BA014C195D096E097F092AE0CE010E94FD
:1013F0008F09800F911FDF91CF911F910F91FF9067
:10140000EF90DF90CF9008952AE0B701A601DF9119
:10141000CF911F910F91FF90EF90DF90CF900C94A0
:101420008F092F923F924F925F926F927F928F928D
:101430009F92AF92BF92CF92DF92EF92FF921F9353
:10144000CF93DF93EC016A017B01722EAB01960111
:10145000CB01B6010E944C1869E371E0811126C0EE
:1014600046015701E894B7F82FEF3FEF4FE75FE7EA
:10147000C501B4010E944C1881110CC02FEF3FEF41
:101480004FE75FE7C501B4010E9482166DE371E08A
:10149000181664F02FEF3FEF4FE75FE4C701B60186
:1014A0000E94DA171816B4F461E471E0CE01DF91FE
:1014B000CF911F91FF90EF90DF90CF90BF90AF90B2
:1014C0009F908F907F906F905F904F903F902F9064
:1014D0000C9480092FEF3FEF4FE75FECC701B60197
:1014E0000E94821687FDE0CF20E030E0A901C7010D
:1014F000B6010E948216312C212C87FF09C06DE2B3
:10150000CE010E94EB011C01F7FAF094F7F8F09479
:1015100010E060E070E080E09FE3711641F020E0B1
:1015200030E040E251E40E9487161F5FF6CFA7012A
:1015300096010E9416162B013C010E94F9164B01E0
:101540005C012AE0BC01A401CE010E948F097C014C
:10155000E20CF31C1123C1F1C501B4010E9428174C
:101560009B01AC01C301B2010E9415164B015C0145
:101570006EE2CE010E94EB01E80EF91E115020F13F
:1015800020E030E040E251E4C501B4010E94DF17E1
:101590002B013C010E94F9164B01B12CA12C2AE031
:1015A000B501A401CE010E948F09E80EF91EC50104
:1015B000B4010E9428179B01AC01C301B2010E9433
:1015C00015164B015C01DACFC701DF91CF911F9156
:1015D000FF90EF90DF90CF90BF90AF909F908F9053
:1015E0007F906F905F904F903F902F9008950C9454
:1015F0008009CF92DF92EF92FF926C018AE0C816C9
:10160000D10434F465E471E087E993E00E94F70ABD
:101610000D2C000CEE08FF082AE0B701A601F7FE2A
:101620000DC06DE287E993E00E94EB014427552746
:10163000BA014C195D096E097F092AE087E993E038
:10164000FF90EF90DF90CF900C948F09E1E08091B4
:10165000AA038111E0E0E195F0E0E956FC4F8489AE
:1016600080680E9463088091440290914502823014
:10167000910509F46DC0C4F5009709F442C06FE408
:1016800071E00197C9F1E091AA03E23008F069C066
:10169000E150F0E0E956FC4F848980680E946308BD
:1016A00080914402909145029C01245031092230DE
:1016B000310508F058C080910101909102010E940B
:1016C000F90A6DE471E087E993E00E94F70A8091DE
:1016D0003C0290913D020E94F90A63E971E087E9BA
:1016E00093E00E94F70A60C084309105B9F19CF143
:1016F00067E871E0059739F687E993E00E94F70AF9
:10170000C2CF67E471E087E993E00E94F70A809115
:101710004A0290914B020E94F90A6DE471E087E958
:1017200093E00E94F70A80914802909149020E943A
:10173000F90A6DE471E087E993E00E94F70A80916D
:101740004602909147020E94F90A63E971E0D4CF02
:101750006DE571E0D1CF6BE671E0CECF69E771E066
:10176000CBCFE1E096CF01970397B8F58091420285
:10177000909143020E94F90A6DE471E087E993E0D9
:101780000E94F70A80914002909141020E94F90A5A
:101790006DE471E087E993E00E94F70A80913E02D0
:1017A00090913F020E94F90AE091AA03E23050F5BD
:1017B000E150F0E0E956FC4F8489845F80680E9424
:1017C000630880913A0268E971E0811102C06CE916
:1017D00071E087E993E00C94F70A40912A02509156
:1017E0002B0260912C0270912D0222E087E993E098
:1017F0000E94110A6FED87E993E00E94EB0165E911
:1018000071E06DCFE1E0D5CF85ED8093BC00809194
:10181000A1029091A202A091A302B091A402079606
:10182000A11DB11D23E0B695A795979587952A959B
:10183000D1F72091BC0024FD03C010929F020895AF
:101840004091A1025091A2026091A3027091A40262
:10185000452B462B472B69F30097A105B10541F0B5
:101860002AE22A95F1F700C00197A109B109E1CF59
:101870008091A0020C94AC041F920F920FB60F92AD
:1018800011242F933F938F939F93AF93BF93809196
:10189000510290915202A0915302B09154023091A2
:1018A000500223E0230F2D3758F50196A11DB11DDD
:1018B000209350028093510290935202A0935302BE
:1018C000B09354028091550290915602A091570214
:1018D000B09158020196A11DB11D809355029093BD
:1018E0005602A0935702B0935802BF91AF919F91B7
:1018F0008F913F912F910F900FBE0F901F901895D1
:1019000026E8230F0296A11DB11DD2CF1F920F9280
:101910000FB60F9211242F933F934F935F936F93C2
:101920007F938F939F93AF93BF93EF93FF93809198
:101930001D0290911E02A0911F02B0912002892BDE
:101940008A2B8B2BD1F190911802E0911902F09122
:101950001A0280818927808380911D0290911E0246
:10196000A0911F02B0912002181619061A061B0634
:101970009CF480911D0290911E02A0911F02B091D3
:1019800020020197A109B10980931D0290931E02C4
:10199000A0931F02B0932002FF91EF91BF91AF91EE
:1019A0009F918F917F916F915F914F913F912F9177
:1019B0000F900FBE0F901F901895809100010E940C
:1019C000BF01EACF1F920F920FB60F9211242F93EF
:1019D0003F934F935F936F937F938F939F93AF93B7
:1019E000BF93EF93FF9389EC92E00E947002FF9106
:1019F000EF91BF91AF919F918F917F916F915F9187
:101A00004F913F912F910F900FBE0F901F901895FF
:101A10001F920F920FB60F9211242F938F939F93C3
:101A2000EF93FF93E091D902F091DA028081E09187
:101A3000DF02F091E00282FD1BC090818091E20202
:101A40008F5F8F732091E302821741F0E091E202F1
:101A5000F0E0E753FD4F958F8093E202FF91EF9105
:101A60009F918F912F910F900FBE0F901F901895FF
:101A70008081F4CF1F920F920FB60F9211242F93F3
:101A80003F934F935F936F937F938F939F93AF9306
:101A9000BF93EF93FF938091B900887F803609F45C
:101AA0004AC0F0F5883209F4A7C018F5803109F46E
:101AB0009BC0B8F4882309F4F9C0883009F494C0B5
:101AC000FF91EF91BF91AF919F918F917F916F9116
:101AD0005F914F913F912F910F900FBE0F901F90EC
:101AE0001895883109F488C0803251F780939D029F
:101AF00014C0803409F49DC040F48033B9F38833B6
:101B0000F9F680939D0285ECB0C0803509F485C05C
:101B1000883509F496C0883499F60E94040CD0CF19
:101B2000883909F48CC038F5883729F050F48836A4
:101B300011F0803729F683E080939F021092110202
:101B400057C0883809F47BC0803919F0803809F013
:101B5000B7CF80911102803208F071C0E09111027C
:101B600081E08E0F809311028091BB00F0E0EF5076
:101B7000FE4F80833DC0803B39F0E0F4803A09F4A9
:101B800079C0883A09F09CCF84E080939F0210923C
:101B9000F0011092EF01E0911402F0911502099505
:101BA0008091EF0181110FC081E08093EF011092CD
:101BB000CF0109C0803C09F4A6CF883C09F4A3CF2B
:101BC000883B09F07DCFE091F00181E08E0F80939A
:101BD000F001F0E0E153FE4F80818093BB009091D3
:101BE000F0018091EF0129C080917A028093BB00BF
:101BF00085EC8093BC0064CF90919C0280919B0205
:101C0000981758F5E0919C0281E08E0F80939C021A
:101C1000F0E0E558FD4F8081E9CFE0919C0281E042
:101C20008E0F80939C028091BB00F0E0E558FD4F41
:101C3000808390919C0280919B029817C8F285E85E
:101C4000D8CFE0919C0281E08E0F80939C0280911E
:101C5000BB00F0E0E558FD4F808380919E0281112A
:101C60005CCF81E08093790284EA8093BC0010927B
:101C70009F0226CF85EC8093BC0010929F0280913A
:101C80001102803230F4E0911102F0E0EF50FE4F8B
:101C900010826091110270E0E0911202F091130243
:101CA00081EF91E00995109211020ACF10929D02E6
:101CB00034CFCF93E9ECF2E01382128288EE93E006
:101CC000A0E0B0E084839583A683B7832DE031E064
:101CD0003183208325EC30E03587248724EC30E005
:101CE0003787268720EC30E0318B208B21EC30E0E9
:101CF000338B228B22EC30E0358B248B26EC30E0CA
:101D0000378B268B118E128E138E148EE6E6F3E03F
:101D10001382128284839583A683B7838FE191E037
:101D200091838083E7E9F3E01382128281E391E0FB
:101D30009183808387E08483CFEFC58386E08683A9
:101D400085E0878384E0808783E0818782E08287E3
:101D50001386148615861686178681E00E94710800
:101D600060E080E10E941D01EFEDF0E0E491A9E860
:101D7000B3E0EC93EBECF0E0E491F0E0EE0FFF1F4A
:101D8000EF54FF4F8591949112969C938E931197E7
:101D90001B961C921B971D961C921D971C961C92BD
:101DA0001C971A961C921A9719961C9219971896B6
:101DB0001C92189717961C92179716961C921697B6
:101DC00015961C92159714961C92149713961C92B4
:101DD0001397E2E7F3E017821086108289E083838D
:101DE00081E08483858386831182168A158AC38B5A
:101DF000148AB287A187CF910895CF93DF93CDB78F
:101E0000DEB763970FB6F894DEBF0FBECDBF7894F0
:101E100084B5826084BD84B5816084BD85B58260EF
:101E200085BD85B5816085BD80916E0081608093A0
:101E30006E00109281008091810082608093810009
:101E40008091810081608093810080918000816019
:101E5000809380008091B10084608093B100809174
:101E6000B00081608093B00080917A00846080939C
:101E70007A0080917A00826080937A0080917A0063
:101E8000816080937A0080917A00806880937A00E4
:101E90001092C10010921702109216021092A60220
:101EA0001092C8020E948E048DEB91E0909315026F
:101EB000809314028EEB91E09093130280931202B0
:101EC00013E001E0E0917B03F0917C03138615861B
:101ED0001486128611861086178216821582148245
:101EE00013821092790310927A0362E370E080E02B
:101EF00090E00E947E01BE01665F7F4F80917B0370
:101F000090917C030E944D07882309F47AC067E012
:101F1000CE010A960E94FF0299898913ECCF809125
:101F200079038F5F809379038A85883231F008F0D6
:101F30004EC0803111F08232F1F680917A038F5FCA
:101F400080937A0380917203811128C080917B0372
:101F500090917C030E94BC03BE01665F7F4F80911D
:101F60007B0390917C030E949D0340E064EB809191
:101F70007B0390917C030E94690380917B03909185
:101F80007C030E941603F82E80917B0390917C03C2
:101F90000E94BC03F11002C0009372038A85803155
:101FA00009F1BE016F5F7F4FCE010A960E94F403D4
:101FB000882359F08D819A859B3311F487FD12C0D7
:101FC0008F3391F058F48F31C1F080E00EC08B3325
:101FD00009F4B3CF823409F08ECFAFCF8F3579F0CB
:101FE0008F3799F78CE001C08AE0909175039817BC
:101FF00008F081CF809375037ECF89E0F6CF8BE028
:10200000F4CF80917903811103C0115009F05ACFA8
:10201000E091D902F091DA0282E08083E091D5026A
:10202000F091D6021082E091D702F091D8028FECA5
:1020300080831092E102E091DD02F091DE0286E001
:102040008083E091DB02F091DC02808180618083FB
:10205000E091DB02F091DC02808188608083E09176
:10206000DB02F091DC02808180688083E091DB02FA
:10207000F091DC0280818F7D808382E00E94710874
:1020800061E088E00E941D0161E089E00E941D017D
:1020900061E08AE00E941D0161E08BE00E941D0169
:1020A00062E08CE00E941D0162E08DE00E941D0153
:1020B00062E08FE00E941D0161E08AE00E94EF0073
:1020C00061E08BE00E94EF0060E088E00E94EF009A
:1020D00060E089E00E94EF00FF24F394F092A502F3
:1020E00088E68093C70290E080E00E9409070E9482
:1020F000CD0461E088E60E94B4058093160286E66E
:1021000093E00E9493068C0187FF11C0F092A50214
:102110001092A6021092C80290E080E00E94090787
:10212000C8018F7799270E9409070E94CD0468ECA7
:1021300070E080E090E00E947E0146E452E068E4B6
:1021400072E08AE492E00E94180980914A0290911C
:102150004B029093430280934202809148029091F7
:1021600049029093410280934002809146029091EF
:10217000470290933F0280933E020E94690860EA02
:1021800071E087E993E00E94F70A6DEA71E089EC5B
:1021900092E00E94800969EB71E089EC92E00E9474
:1021A000800968EE73E080E090E00E947E010E946A
:1021B000690817E1812E912C0BE3A02EB12C442449
:1021C0004A94542C3201B8ED2B2EB0E03B2E0E94E5
:1021D000B101C0904C02D0904D02E0904E02F090C0
:1021E0004F026C197D098E099F09683E7340810575
:1021F000910550F10E94B10160934C0270934D0221
:1022000080934E0290934F02AE014F5F5F4FBE012D
:10221000665F7F4FCE0142960E9418098823A1F085
:102220008A899B8990934B0280934A028A859B8579
:10223000909349028093480289819A819093470242
:10224000809346020E94260B0E941107082F8E34AD
:1022500009F441C068E270E080E090E00E947E01F5
:102260000E941107081337C00E9411070817E1F3F5
:102270000D3409F07FC0809144029091450201968F
:10228000863091050CF071C0909345028093440212
:10229000809144029091450201970397C0F4809188
:1022A0004A0290914B0290934302809342028091A4
:1022B000480290914902909341028093400280919C
:1022C00046029091470290933F0280933E020E9403
:1022D00069080E94260B20914A0230914B0280919E
:1022E0000101909102012817390709F073C3209169
:1022F00048023091490280913C0290913D0228179A
:10230000390709F067C380914602909147020A9706
:102310000CF060C380910001893009F070C1E8E8D9
:10232000F0E0049107FD0DC261E089E00E941D010B
:10233000002309F4D6C1023009F0E7C18091B10051
:10234000887F83608093B10089EF8093B3004092CF
:102350001D0250921E0260921F0270922002809114
:102360007000826080937000ECC110924502109260
:1023700044028ECF0B3209F070C0809144029091DC
:1023800045028330910509F43FC09CF481309105EA
:1023900021F1029709F09DCF809140029091410276
:1023A00001968C3391055CF5909341028093400235
:1023B00090CF84309105D1F1059709F08ACF8091B3
:1023C0003C0290913D0201968C3391050CF040C087
:1023D00090933D0280933C027CCF80914202909189
:1023E00043020196883191052CF490934302809327
:1023F00042026FCF10924302109242026ACF1092B3
:1024000041021092400265CF80913E0290913F02BE
:1024100001968C3391052CF490933F0280933E02F9
:1024200058CF10923F0210923E0253CF809101018B
:10243000909102010196883191052CF4909302014C
:102440008093010146CF109202011092010141CF09
:1024500010923D0210923C023CCF0D3209F050C068
:1024600080914402909145028330910589F194F462
:102470008130910509F1029709F02BCF809140023C
:1024800090914102019797FF8FCFB0924102A092A5
:1024900040021FCF8430910539F1059709F019CF1B
:1024A00080913C0290913D02019797FF91CFB092AD
:1024B0003D02A0923C020DCF8091420290914302D6
:1024C000019797FF92CF909243028092420201CFF0
:1024D00080913E0290913F02019797FF9DCFB0926D
:1024E0003F02A0923E02F5CE80910101909102013F
:1024F000019797FFA3CF9092020180920101E9CE4C
:10250000033509F0E8CE809144029091450201978D
:10251000039708F0E0CED0903E02E0904002F090A9
:10252000420241E04093A50288E68093C7021092E0
:10253000A6021092C80290E080E00E9409070AE01B
:102540008D2D602F0E9451188295807F682F690F12
:1025500086E693E00E94DA068E2D602F0E945118C5
:102560008295807F682F690F86E693E00E94DA06E5
:102570008F2D602F0E9451188295807F682F690FE0
:1025800086E693E00E94DA060E94CD0468EC70E0D3
:1025900080E090E00E947E0146E452E068E472E050
:1025A0008AE492E00E94180980914A0290914B02BD
:1025B0009093430280934202809148029091490295
:1025C000909341028093400280914602909147028D
:1025D00090933F0280933E02109245021092440273
:1025E0000E9469080E94260B0E94B10160934C0270
:1025F00070934D0280934E0290934F026CCE8F3FAA
:1026000009F09FC089E080930001E8E8F0E00491C0
:102610000F3F09F496C0013021F150F0023009F467
:102620003EC007FD8EC061E089E00E941D0183CE9F
:1026300014BC15BC84B5826084BD85B5816085BD40
:10264000E4ECF0E08491E82FF0E0EE0FFF1FED5690
:10265000FF4F85919491F101849180931C0200E0D9
:1026600063CE10928000109281008091810088607A
:102670008093810080918100816080938100E4ECEF
:10268000F0E08491E82FF0E0EE0FFF1FED56FF4FD2
:1026900085919491F101849180931B0245CE109213
:1026A000B0001092B1008091B00082608093B000C1
:1026B0008091B10081608093B100E4ECF0E08491FE
:1026C000E82FF0E0EE0FFF1FED56FF4F859194913C
:1026D00090931A0280931902F10184918093180259
:1026E00023CE85B5887F836085BD8CE787BD40920A
:1026F0002502509226026092270270922802809151
:102700006E00826080936E001CC0013009F05AC1D7
:1027100080918100887F8160809381004FE35FE139
:1027200050938900409388004092210250922202E7
:10273000609223027092240280916F0082608093E5
:102740006F000E94B101C0902E02D0902F02E09045
:102750003002F09031026C197D098E099F09683EA4
:1027600073408105910508F45BC00E94B10160933C
:102770002E0270932F028093300290933102809149
:102780007B0390917C030E94BC0340E06CEC809141
:102790007B0390917C030E9469034091720364E47F
:1027A00080917B0390917C030E9469030E94B10198
:1027B0006B017C01809176038823E1F0809177039F
:1027C000882309F40BC180917203811107C18091A4
:1027D0007B0390917C030E941603813059F00E9484
:1027E000B1016C197D098E099F096E3E7240810509
:1027F000910568F36EEE72E080E090E00E947E0149
:1028000080917903811113C160E070E08EEF92EC4A
:1028100060932A0270932B0280932C0290932D02D6
:1028200080914802909149026FE070E00E945D182B
:10283000892B09F0CBC18091460290914702892BE8
:1028400009F0C4C180912902811170C06CEB71E064
:1028500089EC92E00E94F70A80914A0290914B0223
:102860000A9734F465E471E089EC92E00E94F70A7B
:1028700060914A0270914B0289EC92E00E94DB0960
:102880006DE471E089EC92E00E94F70A80914802C1
:10289000909149020A9734F465E471E089EC92E082
:1028A0000E94F70A609148027091490289EC92E017
:1028B0000E94DB096DE471E089EC92E00E94F70A66
:1028C00080914602909147020A9734F465E471E0E2
:1028D00089EC92E00E94F70A6091460270914702EB
:1028E00089EC92E00E94DB0963EC71E089EC92E0F4
:1028F0000E94F70A40912A0250912B0260912C020B
:1029000070912D0222E089EC92E00E94110A6BEC9A
:1029100071E089EC92E00E94800969EB71E089EC3A
:1029200092E00E94800981E0809329028FE00E945A
:10293000C6009C0101E0892B09F000E090913B0268
:10294000232B09F046C1911111C061E088E00E947B
:10295000EF0091E090933A020E94B1016093360239
:1029600070933702809338029093390280913A0233
:102970008823C9F00E94B101C0903602D09037027E
:10298000E0903802F09039026C197D098E099F0998
:10299000603177428105910530F060E088E00E9467
:1029A000EF0010923A0200933B0280E090E0892B06
:1029B00009F40DCC0E945C02882309F404CC0E9427
:1029C000000001CC023021F00111BBCE8FE38ECE8E
:1029D0008FE3BBCC89E00E94BF01B3CEE0917503C9
:1029E000E9508EEE92E0E33038F4F0E0EE0FFF1F96
:1029F000ED5FFE4F808191816C01F12CE12C809183
:102A00007303882329F060E0809174030E94EF0033
:102A1000C701B6010E947E0180917303882309F4E7
:102A2000E9CE61E0809174030E94EF00E3CEE09173
:102A30007B03F0917C03138615861486128611861B
:102A4000108617821682158214821382BE01665F79
:102A50007F4F80917B0390917C030E944D078823D8
:102A600009F4D2CE67E0CE010A960E94FF0299894E
:102A70008913CACEBE016F5F7F4FCE010A960E94B6
:102A8000F403882309F4C0CE8A8100E010E09801A5
:102A900087FF04C000E010E028EF3FEF4A859981EE
:102AA0004B33F1F55D8157FF3BC090FDADCEC92E94
:102AB000D12CF12CE12CF3E0CC0CDD1CEE1CFF1C26
:102AC000FA95D1F7F0EECF22F7E0DF22EE24FF24D3
:102AD00090E0B0E0A0E04BE0880F991FAA1FBB1F59
:102AE0004A95D1F78C299D29AE29BF296C017D011A
:102AF000C02AD12AE22AF32A51E8C51654EED50697
:102B00005FEFE506F5060CF47FCEC701B6010E9423
:102B10002A1720E030E040E05CE30E94DF1778CE27
:102B2000682F70E0762F6627770F770F770F58E0C2
:102B3000959F60011124C62AD72A0D2C000CEE089F
:102B4000FF08C02AD12AE22AF32A483269F49035D4
:102B500031F4853089F68F818C3071F655CE9F3FE8
:102B600059F6873049F650CE403131F668856623F4
:102B700019F270E08F81FB01E81BF109CF019695F6
:102B8000982F8827979587950E945D18CB01770F1E
:102B9000AA0BBB0B53E0CC0CDD1CEE1CFF1C5A95A2
:102BA000D1F7F0E8CF22F7E0EF22FF2440E2C41A89
:102BB000D108E108F1088C0D9D1DAE1DBF1D6801F7
:102BC0007901C82AD92AEA2AFB2A96CF109229022B
:102BD000ADCE992351F00E94B101609332027093FF
:102BE0003302809334029093350280913A02882315
:102BF00009F4D9CE0E94B101C0903202D0903302C4
:102C0000E0903402F09035026C197D098E099F091D
:102C1000603177428105910508F4ACCE60E088E030
:102C20000E94EF0010923A02A1CE5058BB27AA276B
:102C30000E942D160C94A0170E94921738F00E9443
:102C4000991720F039F49F3F19F426F40C948F174C
:102C50000EF4E095E7FB0C948917E92F0E94B11759
:102C600058F3BA17620773078407950720F079F4C1
:102C7000A6F50C94D3170EF4E0950B2EBA2FA02DC9
:102C80000B01B90190010C01CA01A0011124FF2719
:102C9000591B99F0593F50F4503E68F11A16F04014
:102CA000A22F232F342F4427585FF3CF4695379513
:102CB0002795A795F0405395C9F77EF41F16BA0BD8
:102CC000620B730B840BBAF09150A1F0FF0FBB1F86
:102CD000661F771F881FC2F70EC0BA0F621F731FCF
:102CE000841F48F4879577956795B795F7959E3F2C
:102CF00008F0B0CF9395880F08F09927EE0F9795BD
:102D0000879508950E94651708F481E008950E9450
:102D10009B160C94A0170E94991758F00E949217C6
:102D200040F029F45F3F29F00C94891751110C945D
:102D3000D4170C948F170E94B11768F39923B1F33D
:102D4000552391F3951B550BBB27AA2762177307D1
:102D5000840738F09F5F5F4F220F331F441FAA1F65
:102D6000A9F335D00E2E3AF0E0E832D09150504021
:102D7000E695001CCAF72BD0FE2F29D0660F771FCF
:102D8000881FBB1F261737074807AB07B0E809F0B5
:102D9000BB0B802DBF01FF2793585F4F3AF09E3F3A
:102DA000510578F00C9489170C94D4175F3FE4F325
:102DB000983ED4F3869577956795B795F7959F5F7D
:102DC000C9F7880F911D9695879597F90895E1E0C9
:102DD000660F771F881FBB1F621773078407BA0728
:102DE00020F0621B730B840BBA0BEE1F88F7E09583
:102DF00008950E94B91788F09F5798F0B92F992726
:102E0000B751B0F0E1F0660F771F881F991F1AF0D5
:102E1000BA95C9F714C0B13091F00E94D317B1E050
:102E200008950C94D317672F782F8827B85F39F04F
:102E3000B93FCCF3869577956795B395D9F73EF46E
:102E400090958095709561957F4F8F4F9F4F089516
:102E5000E89409C097FB3EF4909580957095619534
:102E60007F4F8F4F9F4F9923A9F0F92F96E9BB27EA
:102E70009395F695879577956795B795F111F8CF66
:102E8000FAF4BB0F11F460FF1BC06F5F7F4F8F4FD1
:102E90009F4F16C0882311F096E911C0772321F0C7
:102EA0009EE8872F762F05C0662371F096E8862F5F
:102EB00070E060E02AF09A95660F771F881FDAF7B6
:102EC000880F9695879597F90895990F0008550FE3
:102ED000AA0BE0E8FEEF16161706E807F907C0F0A0
:102EE00012161306E407F50798F0621B730B840BA8
:102EF000950B39F40A2661F0232B242B252B21F482
:102F000008950A2609F4A140A6958FEF811D811D21
:102F1000089597F99F6780E870E060E008959FEF5B
:102F200080EC089500240A94161617061806090660
:102F3000089500240A94121613061406050608952F
:102F4000092E0394000C11F4882352F0BB0F40F4B7
:102F5000BF2B11F460FF04C06F5F7F4F8F4F9F4FF7
:102F6000089557FD9058440F551F59F05F3F71F079
:102F70004795880F97FB991F61F09F3F79F08795E0
:102F80000895121613061406551FF2CF4695F1DF69
:102F900008C0161617061806991FF1CF86957105F9
:102FA000610508940895E894BB2766277727CB012D
:102FB00097F908950E94651708F48FEF08950E940D
:102FC000F2170C94A0170E94921738F00E949917DC
:102FD00020F0952311F00C9489170C948F1711246D
:102FE0000C94D4170E94B11770F3959FC1F3950FFD
:102FF00050E0551F629FF001729FBB27F00DB11D7D
:10300000639FAA27F00DB11DAA1F649F6627B00D0C
:10301000A11D661F829F2227B00DA11D621F739FF5
:10302000B00DA11D621F839FA00D611D221F749F03
:103030003327A00D611D231F849F600D211D822F4A
:10304000762F6A2F11249F5750409AF0F1F0882371
:103050004AF0EE0FFF1FBB1F661F771F881F91509E
:103060005040A9F79E3F510580F00C9489170C94AD
:10307000D4175F3FE4F3983ED4F386957795679530
:10308000B795F795E7959F5FC1F7FE2B880F911DC8
:103090009695879597F908950E946517880B990B67
:1030A0000895991B79E004C0991F961708F0961BA4
:1030B000881F7A95C9F78095089597FB072E16F417
:1030C000009407D077FD09D00E94931807FC05D023
:1030D0003EF4909581959F4F0895709561957F4F2F
:1030E0000895A1E21A2EAA1BBB1BFD010DC0AA1F49
:1030F000BB1FEE1FFF1FA217B307E407F50720F061
:10310000A21BB30BE40BF50B661F771F881F991FDB
:103110001A9469F760957095809590959B01AC0124
:10312000BD01CF010895AA1BBB1B51E107C0AA1F17
:10313000BB1FA617B70710F0A61BB70B881F991F58
:103140005A95A9F780959095BC01CD010895EE0F91
:10315000FF1F0590F491E02D0994F894FFCFFF062E
:10316000005E00BC007701000000009202F2011F27
:1031700002DF0250022E02420200000000DA06AD19
:10318000060E078306A606930684060000000012BA
:1031900009F2010E0766046E616E00696E66006FCB
:1031A000766600300054494D4520003A005345549E
:1031B00020484F5552532020202000534554204D85
:1031C000494E555445532020005345542053454300
:1031D0004F4E4453202000414C41524D20484F5502
:1031E0005220202000414C41524D204D494E20207C
:1031F0002020004320004F4E20004F4646005254EE
:10320000432054454D50205359530054454D5020B0
:103210004C4F47474552000D0A0054494D453A204E
:0C322000002054454D503A20002043008F
:107E0000112484B714BE81FFF0D085E080938100F7
:107E100082E08093C00088E18093C10086E0809377
:107E2000C20080E18093C4008EE0C9D0259A86E02C
:107E300020E33CEF91E0309385002093840096BBD3
:107E4000B09BFECF1D9AA8958150A9F7CC24DD24C4
:107E500088248394B5E0AB2EA1E19A2EF3E0BF2EE7
:107E6000A2D0813461F49FD0082FAFD0023811F036
:107E7000013811F484E001C083E08DD089C08234E0
:107E800011F484E103C0853419F485E0A6D080C0E4
:107E9000853579F488D0E82EFF2485D0082F10E0AE
:107EA000102F00270E291F29000F111F8ED06801E7
:107EB0006FC0863521F484E090D080E0DECF843638
:107EC00009F040C070D06FD0082F6DD080E0C81688
:107ED00080E7D80618F4F601B7BEE895C0E0D1E017
:107EE00062D089930C17E1F7F0E0CF16F0E7DF06D8
:107EF00018F0F601B7BEE89568D007B600FCFDCFD4
:107F0000A601A0E0B1E02C9130E011968C91119780
:107F100090E0982F8827822B932B1296FA010C0160
:107F200087BEE89511244E5F5F4FF1E0A038BF0790
:107F300051F7F601A7BEE89507B600FCFDCF97BE46
:107F4000E89526C08437B1F42ED02DD0F82E2BD052
:107F50003CD0F601EF2C8F010F5F1F4F84911BD097
:107F6000EA94F801C1F70894C11CD11CFA94CF0C13
:107F7000D11C0EC0853739F428D08EE10CD085E9AC
:107F80000AD08FE07ACF813511F488E018D01DD067
:107F900080E101D065CF982F8091C00085FFFCCF94
:107FA0009093C60008958091C00087FFFCCF809118
:107FB000C00084FD01C0A8958091C6000895E0E648
:107FC000F0E098E1908380830895EDDF803219F02E
:107FD00088E0F5DFFFCF84E1DECF1F93182FE3DFCA
:107FE0001150E9F7F2DF1F91089580E0E8DFEE27F6
:047FF000FF270994CA
:027FFE00040479
:00000001FF
